{
  "contractName": "MyNft",
  "abi": [
    {
      "inputs": [],
      "stateMutability": "nonpayable",
      "type": "constructor"
    },
    {
      "anonymous": false,
      "inputs": [
        {
          "indexed": true,
          "internalType": "address",
          "name": "owner",
          "type": "address"
        },
        {
          "indexed": true,
          "internalType": "address",
          "name": "approved",
          "type": "address"
        },
        {
          "indexed": true,
          "internalType": "uint256",
          "name": "tokenId",
          "type": "uint256"
        }
      ],
      "name": "Approval",
      "type": "event"
    },
    {
      "anonymous": false,
      "inputs": [
        {
          "indexed": true,
          "internalType": "address",
          "name": "owner",
          "type": "address"
        },
        {
          "indexed": true,
          "internalType": "address",
          "name": "operator",
          "type": "address"
        },
        {
          "indexed": false,
          "internalType": "bool",
          "name": "approved",
          "type": "bool"
        }
      ],
      "name": "ApprovalForAll",
      "type": "event"
    },
    {
      "anonymous": false,
      "inputs": [
        {
          "indexed": false,
          "internalType": "address",
          "name": "account",
          "type": "address"
        }
      ],
      "name": "Paused",
      "type": "event"
    },
    {
      "anonymous": false,
      "inputs": [
        {
          "indexed": true,
          "internalType": "bytes32",
          "name": "role",
          "type": "bytes32"
        },
        {
          "indexed": true,
          "internalType": "bytes32",
          "name": "previousAdminRole",
          "type": "bytes32"
        },
        {
          "indexed": true,
          "internalType": "bytes32",
          "name": "newAdminRole",
          "type": "bytes32"
        }
      ],
      "name": "RoleAdminChanged",
      "type": "event"
    },
    {
      "anonymous": false,
      "inputs": [
        {
          "indexed": true,
          "internalType": "bytes32",
          "name": "role",
          "type": "bytes32"
        },
        {
          "indexed": true,
          "internalType": "address",
          "name": "account",
          "type": "address"
        },
        {
          "indexed": true,
          "internalType": "address",
          "name": "sender",
          "type": "address"
        }
      ],
      "name": "RoleGranted",
      "type": "event"
    },
    {
      "anonymous": false,
      "inputs": [
        {
          "indexed": true,
          "internalType": "bytes32",
          "name": "role",
          "type": "bytes32"
        },
        {
          "indexed": true,
          "internalType": "address",
          "name": "account",
          "type": "address"
        },
        {
          "indexed": true,
          "internalType": "address",
          "name": "sender",
          "type": "address"
        }
      ],
      "name": "RoleRevoked",
      "type": "event"
    },
    {
      "anonymous": false,
      "inputs": [
        {
          "indexed": true,
          "internalType": "address",
          "name": "from",
          "type": "address"
        },
        {
          "indexed": true,
          "internalType": "address",
          "name": "to",
          "type": "address"
        },
        {
          "indexed": true,
          "internalType": "uint256",
          "name": "tokenId",
          "type": "uint256"
        }
      ],
      "name": "Transfer",
      "type": "event"
    },
    {
      "anonymous": false,
      "inputs": [
        {
          "indexed": false,
          "internalType": "address",
          "name": "account",
          "type": "address"
        }
      ],
      "name": "Unpaused",
      "type": "event"
    },
    {
      "inputs": [],
      "name": "DEFAULT_ADMIN_ROLE",
      "outputs": [
        {
          "internalType": "bytes32",
          "name": "",
          "type": "bytes32"
        }
      ],
      "stateMutability": "view",
      "type": "function",
      "constant": true
    },
    {
      "inputs": [],
      "name": "MINTER_ROLE",
      "outputs": [
        {
          "internalType": "bytes32",
          "name": "",
          "type": "bytes32"
        }
      ],
      "stateMutability": "view",
      "type": "function",
      "constant": true
    },
    {
      "inputs": [],
      "name": "PAUSER_ROLE",
      "outputs": [
        {
          "internalType": "bytes32",
          "name": "",
          "type": "bytes32"
        }
      ],
      "stateMutability": "view",
      "type": "function",
      "constant": true
    },
    {
      "inputs": [
        {
          "internalType": "address",
          "name": "to",
          "type": "address"
        },
        {
          "internalType": "uint256",
          "name": "tokenId",
          "type": "uint256"
        }
      ],
      "name": "approve",
      "outputs": [],
      "stateMutability": "nonpayable",
      "type": "function"
    },
    {
      "inputs": [
        {
          "internalType": "address",
          "name": "owner",
          "type": "address"
        }
      ],
      "name": "balanceOf",
      "outputs": [
        {
          "internalType": "uint256",
          "name": "",
          "type": "uint256"
        }
      ],
      "stateMutability": "view",
      "type": "function",
      "constant": true
    },
    {
      "inputs": [
        {
          "internalType": "uint256",
          "name": "tokenId",
          "type": "uint256"
        }
      ],
      "name": "burn",
      "outputs": [],
      "stateMutability": "nonpayable",
      "type": "function"
    },
    {
      "inputs": [
        {
          "internalType": "uint256",
          "name": "tokenId",
          "type": "uint256"
        }
      ],
      "name": "getApproved",
      "outputs": [
        {
          "internalType": "address",
          "name": "",
          "type": "address"
        }
      ],
      "stateMutability": "view",
      "type": "function",
      "constant": true
    },
    {
      "inputs": [
        {
          "internalType": "bytes32",
          "name": "role",
          "type": "bytes32"
        }
      ],
      "name": "getRoleAdmin",
      "outputs": [
        {
          "internalType": "bytes32",
          "name": "",
          "type": "bytes32"
        }
      ],
      "stateMutability": "view",
      "type": "function",
      "constant": true
    },
    {
      "inputs": [
        {
          "internalType": "bytes32",
          "name": "role",
          "type": "bytes32"
        },
        {
          "internalType": "uint256",
          "name": "index",
          "type": "uint256"
        }
      ],
      "name": "getRoleMember",
      "outputs": [
        {
          "internalType": "address",
          "name": "",
          "type": "address"
        }
      ],
      "stateMutability": "view",
      "type": "function",
      "constant": true
    },
    {
      "inputs": [
        {
          "internalType": "bytes32",
          "name": "role",
          "type": "bytes32"
        }
      ],
      "name": "getRoleMemberCount",
      "outputs": [
        {
          "internalType": "uint256",
          "name": "",
          "type": "uint256"
        }
      ],
      "stateMutability": "view",
      "type": "function",
      "constant": true
    },
    {
      "inputs": [
        {
          "internalType": "bytes32",
          "name": "role",
          "type": "bytes32"
        },
        {
          "internalType": "address",
          "name": "account",
          "type": "address"
        }
      ],
      "name": "grantRole",
      "outputs": [],
      "stateMutability": "nonpayable",
      "type": "function"
    },
    {
      "inputs": [
        {
          "internalType": "bytes32",
          "name": "role",
          "type": "bytes32"
        },
        {
          "internalType": "address",
          "name": "account",
          "type": "address"
        }
      ],
      "name": "hasRole",
      "outputs": [
        {
          "internalType": "bool",
          "name": "",
          "type": "bool"
        }
      ],
      "stateMutability": "view",
      "type": "function",
      "constant": true
    },
    {
      "inputs": [
        {
          "internalType": "address",
          "name": "owner",
          "type": "address"
        },
        {
          "internalType": "address",
          "name": "operator",
          "type": "address"
        }
      ],
      "name": "isApprovedForAll",
      "outputs": [
        {
          "internalType": "bool",
          "name": "",
          "type": "bool"
        }
      ],
      "stateMutability": "view",
      "type": "function",
      "constant": true
    },
    {
      "inputs": [
        {
          "internalType": "address",
          "name": "to",
          "type": "address"
        }
      ],
      "name": "mint",
      "outputs": [],
      "stateMutability": "nonpayable",
      "type": "function"
    },
    {
      "inputs": [],
      "name": "name",
      "outputs": [
        {
          "internalType": "string",
          "name": "",
          "type": "string"
        }
      ],
      "stateMutability": "view",
      "type": "function",
      "constant": true
    },
    {
      "inputs": [],
      "name": "nft",
      "outputs": [
        {
          "internalType": "contract ERC721PresetMinterPauserAutoId",
          "name": "",
          "type": "address"
        }
      ],
      "stateMutability": "view",
      "type": "function",
      "constant": true
    },
    {
      "inputs": [
        {
          "internalType": "uint256",
          "name": "tokenId",
          "type": "uint256"
        }
      ],
      "name": "ownerOf",
      "outputs": [
        {
          "internalType": "address",
          "name": "",
          "type": "address"
        }
      ],
      "stateMutability": "view",
      "type": "function",
      "constant": true
    },
    {
      "inputs": [],
      "name": "pause",
      "outputs": [],
      "stateMutability": "nonpayable",
      "type": "function"
    },
    {
      "inputs": [],
      "name": "paused",
      "outputs": [
        {
          "internalType": "bool",
          "name": "",
          "type": "bool"
        }
      ],
      "stateMutability": "view",
      "type": "function",
      "constant": true
    },
    {
      "inputs": [
        {
          "internalType": "bytes32",
          "name": "role",
          "type": "bytes32"
        },
        {
          "internalType": "address",
          "name": "account",
          "type": "address"
        }
      ],
      "name": "renounceRole",
      "outputs": [],
      "stateMutability": "nonpayable",
      "type": "function"
    },
    {
      "inputs": [
        {
          "internalType": "bytes32",
          "name": "role",
          "type": "bytes32"
        },
        {
          "internalType": "address",
          "name": "account",
          "type": "address"
        }
      ],
      "name": "revokeRole",
      "outputs": [],
      "stateMutability": "nonpayable",
      "type": "function"
    },
    {
      "inputs": [
        {
          "internalType": "address",
          "name": "from",
          "type": "address"
        },
        {
          "internalType": "address",
          "name": "to",
          "type": "address"
        },
        {
          "internalType": "uint256",
          "name": "tokenId",
          "type": "uint256"
        }
      ],
      "name": "safeTransferFrom",
      "outputs": [],
      "stateMutability": "nonpayable",
      "type": "function"
    },
    {
      "inputs": [
        {
          "internalType": "address",
          "name": "from",
          "type": "address"
        },
        {
          "internalType": "address",
          "name": "to",
          "type": "address"
        },
        {
          "internalType": "uint256",
          "name": "tokenId",
          "type": "uint256"
        },
        {
          "internalType": "bytes",
          "name": "_data",
          "type": "bytes"
        }
      ],
      "name": "safeTransferFrom",
      "outputs": [],
      "stateMutability": "nonpayable",
      "type": "function"
    },
    {
      "inputs": [
        {
          "internalType": "address",
          "name": "operator",
          "type": "address"
        },
        {
          "internalType": "bool",
          "name": "approved",
          "type": "bool"
        }
      ],
      "name": "setApprovalForAll",
      "outputs": [],
      "stateMutability": "nonpayable",
      "type": "function"
    },
    {
      "inputs": [
        {
          "internalType": "bytes4",
          "name": "interfaceId",
          "type": "bytes4"
        }
      ],
      "name": "supportsInterface",
      "outputs": [
        {
          "internalType": "bool",
          "name": "",
          "type": "bool"
        }
      ],
      "stateMutability": "view",
      "type": "function",
      "constant": true
    },
    {
      "inputs": [],
      "name": "symbol",
      "outputs": [
        {
          "internalType": "string",
          "name": "",
          "type": "string"
        }
      ],
      "stateMutability": "view",
      "type": "function",
      "constant": true
    },
    {
      "inputs": [
        {
          "internalType": "uint256",
          "name": "index",
          "type": "uint256"
        }
      ],
      "name": "tokenByIndex",
      "outputs": [
        {
          "internalType": "uint256",
          "name": "",
          "type": "uint256"
        }
      ],
      "stateMutability": "view",
      "type": "function",
      "constant": true
    },
    {
      "inputs": [
        {
          "internalType": "address",
          "name": "owner",
          "type": "address"
        },
        {
          "internalType": "uint256",
          "name": "index",
          "type": "uint256"
        }
      ],
      "name": "tokenOfOwnerByIndex",
      "outputs": [
        {
          "internalType": "uint256",
          "name": "",
          "type": "uint256"
        }
      ],
      "stateMutability": "view",
      "type": "function",
      "constant": true
    },
    {
      "inputs": [
        {
          "internalType": "uint256",
          "name": "tokenId",
          "type": "uint256"
        }
      ],
      "name": "tokenURI",
      "outputs": [
        {
          "internalType": "string",
          "name": "",
          "type": "string"
        }
      ],
      "stateMutability": "view",
      "type": "function",
      "constant": true
    },
    {
      "inputs": [],
      "name": "totalSupply",
      "outputs": [
        {
          "internalType": "uint256",
          "name": "",
          "type": "uint256"
        }
      ],
      "stateMutability": "view",
      "type": "function",
      "constant": true
    },
    {
      "inputs": [
        {
          "internalType": "address",
          "name": "from",
          "type": "address"
        },
        {
          "internalType": "address",
          "name": "to",
          "type": "address"
        },
        {
          "internalType": "uint256",
          "name": "tokenId",
          "type": "uint256"
        }
      ],
      "name": "transferFrom",
      "outputs": [],
      "stateMutability": "nonpayable",
      "type": "function"
    },
    {
      "inputs": [],
      "name": "unpause",
      "outputs": [],
      "stateMutability": "nonpayable",
      "type": "function"
    }
  ],
  "bytecode": "0x60806040523480156200001157600080fd5b506040518060400160405280600581526020017f4d794e66740000000000000000000000000000000000000000000000000000008152506040518060400160405280600281526020017f4d4e0000000000000000000000000000000000000000000000000000000000008152506040518060600160405280602f815260200162004e36602f913982828160029080519060200190620000b292919062000447565b508060039080519060200190620000cb92919062000447565b5050506000600c60006101000a81548160ff02191690831515021790555080600e90805190602001906200010192919062000447565b50620001266000801b6200011a620001b160201b60201c565b620001b960201b60201c565b620001677f9f2df0fed2c77648de5860a4cc508cd0818c85b8b8a1ab4ceeef8d981c8956a66200015b620001b160201b60201c565b620001b960201b60201c565b620001a87f65d7a28e3265b37a6474929f336521b332c1681b933f6cb9f3376673440d862a6200019c620001b160201b60201c565b620001b960201b60201c565b5050506200055c565b600033905090565b620001d082826200020160201b620013591760201c565b620001fc81600160008581526020019081526020016000206200021760201b620013671790919060201c565b505050565b6200021382826200024f60201b60201c565b5050565b600062000247836000018373ffffffffffffffffffffffffffffffffffffffff1660001b6200034060201b60201c565b905092915050565b620002618282620003ba60201b60201c565b6200033c57600160008084815260200190815260200160002060000160008373ffffffffffffffffffffffffffffffffffffffff1673ffffffffffffffffffffffffffffffffffffffff16815260200190815260200160002060006101000a81548160ff021916908315150217905550620002e1620001b160201b60201c565b73ffffffffffffffffffffffffffffffffffffffff168173ffffffffffffffffffffffffffffffffffffffff16837f2f8788117e7eff1d82e926ec794901d17c78024a50270940304540a733656f0d60405160405180910390a45b5050565b60006200035483836200042460201b60201c565b620003af578260000182908060018154018082558091505060019003906000526020600020016000909190919091505582600001805490508360010160008481526020019081526020016000208190555060019050620003b4565b600090505b92915050565b600080600084815260200190815260200160002060000160008373ffffffffffffffffffffffffffffffffffffffff1673ffffffffffffffffffffffffffffffffffffffff16815260200190815260200160002060009054906101000a900460ff16905092915050565b600080836001016000848152602001908152602001600020541415905092915050565b8280546200045590620004f7565b90600052602060002090601f016020900481019282620004795760008555620004c5565b82601f106200049457805160ff1916838001178555620004c5565b82800160010185558215620004c5579182015b82811115620004c4578251825591602001919060010190620004a7565b5b509050620004d49190620004d8565b5090565b5b80821115620004f3576000816000905550600101620004d9565b5090565b600060028204905060018216806200051057607f821691505b602082108114156200052757620005266200052d565b5b50919050565b7f4e487b7100000000000000000000000000000000000000000000000000000000600052602260045260246000fd5b6148ca806200056c6000396000f3fe608060405234801561001057600080fd5b50600436106101f05760003560e01c80636352211e1161010f578063a22cb465116100a2578063d539139311610071578063d5391393146105c9578063d547741f146105e7578063e63ab1e914610603578063e985e9c514610621576101f0565b8063a22cb46514610531578063b88d4fde1461054d578063c87b56dd14610569578063ca15c87314610599576101f0565b80639010d07c116100de5780639010d07c1461049557806391d14854146104c557806395d89b41146104f5578063a217fddf14610513576101f0565b80636352211e1461040f5780636a6278421461043f57806370a082311461045b5780638456cb591461048b576101f0565b80632f745c591161018757806342966c681161015657806342966c681461038757806347ccca02146103a35780634f6ccce7146103c15780635c975abb146103f1576101f0565b80632f745c591461031557806336568abe146103455780633f4ba83a1461036157806342842e0e1461036b576101f0565b806318160ddd116101c357806318160ddd1461028f57806323b872dd146102ad578063248a9ca3146102c95780632f2ff15d146102f9576101f0565b806301ffc9a7146101f557806306fdde0314610225578063081812fc14610243578063095ea7b314610273575b600080fd5b61020f600480360381019061020a9190613473565b610651565b60405161021c9190614033565b60405180910390f35b61022d610663565b60405161023a9190614084565b60405180910390f35b61025d600480360381019061025891906134c5565b6106f5565b60405161026a9190613fcc565b60405180910390f35b61028d60048036038101906102889190613396565b61077a565b005b610297610892565b6040516102a491906143c6565b60405180910390f35b6102c760048036038101906102c29190613290565b61089f565b005b6102e360048036038101906102de91906133d2565b6108ff565b6040516102f0919061404e565b60405180910390f35b610313600480360381019061030e91906133fb565b61091e565b005b61032f600480360381019061032a9190613396565b610952565b60405161033c91906143c6565b60405180910390f35b61035f600480360381019061035a91906133fb565b6109f7565b005b610369610a2b565b005b61038560048036038101906103809190613290565b610aa5565b005b6103a1600480360381019061039c91906134c5565b610ac5565b005b6103ab610b21565b6040516103b89190614069565b60405180910390f35b6103db60048036038101906103d691906134c5565b610b47565b6040516103e891906143c6565b60405180910390f35b6103f9610bde565b6040516104069190614033565b60405180910390f35b610429600480360381019061042491906134c5565b610bf5565b6040516104369190613fcc565b60405180910390f35b6104596004803603810190610454919061322b565b610ca7565b005b6104756004803603810190610470919061322b565b610d37565b60405161048291906143c6565b60405180910390f35b610493610def565b005b6104af60048036038101906104aa9190613437565b610e69565b6040516104bc9190613fcc565b60405180910390f35b6104df60048036038101906104da91906133fb565b610e98565b6040516104ec9190614033565b60405180910390f35b6104fd610f02565b60405161050a9190614084565b60405180910390f35b61051b610f94565b604051610528919061404e565b60405180910390f35b61054b6004803603810190610546919061335a565b610f9b565b005b610567600480360381019061056291906132df565b61111c565b005b610583600480360381019061057e91906134c5565b61117e565b6040516105909190614084565b60405180910390f35b6105b360048036038101906105ae91906133d2565b611225565b6040516105c091906143c6565b60405180910390f35b6105d1611249565b6040516105de919061404e565b60405180910390f35b61060160048036038101906105fc91906133fb565b61126d565b005b61060b6112a1565b604051610618919061404e565b60405180910390f35b61063b60048036038101906106369190613254565b6112c5565b6040516106489190614033565b60405180910390f35b600061065c82611397565b9050919050565b606060028054610672906146a8565b80601f016020809104026020016040519081016040528092919081815260200182805461069e906146a8565b80156106eb5780601f106106c0576101008083540402835291602001916106eb565b820191906000526020600020905b8154815290600101906020018083116106ce57829003601f168201915b5050505050905090565b600061070082611411565b61073f576040517f08c379a000000000000000000000000000000000000000000000000000000000815260040161073690614286565b60405180910390fd5b6006600083815260200190815260200160002060009054906101000a900473ffffffffffffffffffffffffffffffffffffffff169050919050565b600061078582610bf5565b90508073ffffffffffffffffffffffffffffffffffffffff168373ffffffffffffffffffffffffffffffffffffffff1614156107f6576040517f08c379a00000000000000000000000000000000000000000000000000000000081526004016107ed906142e6565b60405180910390fd5b8073ffffffffffffffffffffffffffffffffffffffff1661081561147d565b73ffffffffffffffffffffffffffffffffffffffff16148061084457506108438161083e61147d565b6112c5565b5b610883576040517f08c379a000000000000000000000000000000000000000000000000000000000815260040161087a90614206565b60405180910390fd5b61088d8383611485565b505050565b6000600a80549050905090565b6108b06108aa61147d565b8261153e565b6108ef576040517f08c379a00000000000000000000000000000000000000000000000000000000081526004016108e690614306565b60405180910390fd5b6108fa83838361161c565b505050565b6000806000838152602001908152602001600020600101549050919050565b6109288282611878565b61094d816001600085815260200190815260200160002061136790919063ffffffff16565b505050565b600061095d83610d37565b821061099e576040517f08c379a000000000000000000000000000000000000000000000000000000000815260040161099590614106565b60405180910390fd5b600860008473ffffffffffffffffffffffffffffffffffffffff1673ffffffffffffffffffffffffffffffffffffffff168152602001908152602001600020600083815260200190815260200160002054905092915050565b610a0182826118a1565b610a26816001600085815260200190815260200160002061192490919063ffffffff16565b505050565b610a5c7f65d7a28e3265b37a6474929f336521b332c1681b933f6cb9f3376673440d862a610a5761147d565b610e98565b610a9b576040517f08c379a0000000000000000000000000000000000000000000000000000000008152600401610a9290614386565b60405180910390fd5b610aa3611954565b565b610ac08383836040518060200160405280600081525061111c565b505050565b610ad6610ad061147d565b8261153e565b610b15576040517f08c379a0000000000000000000000000000000000000000000000000000000008152600401610b0c90614366565b60405180910390fd5b610b1e816119f6565b50565b600f60009054906101000a900473ffffffffffffffffffffffffffffffffffffffff1681565b6000610b51610892565b8210610b92576040517f08c379a0000000000000000000000000000000000000000000000000000000008152600401610b8990614326565b60405180910390fd5b600a8281548110610bcc577f4e487b7100000000000000000000000000000000000000000000000000000000600052603260045260246000fd5b90600052602060002001549050919050565b6000600c60009054906101000a900460ff16905090565b6000806004600084815260200190815260200160002060009054906101000a900473ffffffffffffffffffffffffffffffffffffffff169050600073ffffffffffffffffffffffffffffffffffffffff168173ffffffffffffffffffffffffffffffffffffffff161415610c9e576040517f08c379a0000000000000000000000000000000000000000000000000000000008152600401610c9590614246565b60405180910390fd5b80915050919050565b610cd87f9f2df0fed2c77648de5860a4cc508cd0818c85b8b8a1ab4ceeef8d981c8956a6610cd361147d565b610e98565b610d17576040517f08c379a0000000000000000000000000000000000000000000000000000000008152600401610d0e90614346565b60405180910390fd5b610d2a81610d25600d611b07565b611b15565b610d34600d611ce3565b50565b60008073ffffffffffffffffffffffffffffffffffffffff168273ffffffffffffffffffffffffffffffffffffffff161415610da8576040517f08c379a0000000000000000000000000000000000000000000000000000000008152600401610d9f90614226565b60405180910390fd5b600560008373ffffffffffffffffffffffffffffffffffffffff1673ffffffffffffffffffffffffffffffffffffffff168152602001908152602001600020549050919050565b610e207f65d7a28e3265b37a6474929f336521b332c1681b933f6cb9f3376673440d862a610e1b61147d565b610e98565b610e5f576040517f08c379a0000000000000000000000000000000000000000000000000000000008152600401610e5690614166565b60405180910390fd5b610e67611cf9565b565b6000610e908260016000868152602001908152602001600020611d9c90919063ffffffff16565b905092915050565b600080600084815260200190815260200160002060000160008373ffffffffffffffffffffffffffffffffffffffff1673ffffffffffffffffffffffffffffffffffffffff16815260200190815260200160002060009054906101000a900460ff16905092915050565b606060038054610f11906146a8565b80601f0160208091040260200160405190810160405280929190818152602001828054610f3d906146a8565b8015610f8a5780601f10610f5f57610100808354040283529160200191610f8a565b820191906000526020600020905b815481529060010190602001808311610f6d57829003601f168201915b5050505050905090565b6000801b81565b610fa361147d565b73ffffffffffffffffffffffffffffffffffffffff168273ffffffffffffffffffffffffffffffffffffffff161415611011576040517f08c379a0000000000000000000000000000000000000000000000000000000008152600401611008906141a6565b60405180910390fd5b806007600061101e61147d565b73ffffffffffffffffffffffffffffffffffffffff1673ffffffffffffffffffffffffffffffffffffffff16815260200190815260200160002060008473ffffffffffffffffffffffffffffffffffffffff1673ffffffffffffffffffffffffffffffffffffffff16815260200190815260200160002060006101000a81548160ff0219169083151502179055508173ffffffffffffffffffffffffffffffffffffffff166110cb61147d565b73ffffffffffffffffffffffffffffffffffffffff167f17307eab39ab6107e8899845ad3d59bd9653f200f220920489ca2b5937696c31836040516111109190614033565b60405180910390a35050565b61112d61112761147d565b8361153e565b61116c576040517f08c379a000000000000000000000000000000000000000000000000000000000815260040161116390614306565b60405180910390fd5b61117884848484611db6565b50505050565b606061118982611411565b6111c8576040517f08c379a00000000000000000000000000000000000000000000000000000000081526004016111bf906142c6565b60405180910390fd5b60006111d2611e12565b905060008151116111f2576040518060200160405280600081525061121d565b806111fc84611ea4565b60405160200161120d929190613f6e565b6040516020818303038152906040525b915050919050565b600061124260016000848152602001908152602001600020612051565b9050919050565b7f9f2df0fed2c77648de5860a4cc508cd0818c85b8b8a1ab4ceeef8d981c8956a681565b6112778282612066565b61129c816001600085815260200190815260200160002061192490919063ffffffff16565b505050565b7f65d7a28e3265b37a6474929f336521b332c1681b933f6cb9f3376673440d862a81565b6000600760008473ffffffffffffffffffffffffffffffffffffffff1673ffffffffffffffffffffffffffffffffffffffff16815260200190815260200160002060008373ffffffffffffffffffffffffffffffffffffffff1673ffffffffffffffffffffffffffffffffffffffff16815260200190815260200160002060009054906101000a900460ff16905092915050565b611363828261208f565b5050565b600061138f836000018373ffffffffffffffffffffffffffffffffffffffff1660001b61216f565b905092915050565b60007f780e9d63000000000000000000000000000000000000000000000000000000007bffffffffffffffffffffffffffffffffffffffffffffffffffffffff1916827bffffffffffffffffffffffffffffffffffffffffffffffffffffffff1916148061140a5750611409826121df565b5b9050919050565b60008073ffffffffffffffffffffffffffffffffffffffff166004600084815260200190815260200160002060009054906101000a900473ffffffffffffffffffffffffffffffffffffffff1673ffffffffffffffffffffffffffffffffffffffff1614159050919050565b600033905090565b816006600083815260200190815260200160002060006101000a81548173ffffffffffffffffffffffffffffffffffffffff021916908373ffffffffffffffffffffffffffffffffffffffff160217905550808273ffffffffffffffffffffffffffffffffffffffff166114f883610bf5565b73ffffffffffffffffffffffffffffffffffffffff167f8c5be1e5ebec7d5bd14f71427d1e84f3dd0314c0f7b2291e5b200ac8c7c3b92560405160405180910390a45050565b600061154982611411565b611588576040517f08c379a000000000000000000000000000000000000000000000000000000000815260040161157f906141c6565b60405180910390fd5b600061159383610bf5565b90508073ffffffffffffffffffffffffffffffffffffffff168473ffffffffffffffffffffffffffffffffffffffff16148061160257508373ffffffffffffffffffffffffffffffffffffffff166115ea846106f5565b73ffffffffffffffffffffffffffffffffffffffff16145b80611613575061161281856112c5565b5b91505092915050565b8273ffffffffffffffffffffffffffffffffffffffff1661163c82610bf5565b73ffffffffffffffffffffffffffffffffffffffff1614611692576040517f08c379a0000000000000000000000000000000000000000000000000000000008152600401611689906142a6565b60405180910390fd5b600073ffffffffffffffffffffffffffffffffffffffff168273ffffffffffffffffffffffffffffffffffffffff161415611702576040517f08c379a00000000000000000000000000000000000000000000000000000000081526004016116f990614186565b60405180910390fd5b61170d8383836122c1565b611718600082611485565b6001600560008573ffffffffffffffffffffffffffffffffffffffff1673ffffffffffffffffffffffffffffffffffffffff16815260200190815260200160002060008282546117689190614566565b925050819055506001600560008473ffffffffffffffffffffffffffffffffffffffff1673ffffffffffffffffffffffffffffffffffffffff16815260200190815260200160002060008282546117bf9190614485565b92505081905550816004600083815260200190815260200160002060006101000a81548173ffffffffffffffffffffffffffffffffffffffff021916908373ffffffffffffffffffffffffffffffffffffffff160217905550808273ffffffffffffffffffffffffffffffffffffffff168473ffffffffffffffffffffffffffffffffffffffff167fddf252ad1be2c89b69c2b068fc378daa952ba7f163c4a11628f55a4df523b3ef60405160405180910390a4505050565b611881826108ff565b6118928161188d61147d565b6122d1565b61189c838361208f565b505050565b6118a961147d565b73ffffffffffffffffffffffffffffffffffffffff168173ffffffffffffffffffffffffffffffffffffffff1614611916576040517f08c379a000000000000000000000000000000000000000000000000000000000815260040161190d906143a6565b60405180910390fd5b611920828261236e565b5050565b600061194c836000018373ffffffffffffffffffffffffffffffffffffffff1660001b61244f565b905092915050565b61195c610bde565b61199b576040517f08c379a0000000000000000000000000000000000000000000000000000000008152600401611992906140e6565b60405180910390fd5b6000600c60006101000a81548160ff0219169083151502179055507f5db9ee0a495bf2e6ff9c91a7834c1ba4fdd244a5e8aa4e537bd38aeae4b073aa6119df61147d565b6040516119ec9190613fcc565b60405180910390a1565b6000611a0182610bf5565b9050611a0f816000846122c1565b611a1a600083611485565b6001600560008373ffffffffffffffffffffffffffffffffffffffff1673ffffffffffffffffffffffffffffffffffffffff1681526020019081526020016000206000828254611a6a9190614566565b925050819055506004600083815260200190815260200160002060006101000a81549073ffffffffffffffffffffffffffffffffffffffff021916905581600073ffffffffffffffffffffffffffffffffffffffff168273ffffffffffffffffffffffffffffffffffffffff167fddf252ad1be2c89b69c2b068fc378daa952ba7f163c4a11628f55a4df523b3ef60405160405180910390a45050565b600081600001549050919050565b600073ffffffffffffffffffffffffffffffffffffffff168273ffffffffffffffffffffffffffffffffffffffff161415611b85576040517f08c379a0000000000000000000000000000000000000000000000000000000008152600401611b7c90614266565b60405180910390fd5b611b8e81611411565b15611bce576040517f08c379a0000000000000000000000000000000000000000000000000000000008152600401611bc590614146565b60405180910390fd5b611bda600083836122c1565b6001600560008473ffffffffffffffffffffffffffffffffffffffff1673ffffffffffffffffffffffffffffffffffffffff1681526020019081526020016000206000828254611c2a9190614485565b92505081905550816004600083815260200190815260200160002060006101000a81548173ffffffffffffffffffffffffffffffffffffffff021916908373ffffffffffffffffffffffffffffffffffffffff160217905550808273ffffffffffffffffffffffffffffffffffffffff16600073ffffffffffffffffffffffffffffffffffffffff167fddf252ad1be2c89b69c2b068fc378daa952ba7f163c4a11628f55a4df523b3ef60405160405180910390a45050565b6001816000016000828254019250508190555050565b611d01610bde565b15611d41576040517f08c379a0000000000000000000000000000000000000000000000000000000008152600401611d38906141e6565b60405180910390fd5b6001600c60006101000a81548160ff0219169083151502179055507f62e78cea01bee320cd4e420270b5ea74000d11b0c9f74754ebdbfc544b05a258611d8561147d565b604051611d929190613fcc565b60405180910390a1565b6000611dab83600001836125d5565b60001c905092915050565b611dc184848461161c565b611dcd84848484612626565b611e0c576040517f08c379a0000000000000000000000000000000000000000000000000000000008152600401611e0390614126565b60405180910390fd5b50505050565b6060600e8054611e21906146a8565b80601f0160208091040260200160405190810160405280929190818152602001828054611e4d906146a8565b8015611e9a5780601f10611e6f57610100808354040283529160200191611e9a565b820191906000526020600020905b815481529060010190602001808311611e7d57829003601f168201915b5050505050905090565b60606000821415611eec576040518060400160405280600181526020017f3000000000000000000000000000000000000000000000000000000000000000815250905061204c565b600082905060005b60008214611f1e578080611f07906146da565b915050600a82611f1791906144db565b9150611ef4565b60008167ffffffffffffffff811115611f60577f4e487b7100000000000000000000000000000000000000000000000000000000600052604160045260246000fd5b6040519080825280601f01601f191660200182016040528015611f925781602001600182028036833780820191505090505b5090505b6000851461204557600182611fab9190614566565b9150600a85611fba9190614723565b6030611fc69190614485565b60f81b818381518110612002577f4e487b7100000000000000000000000000000000000000000000000000000000600052603260045260246000fd5b60200101907effffffffffffffffffffffffffffffffffffffffffffffffffffffffffffff1916908160001a905350600a8561203e91906144db565b9450611f96565b8093505050505b919050565b600061205f826000016127bd565b9050919050565b61206f826108ff565b6120808161207b61147d565b6122d1565b61208a838361236e565b505050565b6120998282610e98565b61216b57600160008084815260200190815260200160002060000160008373ffffffffffffffffffffffffffffffffffffffff1673ffffffffffffffffffffffffffffffffffffffff16815260200190815260200160002060006101000a81548160ff02191690831515021790555061211061147d565b73ffffffffffffffffffffffffffffffffffffffff168173ffffffffffffffffffffffffffffffffffffffff16837f2f8788117e7eff1d82e926ec794901d17c78024a50270940304540a733656f0d60405160405180910390a45b5050565b600061217b83836127ce565b6121d45782600001829080600181540180825580915050600190039060005260206000200160009091909190915055826000018054905083600101600084815260200190815260200160002081905550600190506121d9565b600090505b92915050565b60007f80ac58cd000000000000000000000000000000000000000000000000000000007bffffffffffffffffffffffffffffffffffffffffffffffffffffffff1916827bffffffffffffffffffffffffffffffffffffffffffffffffffffffff191614806122aa57507f5b5e139f000000000000000000000000000000000000000000000000000000007bffffffffffffffffffffffffffffffffffffffffffffffffffffffff1916827bffffffffffffffffffffffffffffffffffffffffffffffffffffffff1916145b806122ba57506122b9826127f1565b5b9050919050565b6122cc83838361286b565b505050565b6122db8282610e98565b61236a576123008173ffffffffffffffffffffffffffffffffffffffff1660146128c3565b61230e8360001c60206128c3565b60405160200161231f929190613f92565b6040516020818303038152906040526040517f08c379a00000000000000000000000000000000000000000000000000000000081526004016123619190614084565b60405180910390fd5b5050565b6123788282610e98565b1561244b57600080600084815260200190815260200160002060000160008373ffffffffffffffffffffffffffffffffffffffff1673ffffffffffffffffffffffffffffffffffffffff16815260200190815260200160002060006101000a81548160ff0219169083151502179055506123f061147d565b73ffffffffffffffffffffffffffffffffffffffff168173ffffffffffffffffffffffffffffffffffffffff16837ff6391f5c32d9c69d2a47ea670b442974b53935d1edc7fd64eb21e047a839171b60405160405180910390a45b5050565b600080836001016000848152602001908152602001600020549050600081146125c95760006001826124819190614566565b90506000600186600001805490506124999190614566565b90508181146125545760008660000182815481106124e0577f4e487b7100000000000000000000000000000000000000000000000000000000600052603260045260246000fd5b906000526020600020015490508087600001848154811061252a577f4e487b7100000000000000000000000000000000000000000000000000000000600052603260045260246000fd5b90600052602060002001819055508387600101600083815260200190815260200160002081905550505b8560000180548061258e577f4e487b7100000000000000000000000000000000000000000000000000000000600052603160045260246000fd5b6001900381819060005260206000200160009055905585600101600086815260200190815260200160002060009055600193505050506125cf565b60009150505b92915050565b6000826000018281548110612613577f4e487b7100000000000000000000000000000000000000000000000000000000600052603260045260246000fd5b9060005260206000200154905092915050565b60006126478473ffffffffffffffffffffffffffffffffffffffff16612bbd565b156127b0578373ffffffffffffffffffffffffffffffffffffffff1663150b7a0261267061147d565b8786866040518563ffffffff1660e01b81526004016126929493929190613fe7565b602060405180830381600087803b1580156126ac57600080fd5b505af19250505080156126dd57506040513d601f19601f820116820180604052508101906126da919061349c565b60015b612760573d806000811461270d576040519150601f19603f3d011682016040523d82523d6000602084013e612712565b606091505b50600081511415612758576040517f08c379a000000000000000000000000000000000000000000000000000000000815260040161274f90614126565b60405180910390fd5b805181602001fd5b63150b7a0260e01b7bffffffffffffffffffffffffffffffffffffffffffffffffffffffff1916817bffffffffffffffffffffffffffffffffffffffffffffffffffffffff1916149150506127b5565b600190505b949350505050565b600081600001805490509050919050565b600080836001016000848152602001908152602001600020541415905092915050565b60007f5a05180f000000000000000000000000000000000000000000000000000000007bffffffffffffffffffffffffffffffffffffffffffffffffffffffff1916827bffffffffffffffffffffffffffffffffffffffffffffffffffffffff19161480612864575061286382612bd0565b5b9050919050565b612876838383612c4a565b61287e610bde565b156128be576040517f08c379a00000000000000000000000000000000000000000000000000000000081526004016128b5906140c6565b60405180910390fd5b505050565b6060600060028360026128d6919061450c565b6128e09190614485565b67ffffffffffffffff81111561291f577f4e487b7100000000000000000000000000000000000000000000000000000000600052604160045260246000fd5b6040519080825280601f01601f1916602001820160405280156129515781602001600182028036833780820191505090505b5090507f3000000000000000000000000000000000000000000000000000000000000000816000815181106129af577f4e487b7100000000000000000000000000000000000000000000000000000000600052603260045260246000fd5b60200101907effffffffffffffffffffffffffffffffffffffffffffffffffffffffffffff1916908160001a9053507f780000000000000000000000000000000000000000000000000000000000000081600181518110612a39577f4e487b7100000000000000000000000000000000000000000000000000000000600052603260045260246000fd5b60200101907effffffffffffffffffffffffffffffffffffffffffffffffffffffffffffff1916908160001a90535060006001846002612a79919061450c565b612a839190614485565b90505b6001811115612b6f577f3031323334353637383961626364656600000000000000000000000000000000600f861660108110612aeb577f4e487b7100000000000000000000000000000000000000000000000000000000600052603260045260246000fd5b1a60f81b828281518110612b28577f4e487b7100000000000000000000000000000000000000000000000000000000600052603260045260246000fd5b60200101907effffffffffffffffffffffffffffffffffffffffffffffffffffffffffffff1916908160001a905350600485901c945080612b689061467e565b9050612a86565b5060008414612bb3576040517f08c379a0000000000000000000000000000000000000000000000000000000008152600401612baa906140a6565b60405180910390fd5b8091505092915050565b600080823b905060008111915050919050565b60007f7965db0b000000000000000000000000000000000000000000000000000000007bffffffffffffffffffffffffffffffffffffffffffffffffffffffff1916827bffffffffffffffffffffffffffffffffffffffffffffffffffffffff19161480612c435750612c4282612d5e565b5b9050919050565b612c55838383612dc8565b600073ffffffffffffffffffffffffffffffffffffffff168373ffffffffffffffffffffffffffffffffffffffff161415612c9857612c9381612dcd565b612cd7565b8173ffffffffffffffffffffffffffffffffffffffff168373ffffffffffffffffffffffffffffffffffffffff1614612cd657612cd58382612e16565b5b5b600073ffffffffffffffffffffffffffffffffffffffff168273ffffffffffffffffffffffffffffffffffffffff161415612d1a57612d1581612f83565b612d59565b8273ffffffffffffffffffffffffffffffffffffffff168273ffffffffffffffffffffffffffffffffffffffff1614612d5857612d5782826130c6565b5b5b505050565b60007f01ffc9a7000000000000000000000000000000000000000000000000000000007bffffffffffffffffffffffffffffffffffffffffffffffffffffffff1916827bffffffffffffffffffffffffffffffffffffffffffffffffffffffff1916149050919050565b505050565b600a80549050600b600083815260200190815260200160002081905550600a81908060018154018082558091505060019003906000526020600020016000909190919091505550565b60006001612e2384610d37565b612e2d9190614566565b9050600060096000848152602001908152602001600020549050818114612f12576000600860008673ffffffffffffffffffffffffffffffffffffffff1673ffffffffffffffffffffffffffffffffffffffff168152602001908152602001600020600084815260200190815260200160002054905080600860008773ffffffffffffffffffffffffffffffffffffffff1673ffffffffffffffffffffffffffffffffffffffff168152602001908152602001600020600084815260200190815260200160002081905550816009600083815260200190815260200160002081905550505b6009600084815260200190815260200160002060009055600860008573ffffffffffffffffffffffffffffffffffffffff1673ffffffffffffffffffffffffffffffffffffffff16815260200190815260200160002060008381526020019081526020016000206000905550505050565b60006001600a80549050612f979190614566565b90506000600b60008481526020019081526020016000205490506000600a8381548110612fed577f4e487b7100000000000000000000000000000000000000000000000000000000600052603260045260246000fd5b9060005260206000200154905080600a8381548110613035577f4e487b7100000000000000000000000000000000000000000000000000000000600052603260045260246000fd5b906000526020600020018190555081600b600083815260200190815260200160002081905550600b600085815260200190815260200160002060009055600a8054806130aa577f4e487b7100000000000000000000000000000000000000000000000000000000600052603160045260246000fd5b6001900381819060005260206000200160009055905550505050565b60006130d183610d37565b905081600860008573ffffffffffffffffffffffffffffffffffffffff1673ffffffffffffffffffffffffffffffffffffffff168152602001908152602001600020600083815260200190815260200160002081905550806009600084815260200190815260200160002081905550505050565b600061315861315384614412565b6143e1565b90508281526020810184848401111561317057600080fd5b61317b84828561463c565b509392505050565b60008135905061319281614821565b92915050565b6000813590506131a781614838565b92915050565b6000813590506131bc8161484f565b92915050565b6000813590506131d181614866565b92915050565b6000815190506131e681614866565b92915050565b600082601f8301126131fd57600080fd5b813561320d848260208601613145565b91505092915050565b6000813590506132258161487d565b92915050565b60006020828403121561323d57600080fd5b600061324b84828501613183565b91505092915050565b6000806040838503121561326757600080fd5b600061327585828601613183565b925050602061328685828601613183565b9150509250929050565b6000806000606084860312156132a557600080fd5b60006132b386828701613183565b93505060206132c486828701613183565b92505060406132d586828701613216565b9150509250925092565b600080600080608085870312156132f557600080fd5b600061330387828801613183565b945050602061331487828801613183565b935050604061332587828801613216565b925050606085013567ffffffffffffffff81111561334257600080fd5b61334e878288016131ec565b91505092959194509250565b6000806040838503121561336d57600080fd5b600061337b85828601613183565b925050602061338c85828601613198565b9150509250929050565b600080604083850312156133a957600080fd5b60006133b785828601613183565b92505060206133c885828601613216565b9150509250929050565b6000602082840312156133e457600080fd5b60006133f2848285016131ad565b91505092915050565b6000806040838503121561340e57600080fd5b600061341c858286016131ad565b925050602061342d85828601613183565b9150509250929050565b6000806040838503121561344a57600080fd5b6000613458858286016131ad565b925050602061346985828601613216565b9150509250929050565b60006020828403121561348557600080fd5b6000613493848285016131c2565b91505092915050565b6000602082840312156134ae57600080fd5b60006134bc848285016131d7565b91505092915050565b6000602082840312156134d757600080fd5b60006134e584828501613216565b91505092915050565b6134f78161459a565b82525050565b613506816145ac565b82525050565b613515816145b8565b82525050565b600061352682614442565b6135308185614458565b935061354081856020860161464b565b61354981614810565b840191505092915050565b61355d81614618565b82525050565b600061356e8261444d565b6135788185614469565b935061358881856020860161464b565b61359181614810565b840191505092915050565b60006135a78261444d565b6135b1818561447a565b93506135c181856020860161464b565b80840191505092915050565b60006135da602083614469565b91507f537472696e67733a20686578206c656e67746820696e73756666696369656e746000830152602082019050919050565b600061361a602b83614469565b91507f4552433732315061757361626c653a20746f6b656e207472616e73666572207760008301527f68696c65207061757365640000000000000000000000000000000000000000006020830152604082019050919050565b6000613680601483614469565b91507f5061757361626c653a206e6f74207061757365640000000000000000000000006000830152602082019050919050565b60006136c0602b83614469565b91507f455243373231456e756d657261626c653a206f776e657220696e646578206f7560008301527f74206f6620626f756e64730000000000000000000000000000000000000000006020830152604082019050919050565b6000613726603283614469565b91507f4552433732313a207472616e7366657220746f206e6f6e20455243373231526560008301527f63656976657220696d706c656d656e74657200000000000000000000000000006020830152604082019050919050565b600061378c601c83614469565b91507f4552433732313a20746f6b656e20616c7265616479206d696e746564000000006000830152602082019050919050565b60006137cc603e83614469565b91507f4552433732315072657365744d696e7465725061757365724175746f49643a2060008301527f6d75737420686176652070617573657220726f6c6520746f20706175736500006020830152604082019050919050565b6000613832602483614469565b91507f4552433732313a207472616e7366657220746f20746865207a65726f2061646460008301527f72657373000000000000000000000000000000000000000000000000000000006020830152604082019050919050565b6000613898601983614469565b91507f4552433732313a20617070726f766520746f2063616c6c6572000000000000006000830152602082019050919050565b60006138d8602c83614469565b91507f4552433732313a206f70657261746f7220717565727920666f72206e6f6e657860008301527f697374656e7420746f6b656e00000000000000000000000000000000000000006020830152604082019050919050565b600061393e601083614469565b91507f5061757361626c653a20706175736564000000000000000000000000000000006000830152602082019050919050565b600061397e603883614469565b91507f4552433732313a20617070726f76652063616c6c6572206973206e6f74206f7760008301527f6e6572206e6f7220617070726f76656420666f7220616c6c00000000000000006020830152604082019050919050565b60006139e4602a83614469565b91507f4552433732313a2062616c616e636520717565727920666f7220746865207a6560008301527f726f2061646472657373000000000000000000000000000000000000000000006020830152604082019050919050565b6000613a4a602983614469565b91507f4552433732313a206f776e657220717565727920666f72206e6f6e657869737460008301527f656e7420746f6b656e00000000000000000000000000000000000000000000006020830152604082019050919050565b6000613ab0602083614469565b91507f4552433732313a206d696e7420746f20746865207a65726f20616464726573736000830152602082019050919050565b6000613af0602c83614469565b91507f4552433732313a20617070726f76656420717565727920666f72206e6f6e657860008301527f697374656e7420746f6b656e00000000000000000000000000000000000000006020830152604082019050919050565b6000613b56602983614469565b91507f4552433732313a207472616e73666572206f6620746f6b656e2074686174206960008301527f73206e6f74206f776e00000000000000000000000000000000000000000000006020830152604082019050919050565b6000613bbc602f83614469565b91507f4552433732314d657461646174613a2055524920717565727920666f72206e6f60008301527f6e6578697374656e7420746f6b656e00000000000000000000000000000000006020830152604082019050919050565b6000613c22602183614469565b91507f4552433732313a20617070726f76616c20746f2063757272656e74206f776e6560008301527f72000000000000000000000000000000000000000000000000000000000000006020830152604082019050919050565b6000613c88603183614469565b91507f4552433732313a207472616e736665722063616c6c6572206973206e6f74206f60008301527f776e6572206e6f7220617070726f7665640000000000000000000000000000006020830152604082019050919050565b6000613cee602c83614469565b91507f455243373231456e756d657261626c653a20676c6f62616c20696e646578206f60008301527f7574206f6620626f756e647300000000000000000000000000000000000000006020830152604082019050919050565b6000613d5460178361447a565b91507f416363657373436f6e74726f6c3a206163636f756e74200000000000000000006000830152601782019050919050565b6000613d94603d83614469565b91507f4552433732315072657365744d696e7465725061757365724175746f49643a2060008301527f6d7573742068617665206d696e74657220726f6c6520746f206d696e740000006020830152604082019050919050565b6000613dfa603083614469565b91507f4552433732314275726e61626c653a2063616c6c6572206973206e6f74206f7760008301527f6e6572206e6f7220617070726f766564000000000000000000000000000000006020830152604082019050919050565b6000613e60604083614469565b91507f4552433732315072657365744d696e7465725061757365724175746f49643a2060008301527f6d75737420686176652070617573657220726f6c6520746f20756e70617573656020830152604082019050919050565b6000613ec660118361447a565b91507f206973206d697373696e6720726f6c65200000000000000000000000000000006000830152601182019050919050565b6000613f06602f83614469565b91507f416363657373436f6e74726f6c3a2063616e206f6e6c792072656e6f756e636560008301527f20726f6c657320666f722073656c6600000000000000000000000000000000006020830152604082019050919050565b613f688161460e565b82525050565b6000613f7a828561359c565b9150613f86828461359c565b91508190509392505050565b6000613f9d82613d47565b9150613fa9828561359c565b9150613fb482613eb9565b9150613fc0828461359c565b91508190509392505050565b6000602082019050613fe160008301846134ee565b92915050565b6000608082019050613ffc60008301876134ee565b61400960208301866134ee565b6140166040830185613f5f565b8181036060830152614028818461351b565b905095945050505050565b600060208201905061404860008301846134fd565b92915050565b6000602082019050614063600083018461350c565b92915050565b600060208201905061407e6000830184613554565b92915050565b6000602082019050818103600083015261409e8184613563565b905092915050565b600060208201905081810360008301526140bf816135cd565b9050919050565b600060208201905081810360008301526140df8161360d565b9050919050565b600060208201905081810360008301526140ff81613673565b9050919050565b6000602082019050818103600083015261411f816136b3565b9050919050565b6000602082019050818103600083015261413f81613719565b9050919050565b6000602082019050818103600083015261415f8161377f565b9050919050565b6000602082019050818103600083015261417f816137bf565b9050919050565b6000602082019050818103600083015261419f81613825565b9050919050565b600060208201905081810360008301526141bf8161388b565b9050919050565b600060208201905081810360008301526141df816138cb565b9050919050565b600060208201905081810360008301526141ff81613931565b9050919050565b6000602082019050818103600083015261421f81613971565b9050919050565b6000602082019050818103600083015261423f816139d7565b9050919050565b6000602082019050818103600083015261425f81613a3d565b9050919050565b6000602082019050818103600083015261427f81613aa3565b9050919050565b6000602082019050818103600083015261429f81613ae3565b9050919050565b600060208201905081810360008301526142bf81613b49565b9050919050565b600060208201905081810360008301526142df81613baf565b9050919050565b600060208201905081810360008301526142ff81613c15565b9050919050565b6000602082019050818103600083015261431f81613c7b565b9050919050565b6000602082019050818103600083015261433f81613ce1565b9050919050565b6000602082019050818103600083015261435f81613d87565b9050919050565b6000602082019050818103600083015261437f81613ded565b9050919050565b6000602082019050818103600083015261439f81613e53565b9050919050565b600060208201905081810360008301526143bf81613ef9565b9050919050565b60006020820190506143db6000830184613f5f565b92915050565b6000604051905081810181811067ffffffffffffffff82111715614408576144076147e1565b5b8060405250919050565b600067ffffffffffffffff82111561442d5761442c6147e1565b5b601f19601f8301169050602081019050919050565b600081519050919050565b600081519050919050565b600082825260208201905092915050565b600082825260208201905092915050565b600081905092915050565b60006144908261460e565b915061449b8361460e565b9250827fffffffffffffffffffffffffffffffffffffffffffffffffffffffffffffffff038211156144d0576144cf614754565b5b828201905092915050565b60006144e68261460e565b91506144f18361460e565b92508261450157614500614783565b5b828204905092915050565b60006145178261460e565b91506145228361460e565b9250817fffffffffffffffffffffffffffffffffffffffffffffffffffffffffffffffff048311821515161561455b5761455a614754565b5b828202905092915050565b60006145718261460e565b915061457c8361460e565b92508282101561458f5761458e614754565b5b828203905092915050565b60006145a5826145ee565b9050919050565b60008115159050919050565b6000819050919050565b60007fffffffff0000000000000000000000000000000000000000000000000000000082169050919050565b600073ffffffffffffffffffffffffffffffffffffffff82169050919050565b6000819050919050565b60006146238261462a565b9050919050565b6000614635826145ee565b9050919050565b82818337600083830152505050565b60005b8381101561466957808201518184015260208101905061464e565b83811115614678576000848401525b50505050565b60006146898261460e565b9150600082141561469d5761469c614754565b5b600182039050919050565b600060028204905060018216806146c057607f821691505b602082108114156146d4576146d36147b2565b5b50919050565b60006146e58261460e565b91507fffffffffffffffffffffffffffffffffffffffffffffffffffffffffffffffff82141561471857614717614754565b5b600182019050919050565b600061472e8261460e565b91506147398361460e565b92508261474957614748614783565b5b828206905092915050565b7f4e487b7100000000000000000000000000000000000000000000000000000000600052601160045260246000fd5b7f4e487b7100000000000000000000000000000000000000000000000000000000600052601260045260246000fd5b7f4e487b7100000000000000000000000000000000000000000000000000000000600052602260045260246000fd5b7f4e487b7100000000000000000000000000000000000000000000000000000000600052604160045260246000fd5b6000601f19601f8301169050919050565b61482a8161459a565b811461483557600080fd5b50565b614841816145ac565b811461484c57600080fd5b50565b614858816145b8565b811461486357600080fd5b50565b61486f816145c2565b811461487a57600080fd5b50565b6148868161460e565b811461489157600080fd5b5056fea2646970667358221220eb26adb78257c709b1bb5259c57836aef26f9a9284468d3a7a3fa79eb4b09f8b64736f6c6343000800003368747470733a2f2f6761732d667265652d6e66742e6865726f6b756170702e636f6d2f6765744d657461446174612f",
  "immutableReferences": {},
  "source": "pragma solidity ^0.8.0;\r\n\r\nimport \"@openzeppelin/contracts/token/ERC721/presets/ERC721PresetMinterPauserAutoId.sol\";\r\n\r\ncontract MyNft is ERC721PresetMinterPauserAutoId{\r\n\r\n        ERC721PresetMinterPauserAutoId public nft;\r\n\r\n    constructor() ERC721PresetMinterPauserAutoId(\"MyNft\",\"MN\",\"https://gas-free-nft.herokuapp.com/getMetaData/\"){\r\n\r\n        \r\n    }\r\n\r\n} ",
  "sourcePath": "C:\\Users\\Mustafa\\myNft\\contracts\\MyNft.sol",
  "compiler": {
    "name": "solc",
    "version": "0.8.0+commit.c7dfd78e.Emscripten.clang"
  },
  "schemaVersion": "3.4.3",
  "updatedAt": "2021-09-21T11:57:31.936Z",
  "networkType": "ethereum",
  "devdoc": {
    "kind": "dev",
    "methods": {
      "approve(address,uint256)": {
        "details": "See {IERC721-approve}."
      },
      "balanceOf(address)": {
        "details": "See {IERC721-balanceOf}."
      },
      "burn(uint256)": {
        "details": "Burns `tokenId`. See {ERC721-_burn}. Requirements: - The caller must own `tokenId` or be an approved operator."
      },
      "getApproved(uint256)": {
        "details": "See {IERC721-getApproved}."
      },
      "getRoleAdmin(bytes32)": {
        "details": "Returns the admin role that controls `role`. See {grantRole} and {revokeRole}. To change a role's admin, use {_setRoleAdmin}."
      },
      "getRoleMember(bytes32,uint256)": {
        "details": "Returns one of the accounts that have `role`. `index` must be a value between 0 and {getRoleMemberCount}, non-inclusive. Role bearers are not sorted in any particular way, and their ordering may change at any point. WARNING: When using {getRoleMember} and {getRoleMemberCount}, make sure you perform all queries on the same block. See the following https://forum.openzeppelin.com/t/iterating-over-elements-on-enumerableset-in-openzeppelin-contracts/2296[forum post] for more information."
      },
      "getRoleMemberCount(bytes32)": {
        "details": "Returns the number of accounts that have `role`. Can be used together with {getRoleMember} to enumerate all bearers of a role."
      },
      "grantRole(bytes32,address)": {
        "details": "Overload {grantRole} to track enumerable memberships"
      },
      "hasRole(bytes32,address)": {
        "details": "Returns `true` if `account` has been granted `role`."
      },
      "isApprovedForAll(address,address)": {
        "details": "See {IERC721-isApprovedForAll}."
      },
      "mint(address)": {
        "details": "Creates a new token for `to`. Its token ID will be automatically assigned (and available on the emitted {IERC721-Transfer} event), and the token URI autogenerated based on the base URI passed at construction. See {ERC721-_mint}. Requirements: - the caller must have the `MINTER_ROLE`."
      },
      "name()": {
        "details": "See {IERC721Metadata-name}."
      },
      "ownerOf(uint256)": {
        "details": "See {IERC721-ownerOf}."
      },
      "pause()": {
        "details": "Pauses all token transfers. See {ERC721Pausable} and {Pausable-_pause}. Requirements: - the caller must have the `PAUSER_ROLE`."
      },
      "paused()": {
        "details": "Returns true if the contract is paused, and false otherwise."
      },
      "renounceRole(bytes32,address)": {
        "details": "Overload {renounceRole} to track enumerable memberships"
      },
      "revokeRole(bytes32,address)": {
        "details": "Overload {revokeRole} to track enumerable memberships"
      },
      "safeTransferFrom(address,address,uint256)": {
        "details": "See {IERC721-safeTransferFrom}."
      },
      "safeTransferFrom(address,address,uint256,bytes)": {
        "details": "See {IERC721-safeTransferFrom}."
      },
      "setApprovalForAll(address,bool)": {
        "details": "See {IERC721-setApprovalForAll}."
      },
      "supportsInterface(bytes4)": {
        "details": "See {IERC165-supportsInterface}."
      },
      "symbol()": {
        "details": "See {IERC721Metadata-symbol}."
      },
      "tokenByIndex(uint256)": {
        "details": "See {IERC721Enumerable-tokenByIndex}."
      },
      "tokenOfOwnerByIndex(address,uint256)": {
        "details": "See {IERC721Enumerable-tokenOfOwnerByIndex}."
      },
      "tokenURI(uint256)": {
        "details": "See {IERC721Metadata-tokenURI}."
      },
      "totalSupply()": {
        "details": "See {IERC721Enumerable-totalSupply}."
      },
      "transferFrom(address,address,uint256)": {
        "details": "See {IERC721-transferFrom}."
      },
      "unpause()": {
        "details": "Unpauses all token transfers. See {ERC721Pausable} and {Pausable-_unpause}. Requirements: - the caller must have the `PAUSER_ROLE`."
      }
    },
    "version": 1
  },
  "userdoc": {
    "kind": "user",
    "methods": {},
    "version": 1
  }
}