{
  "contractName": "MyNft",
  "abi": [
    {
      "inputs": [],
      "stateMutability": "nonpayable",
      "type": "constructor"
    },
    {
      "anonymous": false,
      "inputs": [
        {
          "indexed": true,
          "internalType": "address",
          "name": "owner",
          "type": "address"
        },
        {
          "indexed": true,
          "internalType": "address",
          "name": "approved",
          "type": "address"
        },
        {
          "indexed": true,
          "internalType": "uint256",
          "name": "tokenId",
          "type": "uint256"
        }
      ],
      "name": "Approval",
      "type": "event"
    },
    {
      "anonymous": false,
      "inputs": [
        {
          "indexed": true,
          "internalType": "address",
          "name": "owner",
          "type": "address"
        },
        {
          "indexed": true,
          "internalType": "address",
          "name": "operator",
          "type": "address"
        },
        {
          "indexed": false,
          "internalType": "bool",
          "name": "approved",
          "type": "bool"
        }
      ],
      "name": "ApprovalForAll",
      "type": "event"
    },
    {
      "anonymous": false,
      "inputs": [
        {
          "indexed": false,
          "internalType": "address",
          "name": "userAddress",
          "type": "address"
        },
        {
          "indexed": false,
          "internalType": "address payable",
          "name": "relayerAddress",
          "type": "address"
        },
        {
          "indexed": false,
          "internalType": "bytes",
          "name": "functionSignature",
          "type": "bytes"
        }
      ],
      "name": "MetaTransactionExecuted",
      "type": "event"
    },
    {
      "anonymous": false,
      "inputs": [
        {
          "indexed": true,
          "internalType": "address",
          "name": "previousOwner",
          "type": "address"
        },
        {
          "indexed": true,
          "internalType": "address",
          "name": "newOwner",
          "type": "address"
        }
      ],
      "name": "OwnershipTransferred",
      "type": "event"
    },
    {
      "anonymous": false,
      "inputs": [
        {
          "indexed": false,
          "internalType": "address",
          "name": "account",
          "type": "address"
        }
      ],
      "name": "Paused",
      "type": "event"
    },
    {
      "anonymous": false,
      "inputs": [
        {
          "indexed": true,
          "internalType": "bytes32",
          "name": "role",
          "type": "bytes32"
        },
        {
          "indexed": true,
          "internalType": "bytes32",
          "name": "previousAdminRole",
          "type": "bytes32"
        },
        {
          "indexed": true,
          "internalType": "bytes32",
          "name": "newAdminRole",
          "type": "bytes32"
        }
      ],
      "name": "RoleAdminChanged",
      "type": "event"
    },
    {
      "anonymous": false,
      "inputs": [
        {
          "indexed": true,
          "internalType": "bytes32",
          "name": "role",
          "type": "bytes32"
        },
        {
          "indexed": true,
          "internalType": "address",
          "name": "account",
          "type": "address"
        },
        {
          "indexed": true,
          "internalType": "address",
          "name": "sender",
          "type": "address"
        }
      ],
      "name": "RoleGranted",
      "type": "event"
    },
    {
      "anonymous": false,
      "inputs": [
        {
          "indexed": true,
          "internalType": "bytes32",
          "name": "role",
          "type": "bytes32"
        },
        {
          "indexed": true,
          "internalType": "address",
          "name": "account",
          "type": "address"
        },
        {
          "indexed": true,
          "internalType": "address",
          "name": "sender",
          "type": "address"
        }
      ],
      "name": "RoleRevoked",
      "type": "event"
    },
    {
      "anonymous": false,
      "inputs": [
        {
          "indexed": true,
          "internalType": "address",
          "name": "from",
          "type": "address"
        },
        {
          "indexed": true,
          "internalType": "address",
          "name": "to",
          "type": "address"
        },
        {
          "indexed": true,
          "internalType": "uint256",
          "name": "tokenId",
          "type": "uint256"
        }
      ],
      "name": "Transfer",
      "type": "event"
    },
    {
      "anonymous": false,
      "inputs": [
        {
          "indexed": false,
          "internalType": "address",
          "name": "account",
          "type": "address"
        }
      ],
      "name": "Unpaused",
      "type": "event"
    },
    {
      "inputs": [],
      "name": "DEFAULT_ADMIN_ROLE",
      "outputs": [
        {
          "internalType": "bytes32",
          "name": "",
          "type": "bytes32"
        }
      ],
      "stateMutability": "view",
      "type": "function",
      "constant": true
    },
    {
      "inputs": [],
      "name": "ERC712_VERSION",
      "outputs": [
        {
          "internalType": "string",
          "name": "",
          "type": "string"
        }
      ],
      "stateMutability": "view",
      "type": "function",
      "constant": true
    },
    {
      "inputs": [],
      "name": "MINTER_ROLE",
      "outputs": [
        {
          "internalType": "bytes32",
          "name": "",
          "type": "bytes32"
        }
      ],
      "stateMutability": "view",
      "type": "function",
      "constant": true
    },
    {
      "inputs": [],
      "name": "PAUSER_ROLE",
      "outputs": [
        {
          "internalType": "bytes32",
          "name": "",
          "type": "bytes32"
        }
      ],
      "stateMutability": "view",
      "type": "function",
      "constant": true
    },
    {
      "inputs": [
        {
          "internalType": "address",
          "name": "to",
          "type": "address"
        },
        {
          "internalType": "uint256",
          "name": "tokenId",
          "type": "uint256"
        }
      ],
      "name": "approve",
      "outputs": [],
      "stateMutability": "nonpayable",
      "type": "function"
    },
    {
      "inputs": [
        {
          "internalType": "address",
          "name": "owner",
          "type": "address"
        }
      ],
      "name": "balanceOf",
      "outputs": [
        {
          "internalType": "uint256",
          "name": "",
          "type": "uint256"
        }
      ],
      "stateMutability": "view",
      "type": "function",
      "constant": true
    },
    {
      "inputs": [
        {
          "internalType": "uint256",
          "name": "tokenId",
          "type": "uint256"
        }
      ],
      "name": "burn",
      "outputs": [],
      "stateMutability": "nonpayable",
      "type": "function"
    },
    {
      "inputs": [
        {
          "internalType": "address",
          "name": "userAddress",
          "type": "address"
        },
        {
          "internalType": "bytes",
          "name": "functionSignature",
          "type": "bytes"
        },
        {
          "internalType": "bytes32",
          "name": "sigR",
          "type": "bytes32"
        },
        {
          "internalType": "bytes32",
          "name": "sigS",
          "type": "bytes32"
        },
        {
          "internalType": "uint8",
          "name": "sigV",
          "type": "uint8"
        }
      ],
      "name": "executeMetaTransaction",
      "outputs": [
        {
          "internalType": "bytes",
          "name": "",
          "type": "bytes"
        }
      ],
      "stateMutability": "payable",
      "type": "function",
      "payable": true
    },
    {
      "inputs": [
        {
          "internalType": "uint256",
          "name": "tokenId",
          "type": "uint256"
        }
      ],
      "name": "getApproved",
      "outputs": [
        {
          "internalType": "address",
          "name": "",
          "type": "address"
        }
      ],
      "stateMutability": "view",
      "type": "function",
      "constant": true
    },
    {
      "inputs": [],
      "name": "getChainId",
      "outputs": [
        {
          "internalType": "uint256",
          "name": "",
          "type": "uint256"
        }
      ],
      "stateMutability": "view",
      "type": "function",
      "constant": true
    },
    {
      "inputs": [],
      "name": "getDomainSeperator",
      "outputs": [
        {
          "internalType": "bytes32",
          "name": "",
          "type": "bytes32"
        }
      ],
      "stateMutability": "view",
      "type": "function",
      "constant": true
    },
    {
      "inputs": [
        {
          "internalType": "address",
          "name": "user",
          "type": "address"
        }
      ],
      "name": "getNonce",
      "outputs": [
        {
          "internalType": "uint256",
          "name": "nonce",
          "type": "uint256"
        }
      ],
      "stateMutability": "view",
      "type": "function",
      "constant": true
    },
    {
      "inputs": [
        {
          "internalType": "bytes32",
          "name": "role",
          "type": "bytes32"
        }
      ],
      "name": "getRoleAdmin",
      "outputs": [
        {
          "internalType": "bytes32",
          "name": "",
          "type": "bytes32"
        }
      ],
      "stateMutability": "view",
      "type": "function",
      "constant": true
    },
    {
      "inputs": [
        {
          "internalType": "bytes32",
          "name": "role",
          "type": "bytes32"
        },
        {
          "internalType": "uint256",
          "name": "index",
          "type": "uint256"
        }
      ],
      "name": "getRoleMember",
      "outputs": [
        {
          "internalType": "address",
          "name": "",
          "type": "address"
        }
      ],
      "stateMutability": "view",
      "type": "function",
      "constant": true
    },
    {
      "inputs": [
        {
          "internalType": "bytes32",
          "name": "role",
          "type": "bytes32"
        }
      ],
      "name": "getRoleMemberCount",
      "outputs": [
        {
          "internalType": "uint256",
          "name": "",
          "type": "uint256"
        }
      ],
      "stateMutability": "view",
      "type": "function",
      "constant": true
    },
    {
      "inputs": [
        {
          "internalType": "bytes32",
          "name": "role",
          "type": "bytes32"
        },
        {
          "internalType": "address",
          "name": "account",
          "type": "address"
        }
      ],
      "name": "grantRole",
      "outputs": [],
      "stateMutability": "nonpayable",
      "type": "function"
    },
    {
      "inputs": [
        {
          "internalType": "bytes32",
          "name": "role",
          "type": "bytes32"
        },
        {
          "internalType": "address",
          "name": "account",
          "type": "address"
        }
      ],
      "name": "hasRole",
      "outputs": [
        {
          "internalType": "bool",
          "name": "",
          "type": "bool"
        }
      ],
      "stateMutability": "view",
      "type": "function",
      "constant": true
    },
    {
      "inputs": [
        {
          "internalType": "address",
          "name": "owner",
          "type": "address"
        },
        {
          "internalType": "address",
          "name": "operator",
          "type": "address"
        }
      ],
      "name": "isApprovedForAll",
      "outputs": [
        {
          "internalType": "bool",
          "name": "",
          "type": "bool"
        }
      ],
      "stateMutability": "view",
      "type": "function",
      "constant": true
    },
    {
      "inputs": [
        {
          "internalType": "address",
          "name": "to",
          "type": "address"
        }
      ],
      "name": "mint",
      "outputs": [],
      "stateMutability": "nonpayable",
      "type": "function"
    },
    {
      "inputs": [],
      "name": "name",
      "outputs": [
        {
          "internalType": "string",
          "name": "",
          "type": "string"
        }
      ],
      "stateMutability": "view",
      "type": "function",
      "constant": true
    },
    {
      "inputs": [],
      "name": "owner",
      "outputs": [
        {
          "internalType": "address",
          "name": "",
          "type": "address"
        }
      ],
      "stateMutability": "view",
      "type": "function",
      "constant": true
    },
    {
      "inputs": [
        {
          "internalType": "uint256",
          "name": "tokenId",
          "type": "uint256"
        }
      ],
      "name": "ownerOf",
      "outputs": [
        {
          "internalType": "address",
          "name": "",
          "type": "address"
        }
      ],
      "stateMutability": "view",
      "type": "function",
      "constant": true
    },
    {
      "inputs": [],
      "name": "pause",
      "outputs": [],
      "stateMutability": "nonpayable",
      "type": "function"
    },
    {
      "inputs": [],
      "name": "paused",
      "outputs": [
        {
          "internalType": "bool",
          "name": "",
          "type": "bool"
        }
      ],
      "stateMutability": "view",
      "type": "function",
      "constant": true
    },
    {
      "inputs": [],
      "name": "renounceOwnership",
      "outputs": [],
      "stateMutability": "nonpayable",
      "type": "function"
    },
    {
      "inputs": [
        {
          "internalType": "bytes32",
          "name": "role",
          "type": "bytes32"
        },
        {
          "internalType": "address",
          "name": "account",
          "type": "address"
        }
      ],
      "name": "renounceRole",
      "outputs": [],
      "stateMutability": "nonpayable",
      "type": "function"
    },
    {
      "inputs": [
        {
          "internalType": "bytes32",
          "name": "role",
          "type": "bytes32"
        },
        {
          "internalType": "address",
          "name": "account",
          "type": "address"
        }
      ],
      "name": "revokeRole",
      "outputs": [],
      "stateMutability": "nonpayable",
      "type": "function"
    },
    {
      "inputs": [
        {
          "internalType": "address",
          "name": "from",
          "type": "address"
        },
        {
          "internalType": "address",
          "name": "to",
          "type": "address"
        },
        {
          "internalType": "uint256",
          "name": "tokenId",
          "type": "uint256"
        }
      ],
      "name": "safeTransferFrom",
      "outputs": [],
      "stateMutability": "nonpayable",
      "type": "function"
    },
    {
      "inputs": [
        {
          "internalType": "address",
          "name": "from",
          "type": "address"
        },
        {
          "internalType": "address",
          "name": "to",
          "type": "address"
        },
        {
          "internalType": "uint256",
          "name": "tokenId",
          "type": "uint256"
        },
        {
          "internalType": "bytes",
          "name": "_data",
          "type": "bytes"
        }
      ],
      "name": "safeTransferFrom",
      "outputs": [],
      "stateMutability": "nonpayable",
      "type": "function"
    },
    {
      "inputs": [
        {
          "internalType": "address",
          "name": "operator",
          "type": "address"
        },
        {
          "internalType": "bool",
          "name": "approved",
          "type": "bool"
        }
      ],
      "name": "setApprovalForAll",
      "outputs": [],
      "stateMutability": "nonpayable",
      "type": "function"
    },
    {
      "inputs": [
        {
          "internalType": "bytes4",
          "name": "interfaceId",
          "type": "bytes4"
        }
      ],
      "name": "supportsInterface",
      "outputs": [
        {
          "internalType": "bool",
          "name": "",
          "type": "bool"
        }
      ],
      "stateMutability": "view",
      "type": "function",
      "constant": true
    },
    {
      "inputs": [],
      "name": "symbol",
      "outputs": [
        {
          "internalType": "string",
          "name": "",
          "type": "string"
        }
      ],
      "stateMutability": "view",
      "type": "function",
      "constant": true
    },
    {
      "inputs": [
        {
          "internalType": "uint256",
          "name": "index",
          "type": "uint256"
        }
      ],
      "name": "tokenByIndex",
      "outputs": [
        {
          "internalType": "uint256",
          "name": "",
          "type": "uint256"
        }
      ],
      "stateMutability": "view",
      "type": "function",
      "constant": true
    },
    {
      "inputs": [
        {
          "internalType": "address",
          "name": "owner",
          "type": "address"
        },
        {
          "internalType": "uint256",
          "name": "index",
          "type": "uint256"
        }
      ],
      "name": "tokenOfOwnerByIndex",
      "outputs": [
        {
          "internalType": "uint256",
          "name": "",
          "type": "uint256"
        }
      ],
      "stateMutability": "view",
      "type": "function",
      "constant": true
    },
    {
      "inputs": [
        {
          "internalType": "uint256",
          "name": "tokenId",
          "type": "uint256"
        }
      ],
      "name": "tokenURI",
      "outputs": [
        {
          "internalType": "string",
          "name": "",
          "type": "string"
        }
      ],
      "stateMutability": "view",
      "type": "function",
      "constant": true
    },
    {
      "inputs": [],
      "name": "totalSupply",
      "outputs": [
        {
          "internalType": "uint256",
          "name": "",
          "type": "uint256"
        }
      ],
      "stateMutability": "view",
      "type": "function",
      "constant": true
    },
    {
      "inputs": [
        {
          "internalType": "address",
          "name": "from",
          "type": "address"
        },
        {
          "internalType": "address",
          "name": "to",
          "type": "address"
        },
        {
          "internalType": "uint256",
          "name": "tokenId",
          "type": "uint256"
        }
      ],
      "name": "transferFrom",
      "outputs": [],
      "stateMutability": "nonpayable",
      "type": "function"
    },
    {
      "inputs": [
        {
          "internalType": "address",
          "name": "newOwner",
          "type": "address"
        }
      ],
      "name": "transferOwnership",
      "outputs": [],
      "stateMutability": "nonpayable",
      "type": "function"
    },
    {
      "inputs": [],
      "name": "unpause",
      "outputs": [],
      "stateMutability": "nonpayable",
      "type": "function"
    }
  ],
  "bytecode": "0x60806040526000600f60146101000a81548160ff02191690831515021790555060006013553480156200003157600080fd5b506040518060400160405280600581526020017f4d794e66740000000000000000000000000000000000000000000000000000008152506040518060400160405280600281526020017f4d4e000000000000000000000000000000000000000000000000000000000000815250604051806060016040528060398152602001620064f86039913973f57b2c51ded3a29e6891aba85459d600256cf31783838382828160029080519060200190620000ea929190620007c0565b50806003908051906020019062000103929190620007c0565b5050506000600c60006101000a81548160ff02191690831515021790555080600e908051906020019062000139929190620007c0565b506200015e6000801b620001526200025f60201b60201c565b6200027b60201b60201c565b6200019f7f9f2df0fed2c77648de5860a4cc508cd0818c85b8b8a1ab4ceeef8d981c8956a6620001936200025f60201b60201c565b6200027b60201b60201c565b620001e07f65d7a28e3265b37a6474929f336521b332c1681b933f6cb9f3376673440d862a620001d46200025f60201b60201c565b6200027b60201b60201c565b50505062000203620001f76200025f60201b60201c565b620002c360201b60201c565b80601260006101000a81548173ffffffffffffffffffffffffffffffffffffffff021916908373ffffffffffffffffffffffffffffffffffffffff16021790555062000255846200038960201b60201c565b5050505062000a07565b6000620002766200040b60201b62001b641760201c565b905090565b620002928282620004be60201b62001c151760201c565b620002be8160016000858152602001908152602001600020620004d460201b62001c231790919060201c565b505050565b6000600f60009054906101000a900473ffffffffffffffffffffffffffffffffffffffff16905081600f60006101000a81548173ffffffffffffffffffffffffffffffffffffffff021916908373ffffffffffffffffffffffffffffffffffffffff1602179055508173ffffffffffffffffffffffffffffffffffffffff168173ffffffffffffffffffffffffffffffffffffffff167f8be0079c531659141344cd1fd0a4f28419497f9722a3daafe3b4186f6b6457e060405160405180910390a35050565b600f60149054906101000a900460ff1615620003dc576040517f08c379a0000000000000000000000000000000000000000000000000000000008152600401620003d39062000931565b60405180910390fd5b620003ed816200050c60201b60201c565b6001600f60146101000a81548160ff02191690831515021790555050565b60003073ffffffffffffffffffffffffffffffffffffffff163373ffffffffffffffffffffffffffffffffffffffff161415620004b757600080368080601f016020809104026020016040519081016040528093929190818152602001838380828437600081840152601f19601f820116905080830192505050505050509050600080369050905073ffffffffffffffffffffffffffffffffffffffff818301511692505050620004bb565b3390505b90565b620004d08282620005bb60201b60201c565b5050565b600062000504836000018373ffffffffffffffffffffffffffffffffffffffff1660001b620006ac60201b60201c565b905092915050565b6040518060800160405280604f8152602001620064a9604f91398051906020012081805190602001206040518060400160405280600181526020017f31000000000000000000000000000000000000000000000000000000000000008152508051906020012030620005836200072660201b60201c565b60001b6040516020016200059c959493929190620008d4565b6040516020818303038152906040528051906020012060108190555050565b620005cd82826200073360201b60201c565b620006a857600160008084815260200190815260200160002060000160008373ffffffffffffffffffffffffffffffffffffffff1673ffffffffffffffffffffffffffffffffffffffff16815260200190815260200160002060006101000a81548160ff0219169083151502179055506200064d6200025f60201b60201c565b73ffffffffffffffffffffffffffffffffffffffff168173ffffffffffffffffffffffffffffffffffffffff16837f2f8788117e7eff1d82e926ec794901d17c78024a50270940304540a733656f0d60405160405180910390a45b5050565b6000620006c083836200079d60201b60201c565b6200071b57826000018290806001815401808255809150506001900390600052602060002001600090919091909150558260000180549050836001016000848152602001908152602001600020819055506001905062000720565b600090505b92915050565b6000804690508091505090565b600080600084815260200190815260200160002060000160008373ffffffffffffffffffffffffffffffffffffffff1673ffffffffffffffffffffffffffffffffffffffff16815260200190815260200160002060009054906101000a900460ff16905092915050565b600080836001016000848152602001908152602001600020541415905092915050565b828054620007ce90620009a2565b90600052602060002090601f016020900481019282620007f257600085556200083e565b82601f106200080d57805160ff19168380011785556200083e565b828001600101855582156200083e579182015b828111156200083d57825182559160200191906001019062000820565b5b5090506200084d919062000851565b5090565b5b808211156200086c57600081600090555060010162000852565b5090565b6200087b8162000964565b82525050565b6200088c8162000978565b82525050565b6000620008a1600e8362000953565b91507f616c726561647920696e697465640000000000000000000000000000000000006000830152602082019050919050565b600060a082019050620008eb600083018862000881565b620008fa602083018762000881565b62000909604083018662000881565b62000918606083018562000870565b62000927608083018462000881565b9695505050505050565b600060208201905081810360008301526200094c8162000892565b9050919050565b600082825260208201905092915050565b6000620009718262000982565b9050919050565b6000819050919050565b600073ffffffffffffffffffffffffffffffffffffffff82169050919050565b60006002820490506001821680620009bb57607f821691505b60208210811415620009d257620009d1620009d8565b5b50919050565b7f4e487b7100000000000000000000000000000000000000000000000000000000600052602260045260246000fd5b615a928062000a176000396000f3fe6080604052600436106102305760003560e01c80635c975abb1161012e578063a217fddf116100ab578063d53913931161006f578063d53913931461087a578063d547741f146108a5578063e63ab1e9146108ce578063e985e9c5146108f9578063f2fde38b1461093657610230565b8063a217fddf14610783578063a22cb465146107ae578063b88d4fde146107d7578063c87b56dd14610800578063ca15c8731461083d57610230565b80638456cb59116100f25780638456cb591461069c5780638da5cb5b146106b35780639010d07c146106de57806391d148541461071b57806395d89b411461075857610230565b80635c975abb146105b75780636352211e146105e25780636a6278421461061f57806370a0823114610648578063715018a61461068557610230565b8063248a9ca3116101bc57806336568abe1161018057806336568abe146104e85780633f4ba83a1461051157806342842e0e1461052857806342966c68146105515780634f6ccce71461057a57610230565b8063248a9ca3146103dd5780632d0335ab1461041a5780632f2ff15d146104575780632f745c59146104805780633408e470146104bd57610230565b80630c53c51c116102035780630c53c51c146103035780630f7e59701461033357806318160ddd1461035e57806320379ee51461038957806323b872dd146103b457610230565b806301ffc9a71461023557806306fdde0314610272578063081812fc1461029d578063095ea7b3146102da575b600080fd5b34801561024157600080fd5b5061025c60048036038101906102579190614109565b61095f565b6040516102699190615006565b60405180910390f35b34801561027e57600080fd5b50610287610971565b60405161029491906150e8565b60405180910390f35b3480156102a957600080fd5b506102c460048036038101906102bf9190614184565b610a03565b6040516102d19190614f61565b60405180910390f35b3480156102e657600080fd5b5061030160048036038101906102fc919061402c565b610a88565b005b61031d60048036038101906103189190613f9d565b610ba0565b60405161032a91906150c6565b60405180910390f35b34801561033f57600080fd5b50610348610e12565b60405161035591906150e8565b60405180910390f35b34801561036a57600080fd5b50610373610e4b565b60405161038091906154ca565b60405180910390f35b34801561039557600080fd5b5061039e610e58565b6040516103ab9190615021565b60405180910390f35b3480156103c057600080fd5b506103db60048036038101906103d69190613e97565b610e62565b005b3480156103e957600080fd5b5061040460048036038101906103ff9190614068565b610ec2565b6040516104119190615021565b60405180910390f35b34801561042657600080fd5b50610441600480360381019061043c9190613e32565b610ee1565b60405161044e91906154ca565b60405180910390f35b34801561046357600080fd5b5061047e60048036038101906104799190614091565b610f2a565b005b34801561048c57600080fd5b506104a760048036038101906104a2919061402c565b610f5e565b6040516104b491906154ca565b60405180910390f35b3480156104c957600080fd5b506104d2611003565b6040516104df91906154ca565b60405180910390f35b3480156104f457600080fd5b5061050f600480360381019061050a9190614091565b611010565b005b34801561051d57600080fd5b50610526611044565b005b34801561053457600080fd5b5061054f600480360381019061054a9190613e97565b6110be565b005b34801561055d57600080fd5b5061057860048036038101906105739190614184565b6110de565b005b34801561058657600080fd5b506105a1600480360381019061059c9190614184565b61113a565b6040516105ae91906154ca565b60405180910390f35b3480156105c357600080fd5b506105cc6111d1565b6040516105d99190615006565b60405180910390f35b3480156105ee57600080fd5b5061060960048036038101906106049190614184565b6111e8565b6040516106169190614f61565b60405180910390f35b34801561062b57600080fd5b5061064660048036038101906106419190613e32565b61129a565b005b34801561065457600080fd5b5061066f600480360381019061066a9190613e32565b61132a565b60405161067c91906154ca565b60405180910390f35b34801561069157600080fd5b5061069a6113e2565b005b3480156106a857600080fd5b506106b161146a565b005b3480156106bf57600080fd5b506106c86114e4565b6040516106d59190614f61565b60405180910390f35b3480156106ea57600080fd5b50610705600480360381019061070091906140cd565b61150e565b6040516107129190614f61565b60405180910390f35b34801561072757600080fd5b50610742600480360381019061073d9190614091565b61153d565b60405161074f9190615006565b60405180910390f35b34801561076457600080fd5b5061076d6115a7565b60405161077a91906150e8565b60405180910390f35b34801561078f57600080fd5b50610798611639565b6040516107a59190615021565b60405180910390f35b3480156107ba57600080fd5b506107d560048036038101906107d09190613f61565b611640565b005b3480156107e357600080fd5b506107fe60048036038101906107f99190613ee6565b6117c1565b005b34801561080c57600080fd5b5061082760048036038101906108229190614184565b611823565b60405161083491906150e8565b60405180910390f35b34801561084957600080fd5b50610864600480360381019061085f9190614068565b6118ca565b60405161087191906154ca565b60405180910390f35b34801561088657600080fd5b5061088f6118ee565b60405161089c9190615021565b60405180910390f35b3480156108b157600080fd5b506108cc60048036038101906108c79190614091565b611912565b005b3480156108da57600080fd5b506108e3611946565b6040516108f09190615021565b60405180910390f35b34801561090557600080fd5b50610920600480360381019061091b9190613e5b565b61196a565b60405161092d9190615006565b60405180910390f35b34801561094257600080fd5b5061095d60048036038101906109589190613e32565b611a6c565b005b600061096a82611c53565b9050919050565b606060028054610980906157c4565b80601f01602080910402602001604051908101604052809291908181526020018280546109ac906157c4565b80156109f95780601f106109ce576101008083540402835291602001916109f9565b820191906000526020600020905b8154815290600101906020018083116109dc57829003601f168201915b5050505050905090565b6000610a0e82611ccd565b610a4d576040517f08c379a0000000000000000000000000000000000000000000000000000000008152600401610a449061534a565b60405180910390fd5b6006600083815260200190815260200160002060009054906101000a900473ffffffffffffffffffffffffffffffffffffffff169050919050565b6000610a93826111e8565b90508073ffffffffffffffffffffffffffffffffffffffff168373ffffffffffffffffffffffffffffffffffffffff161415610b04576040517f08c379a0000000000000000000000000000000000000000000000000000000008152600401610afb906153ea565b60405180910390fd5b8073ffffffffffffffffffffffffffffffffffffffff16610b23611d39565b73ffffffffffffffffffffffffffffffffffffffff161480610b525750610b5181610b4c611d39565b61196a565b5b610b91576040517f08c379a0000000000000000000000000000000000000000000000000000000008152600401610b88906152ca565b60405180910390fd5b610b9b8383611d48565b505050565b606060006040518060600160405280601160008a73ffffffffffffffffffffffffffffffffffffffff1673ffffffffffffffffffffffffffffffffffffffff1681526020019081526020016000205481526020018873ffffffffffffffffffffffffffffffffffffffff168152602001878152509050610c238782878787611e01565b610c62576040517f08c379a0000000000000000000000000000000000000000000000000000000008152600401610c59906153aa565b60405180910390fd5b610cb56001601160008a73ffffffffffffffffffffffffffffffffffffffff1673ffffffffffffffffffffffffffffffffffffffff16815260200190815260200160002054611f0a90919063ffffffff16565b601160008973ffffffffffffffffffffffffffffffffffffffff1673ffffffffffffffffffffffffffffffffffffffff168152602001908152602001600020819055507f5845892132946850460bff5a0083f71031bc5bf9aadcd40f1de79423eac9b10b873388604051610d2b93929190614f7c565b60405180910390a16000803073ffffffffffffffffffffffffffffffffffffffff16888a604051602001610d60929190614ea4565b604051602081830303815290604052604051610d7c9190614e8d565b6000604051808303816000865af19150503d8060008114610db9576040519150601f19603f3d011682016040523d82523d6000602084013e610dbe565b606091505b509150915081610e03576040517f08c379a0000000000000000000000000000000000000000000000000000000008152600401610dfa906151ca565b60405180910390fd5b80935050505095945050505050565b6040518060400160405280600181526020017f310000000000000000000000000000000000000000000000000000000000000081525081565b6000600a80549050905090565b6000601054905090565b610e73610e6d611d39565b82611f20565b610eb2576040517f08c379a0000000000000000000000000000000000000000000000000000000008152600401610ea99061540a565b60405180910390fd5b610ebd838383611ffe565b505050565b6000806000838152602001908152602001600020600101549050919050565b6000601160008373ffffffffffffffffffffffffffffffffffffffff1673ffffffffffffffffffffffffffffffffffffffff168152602001908152602001600020549050919050565b610f34828261225a565b610f598160016000858152602001908152602001600020611c2390919063ffffffff16565b505050565b6000610f698361132a565b8210610faa576040517f08c379a0000000000000000000000000000000000000000000000000000000008152600401610fa19061516a565b60405180910390fd5b600860008473ffffffffffffffffffffffffffffffffffffffff1673ffffffffffffffffffffffffffffffffffffffff168152602001908152602001600020600083815260200190815260200160002054905092915050565b6000804690508091505090565b61101a8282612283565b61103f816001600085815260200190815260200160002061230690919063ffffffff16565b505050565b6110757f65d7a28e3265b37a6474929f336521b332c1681b933f6cb9f3376673440d862a611070611d39565b61153d565b6110b4576040517f08c379a00000000000000000000000000000000000000000000000000000000081526004016110ab9061548a565b60405180910390fd5b6110bc612336565b565b6110d9838383604051806020016040528060008152506117c1565b505050565b6110ef6110e9611d39565b82611f20565b61112e576040517f08c379a00000000000000000000000000000000000000000000000000000000081526004016111259061546a565b60405180910390fd5b611137816123d8565b50565b6000611144610e4b565b8210611185576040517f08c379a000000000000000000000000000000000000000000000000000000000815260040161117c9061542a565b60405180910390fd5b600a82815481106111bf577f4e487b7100000000000000000000000000000000000000000000000000000000600052603260045260246000fd5b90600052602060002001549050919050565b6000600c60009054906101000a900460ff16905090565b6000806004600084815260200190815260200160002060009054906101000a900473ffffffffffffffffffffffffffffffffffffffff169050600073ffffffffffffffffffffffffffffffffffffffff168173ffffffffffffffffffffffffffffffffffffffff161415611291576040517f08c379a00000000000000000000000000000000000000000000000000000000081526004016112889061530a565b60405180910390fd5b80915050919050565b6112cb7f9f2df0fed2c77648de5860a4cc508cd0818c85b8b8a1ab4ceeef8d981c8956a66112c6611d39565b61153d565b61130a576040517f08c379a00000000000000000000000000000000000000000000000000000000081526004016113019061544a565b60405180910390fd5b61131d81611318600d6124e9565b6124f7565b611327600d6126c5565b50565b60008073ffffffffffffffffffffffffffffffffffffffff168273ffffffffffffffffffffffffffffffffffffffff16141561139b576040517f08c379a0000000000000000000000000000000000000000000000000000000008152600401611392906152ea565b60405180910390fd5b600560008373ffffffffffffffffffffffffffffffffffffffff1673ffffffffffffffffffffffffffffffffffffffff168152602001908152602001600020549050919050565b6113ea611d39565b73ffffffffffffffffffffffffffffffffffffffff166114086114e4565b73ffffffffffffffffffffffffffffffffffffffff161461145e576040517f08c379a00000000000000000000000000000000000000000000000000000000081526004016114559061536a565b60405180910390fd5b61146860006126db565b565b61149b7f65d7a28e3265b37a6474929f336521b332c1681b933f6cb9f3376673440d862a611496611d39565b61153d565b6114da576040517f08c379a00000000000000000000000000000000000000000000000000000000081526004016114d19061520a565b60405180910390fd5b6114e26127a1565b565b6000600f60009054906101000a900473ffffffffffffffffffffffffffffffffffffffff16905090565b6000611535826001600086815260200190815260200160002061284490919063ffffffff16565b905092915050565b600080600084815260200190815260200160002060000160008373ffffffffffffffffffffffffffffffffffffffff1673ffffffffffffffffffffffffffffffffffffffff16815260200190815260200160002060009054906101000a900460ff16905092915050565b6060600380546115b6906157c4565b80601f01602080910402602001604051908101604052809291908181526020018280546115e2906157c4565b801561162f5780601f106116045761010080835404028352916020019161162f565b820191906000526020600020905b81548152906001019060200180831161161257829003601f168201915b5050505050905090565b6000801b81565b611648611d39565b73ffffffffffffffffffffffffffffffffffffffff168273ffffffffffffffffffffffffffffffffffffffff1614156116b6576040517f08c379a00000000000000000000000000000000000000000000000000000000081526004016116ad9061524a565b60405180910390fd5b80600760006116c3611d39565b73ffffffffffffffffffffffffffffffffffffffff1673ffffffffffffffffffffffffffffffffffffffff16815260200190815260200160002060008473ffffffffffffffffffffffffffffffffffffffff1673ffffffffffffffffffffffffffffffffffffffff16815260200190815260200160002060006101000a81548160ff0219169083151502179055508173ffffffffffffffffffffffffffffffffffffffff16611770611d39565b73ffffffffffffffffffffffffffffffffffffffff167f17307eab39ab6107e8899845ad3d59bd9653f200f220920489ca2b5937696c31836040516117b59190615006565b60405180910390a35050565b6117d26117cc611d39565b83611f20565b611811576040517f08c379a00000000000000000000000000000000000000000000000000000000081526004016118089061540a565b60405180910390fd5b61181d8484848461285e565b50505050565b606061182e82611ccd565b61186d576040517f08c379a0000000000000000000000000000000000000000000000000000000008152600401611864906153ca565b60405180910390fd5b60006118776128ba565b9050600081511161189757604051806020016040528060008152506118c2565b806118a18461294c565b6040516020016118b2929190614ecc565b6040516020818303038152906040525b915050919050565b60006118e760016000848152602001908152602001600020612af9565b9050919050565b7f9f2df0fed2c77648de5860a4cc508cd0818c85b8b8a1ab4ceeef8d981c8956a681565b61191c8282612b0e565b611941816001600085815260200190815260200160002061230690919063ffffffff16565b505050565b7f65d7a28e3265b37a6474929f336521b332c1681b933f6cb9f3376673440d862a81565b600080601260009054906101000a900473ffffffffffffffffffffffffffffffffffffffff1690508273ffffffffffffffffffffffffffffffffffffffff168173ffffffffffffffffffffffffffffffffffffffff1663c4552791866040518263ffffffff1660e01b81526004016119e29190614f61565b60206040518083038186803b1580156119fa57600080fd5b505afa158015611a0e573d6000803e3d6000fd5b505050506040513d601f19601f82011682018060405250810190611a32919061415b565b73ffffffffffffffffffffffffffffffffffffffff161415611a58576001915050611a66565b611a628484612b37565b9150505b92915050565b611a74611d39565b73ffffffffffffffffffffffffffffffffffffffff16611a926114e4565b73ffffffffffffffffffffffffffffffffffffffff1614611ae8576040517f08c379a0000000000000000000000000000000000000000000000000000000008152600401611adf9061536a565b60405180910390fd5b600073ffffffffffffffffffffffffffffffffffffffff168173ffffffffffffffffffffffffffffffffffffffff161415611b58576040517f08c379a0000000000000000000000000000000000000000000000000000000008152600401611b4f906151aa565b60405180910390fd5b611b61816126db565b50565b60003073ffffffffffffffffffffffffffffffffffffffff163373ffffffffffffffffffffffffffffffffffffffff161415611c0e57600080368080601f016020809104026020016040519081016040528093929190818152602001838380828437600081840152601f19601f820116905080830192505050505050509050600080369050905073ffffffffffffffffffffffffffffffffffffffff818301511692505050611c12565b3390505b90565b611c1f8282612bcb565b5050565b6000611c4b836000018373ffffffffffffffffffffffffffffffffffffffff1660001b612cab565b905092915050565b60007f780e9d63000000000000000000000000000000000000000000000000000000007bffffffffffffffffffffffffffffffffffffffffffffffffffffffff1916827bffffffffffffffffffffffffffffffffffffffffffffffffffffffff19161480611cc65750611cc582612d1b565b5b9050919050565b60008073ffffffffffffffffffffffffffffffffffffffff166004600084815260200190815260200160002060009054906101000a900473ffffffffffffffffffffffffffffffffffffffff1673ffffffffffffffffffffffffffffffffffffffff1614159050919050565b6000611d43611b64565b905090565b816006600083815260200190815260200160002060006101000a81548173ffffffffffffffffffffffffffffffffffffffff021916908373ffffffffffffffffffffffffffffffffffffffff160217905550808273ffffffffffffffffffffffffffffffffffffffff16611dbb836111e8565b73ffffffffffffffffffffffffffffffffffffffff167f8c5be1e5ebec7d5bd14f71427d1e84f3dd0314c0f7b2291e5b200ac8c7c3b92560405160405180910390a45050565b60008073ffffffffffffffffffffffffffffffffffffffff168673ffffffffffffffffffffffffffffffffffffffff161415611e72576040517f08c379a0000000000000000000000000000000000000000000000000000000008152600401611e699061528a565b60405180910390fd5b6001611e85611e8087612dfd565b612e65565b83868660405160008152602001604052604051611ea59493929190615081565b6020604051602081039080840390855afa158015611ec7573d6000803e3d6000fd5b5050506020604051035173ffffffffffffffffffffffffffffffffffffffff168673ffffffffffffffffffffffffffffffffffffffff1614905095945050505050565b60008183611f189190615594565b905092915050565b6000611f2b82611ccd565b611f6a576040517f08c379a0000000000000000000000000000000000000000000000000000000008152600401611f619061526a565b60405180910390fd5b6000611f75836111e8565b90508073ffffffffffffffffffffffffffffffffffffffff168473ffffffffffffffffffffffffffffffffffffffff161480611fe457508373ffffffffffffffffffffffffffffffffffffffff16611fcc84610a03565b73ffffffffffffffffffffffffffffffffffffffff16145b80611ff55750611ff4818561196a565b5b91505092915050565b8273ffffffffffffffffffffffffffffffffffffffff1661201e826111e8565b73ffffffffffffffffffffffffffffffffffffffff1614612074576040517f08c379a000000000000000000000000000000000000000000000000000000000815260040161206b9061538a565b60405180910390fd5b600073ffffffffffffffffffffffffffffffffffffffff168273ffffffffffffffffffffffffffffffffffffffff1614156120e4576040517f08c379a00000000000000000000000000000000000000000000000000000000081526004016120db9061522a565b60405180910390fd5b6120ef838383612e9e565b6120fa600082611d48565b6001600560008573ffffffffffffffffffffffffffffffffffffffff1673ffffffffffffffffffffffffffffffffffffffff168152602001908152602001600020600082825461214a9190615675565b925050819055506001600560008473ffffffffffffffffffffffffffffffffffffffff1673ffffffffffffffffffffffffffffffffffffffff16815260200190815260200160002060008282546121a19190615594565b92505081905550816004600083815260200190815260200160002060006101000a81548173ffffffffffffffffffffffffffffffffffffffff021916908373ffffffffffffffffffffffffffffffffffffffff160217905550808273ffffffffffffffffffffffffffffffffffffffff168473ffffffffffffffffffffffffffffffffffffffff167fddf252ad1be2c89b69c2b068fc378daa952ba7f163c4a11628f55a4df523b3ef60405160405180910390a4505050565b61226382610ec2565b6122748161226f611d39565b612eae565b61227e8383612bcb565b505050565b61228b611d39565b73ffffffffffffffffffffffffffffffffffffffff168173ffffffffffffffffffffffffffffffffffffffff16146122f8576040517f08c379a00000000000000000000000000000000000000000000000000000000081526004016122ef906154aa565b60405180910390fd5b6123028282612f4b565b5050565b600061232e836000018373ffffffffffffffffffffffffffffffffffffffff1660001b61302c565b905092915050565b61233e6111d1565b61237d576040517f08c379a00000000000000000000000000000000000000000000000000000000081526004016123749061514a565b60405180910390fd5b6000600c60006101000a81548160ff0219169083151502179055507f5db9ee0a495bf2e6ff9c91a7834c1ba4fdd244a5e8aa4e537bd38aeae4b073aa6123c1611d39565b6040516123ce9190614f61565b60405180910390a1565b60006123e3826111e8565b90506123f181600084612e9e565b6123fc600083611d48565b6001600560008373ffffffffffffffffffffffffffffffffffffffff1673ffffffffffffffffffffffffffffffffffffffff168152602001908152602001600020600082825461244c9190615675565b925050819055506004600083815260200190815260200160002060006101000a81549073ffffffffffffffffffffffffffffffffffffffff021916905581600073ffffffffffffffffffffffffffffffffffffffff168273ffffffffffffffffffffffffffffffffffffffff167fddf252ad1be2c89b69c2b068fc378daa952ba7f163c4a11628f55a4df523b3ef60405160405180910390a45050565b600081600001549050919050565b600073ffffffffffffffffffffffffffffffffffffffff168273ffffffffffffffffffffffffffffffffffffffff161415612567576040517f08c379a000000000000000000000000000000000000000000000000000000000815260040161255e9061532a565b60405180910390fd5b61257081611ccd565b156125b0576040517f08c379a00000000000000000000000000000000000000000000000000000000081526004016125a7906151ea565b60405180910390fd5b6125bc60008383612e9e565b6001600560008473ffffffffffffffffffffffffffffffffffffffff1673ffffffffffffffffffffffffffffffffffffffff168152602001908152602001600020600082825461260c9190615594565b92505081905550816004600083815260200190815260200160002060006101000a81548173ffffffffffffffffffffffffffffffffffffffff021916908373ffffffffffffffffffffffffffffffffffffffff160217905550808273ffffffffffffffffffffffffffffffffffffffff16600073ffffffffffffffffffffffffffffffffffffffff167fddf252ad1be2c89b69c2b068fc378daa952ba7f163c4a11628f55a4df523b3ef60405160405180910390a45050565b6001816000016000828254019250508190555050565b6000600f60009054906101000a900473ffffffffffffffffffffffffffffffffffffffff16905081600f60006101000a81548173ffffffffffffffffffffffffffffffffffffffff021916908373ffffffffffffffffffffffffffffffffffffffff1602179055508173ffffffffffffffffffffffffffffffffffffffff168173ffffffffffffffffffffffffffffffffffffffff167f8be0079c531659141344cd1fd0a4f28419497f9722a3daafe3b4186f6b6457e060405160405180910390a35050565b6127a96111d1565b156127e9576040517f08c379a00000000000000000000000000000000000000000000000000000000081526004016127e0906152aa565b60405180910390fd5b6001600c60006101000a81548160ff0219169083151502179055507f62e78cea01bee320cd4e420270b5ea74000d11b0c9f74754ebdbfc544b05a25861282d611d39565b60405161283a9190614f61565b60405180910390a1565b600061285383600001836131b2565b60001c905092915050565b612869848484611ffe565b61287584848484613203565b6128b4576040517f08c379a00000000000000000000000000000000000000000000000000000000081526004016128ab9061518a565b60405180910390fd5b50505050565b6060600e80546128c9906157c4565b80601f01602080910402602001604051908101604052809291908181526020018280546128f5906157c4565b80156129425780601f1061291757610100808354040283529160200191612942565b820191906000526020600020905b81548152906001019060200180831161292557829003601f168201915b5050505050905090565b60606000821415612994576040518060400160405280600181526020017f30000000000000000000000000000000000000000000000000000000000000008152509050612af4565b600082905060005b600082146129c65780806129af906157f6565b915050600a826129bf91906155ea565b915061299c565b60008167ffffffffffffffff811115612a08577f4e487b7100000000000000000000000000000000000000000000000000000000600052604160045260246000fd5b6040519080825280601f01601f191660200182016040528015612a3a5781602001600182028036833780820191505090505b5090505b60008514612aed57600182612a539190615675565b9150600a85612a62919061586d565b6030612a6e9190615594565b60f81b818381518110612aaa577f4e487b7100000000000000000000000000000000000000000000000000000000600052603260045260246000fd5b60200101907effffffffffffffffffffffffffffffffffffffffffffffffffffffffffffff1916908160001a905350600a85612ae691906155ea565b9450612a3e565b8093505050505b919050565b6000612b078260000161339a565b9050919050565b612b1782610ec2565b612b2881612b23611d39565b612eae565b612b328383612f4b565b505050565b6000600760008473ffffffffffffffffffffffffffffffffffffffff1673ffffffffffffffffffffffffffffffffffffffff16815260200190815260200160002060008373ffffffffffffffffffffffffffffffffffffffff1673ffffffffffffffffffffffffffffffffffffffff16815260200190815260200160002060009054906101000a900460ff16905092915050565b612bd5828261153d565b612ca757600160008084815260200190815260200160002060000160008373ffffffffffffffffffffffffffffffffffffffff1673ffffffffffffffffffffffffffffffffffffffff16815260200190815260200160002060006101000a81548160ff021916908315150217905550612c4c611d39565b73ffffffffffffffffffffffffffffffffffffffff168173ffffffffffffffffffffffffffffffffffffffff16837f2f8788117e7eff1d82e926ec794901d17c78024a50270940304540a733656f0d60405160405180910390a45b5050565b6000612cb783836133ab565b612d10578260000182908060018154018082558091505060019003906000526020600020016000909190919091505582600001805490508360010160008481526020019081526020016000208190555060019050612d15565b600090505b92915050565b60007f80ac58cd000000000000000000000000000000000000000000000000000000007bffffffffffffffffffffffffffffffffffffffffffffffffffffffff1916827bffffffffffffffffffffffffffffffffffffffffffffffffffffffff19161480612de657507f5b5e139f000000000000000000000000000000000000000000000000000000007bffffffffffffffffffffffffffffffffffffffffffffffffffffffff1916827bffffffffffffffffffffffffffffffffffffffffffffffffffffffff1916145b80612df65750612df5826133ce565b5b9050919050565b6000604051806080016040528060438152602001615a1a604391398051906020012082600001518360200151846040015180519060200120604051602001612e48949392919061503c565b604051602081830303815290604052805190602001209050919050565b6000612e6f610e58565b82604051602001612e81929190614ef0565b604051602081830303815290604052805190602001209050919050565b612ea9838383613448565b505050565b612eb8828261153d565b612f4757612edd8173ffffffffffffffffffffffffffffffffffffffff1660146134a0565b612eeb8360001c60206134a0565b604051602001612efc929190614f27565b6040516020818303038152906040526040517f08c379a0000000000000000000000000000000000000000000000000000000008152600401612f3e91906150e8565b60405180910390fd5b5050565b612f55828261153d565b1561302857600080600084815260200190815260200160002060000160008373ffffffffffffffffffffffffffffffffffffffff1673ffffffffffffffffffffffffffffffffffffffff16815260200190815260200160002060006101000a81548160ff021916908315150217905550612fcd611d39565b73ffffffffffffffffffffffffffffffffffffffff168173ffffffffffffffffffffffffffffffffffffffff16837ff6391f5c32d9c69d2a47ea670b442974b53935d1edc7fd64eb21e047a839171b60405160405180910390a45b5050565b600080836001016000848152602001908152602001600020549050600081146131a657600060018261305e9190615675565b90506000600186600001805490506130769190615675565b90508181146131315760008660000182815481106130bd577f4e487b7100000000000000000000000000000000000000000000000000000000600052603260045260246000fd5b9060005260206000200154905080876000018481548110613107577f4e487b7100000000000000000000000000000000000000000000000000000000600052603260045260246000fd5b90600052602060002001819055508387600101600083815260200190815260200160002081905550505b8560000180548061316b577f4e487b7100000000000000000000000000000000000000000000000000000000600052603160045260246000fd5b6001900381819060005260206000200160009055905585600101600086815260200190815260200160002060009055600193505050506131ac565b60009150505b92915050565b60008260000182815481106131f0577f4e487b7100000000000000000000000000000000000000000000000000000000600052603260045260246000fd5b9060005260206000200154905092915050565b60006132248473ffffffffffffffffffffffffffffffffffffffff1661379a565b1561338d578373ffffffffffffffffffffffffffffffffffffffff1663150b7a0261324d611d39565b8786866040518563ffffffff1660e01b815260040161326f9493929190614fba565b602060405180830381600087803b15801561328957600080fd5b505af19250505080156132ba57506040513d601f19601f820116820180604052508101906132b79190614132565b60015b61333d573d80600081146132ea576040519150601f19603f3d011682016040523d82523d6000602084013e6132ef565b606091505b50600081511415613335576040517f08c379a000000000000000000000000000000000000000000000000000000000815260040161332c9061518a565b60405180910390fd5b805181602001fd5b63150b7a0260e01b7bffffffffffffffffffffffffffffffffffffffffffffffffffffffff1916817bffffffffffffffffffffffffffffffffffffffffffffffffffffffff191614915050613392565b600190505b949350505050565b600081600001805490509050919050565b600080836001016000848152602001908152602001600020541415905092915050565b60007f5a05180f000000000000000000000000000000000000000000000000000000007bffffffffffffffffffffffffffffffffffffffffffffffffffffffff1916827bffffffffffffffffffffffffffffffffffffffffffffffffffffffff191614806134415750613440826137ad565b5b9050919050565b613453838383613827565b61345b6111d1565b1561349b576040517f08c379a00000000000000000000000000000000000000000000000000000000081526004016134929061512a565b60405180910390fd5b505050565b6060600060028360026134b3919061561b565b6134bd9190615594565b67ffffffffffffffff8111156134fc577f4e487b7100000000000000000000000000000000000000000000000000000000600052604160045260246000fd5b6040519080825280601f01601f19166020018201604052801561352e5781602001600182028036833780820191505090505b5090507f30000000000000000000000000000000000000000000000000000000000000008160008151811061358c577f4e487b7100000000000000000000000000000000000000000000000000000000600052603260045260246000fd5b60200101907effffffffffffffffffffffffffffffffffffffffffffffffffffffffffffff1916908160001a9053507f780000000000000000000000000000000000000000000000000000000000000081600181518110613616577f4e487b7100000000000000000000000000000000000000000000000000000000600052603260045260246000fd5b60200101907effffffffffffffffffffffffffffffffffffffffffffffffffffffffffffff1916908160001a90535060006001846002613656919061561b565b6136609190615594565b90505b600181111561374c577f3031323334353637383961626364656600000000000000000000000000000000600f8616601081106136c8577f4e487b7100000000000000000000000000000000000000000000000000000000600052603260045260246000fd5b1a60f81b828281518110613705577f4e487b7100000000000000000000000000000000000000000000000000000000600052603260045260246000fd5b60200101907effffffffffffffffffffffffffffffffffffffffffffffffffffffffffffff1916908160001a905350600485901c9450806137459061579a565b9050613663565b5060008414613790576040517f08c379a00000000000000000000000000000000000000000000000000000000081526004016137879061510a565b60405180910390fd5b8091505092915050565b600080823b905060008111915050919050565b60007f7965db0b000000000000000000000000000000000000000000000000000000007bffffffffffffffffffffffffffffffffffffffffffffffffffffffff1916827bffffffffffffffffffffffffffffffffffffffffffffffffffffffff19161480613820575061381f8261393b565b5b9050919050565b6138328383836139a5565b600073ffffffffffffffffffffffffffffffffffffffff168373ffffffffffffffffffffffffffffffffffffffff16141561387557613870816139aa565b6138b4565b8173ffffffffffffffffffffffffffffffffffffffff168373ffffffffffffffffffffffffffffffffffffffff16146138b3576138b283826139f3565b5b5b600073ffffffffffffffffffffffffffffffffffffffff168273ffffffffffffffffffffffffffffffffffffffff1614156138f7576138f281613b60565b613936565b8273ffffffffffffffffffffffffffffffffffffffff168273ffffffffffffffffffffffffffffffffffffffff1614613935576139348282613ca3565b5b5b505050565b60007f01ffc9a7000000000000000000000000000000000000000000000000000000007bffffffffffffffffffffffffffffffffffffffffffffffffffffffff1916827bffffffffffffffffffffffffffffffffffffffffffffffffffffffff1916149050919050565b505050565b600a80549050600b600083815260200190815260200160002081905550600a81908060018154018082558091505060019003906000526020600020016000909190919091505550565b60006001613a008461132a565b613a0a9190615675565b9050600060096000848152602001908152602001600020549050818114613aef576000600860008673ffffffffffffffffffffffffffffffffffffffff1673ffffffffffffffffffffffffffffffffffffffff168152602001908152602001600020600084815260200190815260200160002054905080600860008773ffffffffffffffffffffffffffffffffffffffff1673ffffffffffffffffffffffffffffffffffffffff168152602001908152602001600020600084815260200190815260200160002081905550816009600083815260200190815260200160002081905550505b6009600084815260200190815260200160002060009055600860008573ffffffffffffffffffffffffffffffffffffffff1673ffffffffffffffffffffffffffffffffffffffff16815260200190815260200160002060008381526020019081526020016000206000905550505050565b60006001600a80549050613b749190615675565b90506000600b60008481526020019081526020016000205490506000600a8381548110613bca577f4e487b7100000000000000000000000000000000000000000000000000000000600052603260045260246000fd5b9060005260206000200154905080600a8381548110613c12577f4e487b7100000000000000000000000000000000000000000000000000000000600052603260045260246000fd5b906000526020600020018190555081600b600083815260200190815260200160002081905550600b600085815260200190815260200160002060009055600a805480613c87577f4e487b7100000000000000000000000000000000000000000000000000000000600052603160045260246000fd5b6001900381819060005260206000200160009055905550505050565b6000613cae8361132a565b905081600860008573ffffffffffffffffffffffffffffffffffffffff1673ffffffffffffffffffffffffffffffffffffffff168152602001908152602001600020600083815260200190815260200160002081905550806009600084815260200190815260200160002081905550505050565b6000613d35613d3084615516565b6154e5565b905082815260208101848484011115613d4d57600080fd5b613d58848285615758565b509392505050565b600081359050613d6f81615978565b92915050565b600081359050613d848161598f565b92915050565b600081359050613d99816159a6565b92915050565b600081359050613dae816159bd565b92915050565b600081519050613dc3816159bd565b92915050565b600082601f830112613dda57600080fd5b8135613dea848260208601613d22565b91505092915050565b600081519050613e02816159d4565b92915050565b600081359050613e17816159eb565b92915050565b600081359050613e2c81615a02565b92915050565b600060208284031215613e4457600080fd5b6000613e5284828501613d60565b91505092915050565b60008060408385031215613e6e57600080fd5b6000613e7c85828601613d60565b9250506020613e8d85828601613d60565b9150509250929050565b600080600060608486031215613eac57600080fd5b6000613eba86828701613d60565b9350506020613ecb86828701613d60565b9250506040613edc86828701613e08565b9150509250925092565b60008060008060808587031215613efc57600080fd5b6000613f0a87828801613d60565b9450506020613f1b87828801613d60565b9350506040613f2c87828801613e08565b925050606085013567ffffffffffffffff811115613f4957600080fd5b613f5587828801613dc9565b91505092959194509250565b60008060408385031215613f7457600080fd5b6000613f8285828601613d60565b9250506020613f9385828601613d75565b9150509250929050565b600080600080600060a08688031215613fb557600080fd5b6000613fc388828901613d60565b955050602086013567ffffffffffffffff811115613fe057600080fd5b613fec88828901613dc9565b9450506040613ffd88828901613d8a565b935050606061400e88828901613d8a565b925050608061401f88828901613e1d565b9150509295509295909350565b6000806040838503121561403f57600080fd5b600061404d85828601613d60565b925050602061405e85828601613e08565b9150509250929050565b60006020828403121561407a57600080fd5b600061408884828501613d8a565b91505092915050565b600080604083850312156140a457600080fd5b60006140b285828601613d8a565b92505060206140c385828601613d60565b9150509250929050565b600080604083850312156140e057600080fd5b60006140ee85828601613d8a565b92505060206140ff85828601613e08565b9150509250929050565b60006020828403121561411b57600080fd5b600061412984828501613d9f565b91505092915050565b60006020828403121561414457600080fd5b600061415284828501613db4565b91505092915050565b60006020828403121561416d57600080fd5b600061417b84828501613df3565b91505092915050565b60006020828403121561419657600080fd5b60006141a484828501613e08565b91505092915050565b6141b6816156bb565b82525050565b6141c5816156a9565b82525050565b6141dc6141d7826156a9565b61583f565b82525050565b6141eb816156cd565b82525050565b6141fa816156d9565b82525050565b61421161420c826156d9565b615851565b82525050565b600061422282615546565b61422c818561555c565b935061423c818560208601615767565b6142458161595a565b840191505092915050565b600061425b82615546565b614265818561556d565b9350614275818560208601615767565b80840191505092915050565b600061428c82615551565b6142968185615578565b93506142a6818560208601615767565b6142af8161595a565b840191505092915050565b60006142c582615551565b6142cf8185615589565b93506142df818560208601615767565b80840191505092915050565b60006142f8602083615578565b91507f537472696e67733a20686578206c656e67746820696e73756666696369656e746000830152602082019050919050565b6000614338602b83615578565b91507f4552433732315061757361626c653a20746f6b656e207472616e73666572207760008301527f68696c65207061757365640000000000000000000000000000000000000000006020830152604082019050919050565b600061439e601483615578565b91507f5061757361626c653a206e6f74207061757365640000000000000000000000006000830152602082019050919050565b60006143de602b83615578565b91507f455243373231456e756d657261626c653a206f776e657220696e646578206f7560008301527f74206f6620626f756e64730000000000000000000000000000000000000000006020830152604082019050919050565b6000614444603283615578565b91507f4552433732313a207472616e7366657220746f206e6f6e20455243373231526560008301527f63656976657220696d706c656d656e74657200000000000000000000000000006020830152604082019050919050565b60006144aa602683615578565b91507f4f776e61626c653a206e6577206f776e657220697320746865207a65726f206160008301527f64647265737300000000000000000000000000000000000000000000000000006020830152604082019050919050565b6000614510601c83615578565b91507f46756e6374696f6e2063616c6c206e6f74207375636365737366756c000000006000830152602082019050919050565b6000614550601c83615578565b91507f4552433732313a20746f6b656e20616c7265616479206d696e746564000000006000830152602082019050919050565b6000614590600283615589565b91507f19010000000000000000000000000000000000000000000000000000000000006000830152600282019050919050565b60006145d0603e83615578565b91507f4552433732315072657365744d696e7465725061757365724175746f49643a2060008301527f6d75737420686176652070617573657220726f6c6520746f20706175736500006020830152604082019050919050565b6000614636602483615578565b91507f4552433732313a207472616e7366657220746f20746865207a65726f2061646460008301527f72657373000000000000000000000000000000000000000000000000000000006020830152604082019050919050565b600061469c601983615578565b91507f4552433732313a20617070726f766520746f2063616c6c6572000000000000006000830152602082019050919050565b60006146dc602c83615578565b91507f4552433732313a206f70657261746f7220717565727920666f72206e6f6e657860008301527f697374656e7420746f6b656e00000000000000000000000000000000000000006020830152604082019050919050565b6000614742602583615578565b91507f4e61746976654d6574615472616e73616374696f6e3a20494e56414c49445f5360008301527f49474e45520000000000000000000000000000000000000000000000000000006020830152604082019050919050565b60006147a8601083615578565b91507f5061757361626c653a20706175736564000000000000000000000000000000006000830152602082019050919050565b60006147e8603883615578565b91507f4552433732313a20617070726f76652063616c6c6572206973206e6f74206f7760008301527f6e6572206e6f7220617070726f76656420666f7220616c6c00000000000000006020830152604082019050919050565b600061484e602a83615578565b91507f4552433732313a2062616c616e636520717565727920666f7220746865207a6560008301527f726f2061646472657373000000000000000000000000000000000000000000006020830152604082019050919050565b60006148b4602983615578565b91507f4552433732313a206f776e657220717565727920666f72206e6f6e657869737460008301527f656e7420746f6b656e00000000000000000000000000000000000000000000006020830152604082019050919050565b600061491a602083615578565b91507f4552433732313a206d696e7420746f20746865207a65726f20616464726573736000830152602082019050919050565b600061495a602c83615578565b91507f4552433732313a20617070726f76656420717565727920666f72206e6f6e657860008301527f697374656e7420746f6b656e00000000000000000000000000000000000000006020830152604082019050919050565b60006149c0602083615578565b91507f4f776e61626c653a2063616c6c6572206973206e6f7420746865206f776e65726000830152602082019050919050565b6000614a00602983615578565b91507f4552433732313a207472616e73666572206f6620746f6b656e2074686174206960008301527f73206e6f74206f776e00000000000000000000000000000000000000000000006020830152604082019050919050565b6000614a66602183615578565b91507f5369676e657220616e64207369676e617475726520646f206e6f74206d61746360008301527f68000000000000000000000000000000000000000000000000000000000000006020830152604082019050919050565b6000614acc602f83615578565b91507f4552433732314d657461646174613a2055524920717565727920666f72206e6f60008301527f6e6578697374656e7420746f6b656e00000000000000000000000000000000006020830152604082019050919050565b6000614b32602183615578565b91507f4552433732313a20617070726f76616c20746f2063757272656e74206f776e6560008301527f72000000000000000000000000000000000000000000000000000000000000006020830152604082019050919050565b6000614b98603183615578565b91507f4552433732313a207472616e736665722063616c6c6572206973206e6f74206f60008301527f776e6572206e6f7220617070726f7665640000000000000000000000000000006020830152604082019050919050565b6000614bfe602c83615578565b91507f455243373231456e756d657261626c653a20676c6f62616c20696e646578206f60008301527f7574206f6620626f756e647300000000000000000000000000000000000000006020830152604082019050919050565b6000614c64601783615589565b91507f416363657373436f6e74726f6c3a206163636f756e74200000000000000000006000830152601782019050919050565b6000614ca4603d83615578565b91507f4552433732315072657365744d696e7465725061757365724175746f49643a2060008301527f6d7573742068617665206d696e74657220726f6c6520746f206d696e740000006020830152604082019050919050565b6000614d0a603083615578565b91507f4552433732314275726e61626c653a2063616c6c6572206973206e6f74206f7760008301527f6e6572206e6f7220617070726f766564000000000000000000000000000000006020830152604082019050919050565b6000614d70604083615578565b91507f4552433732315072657365744d696e7465725061757365724175746f49643a2060008301527f6d75737420686176652070617573657220726f6c6520746f20756e70617573656020830152604082019050919050565b6000614dd6601183615589565b91507f206973206d697373696e6720726f6c65200000000000000000000000000000006000830152601182019050919050565b6000614e16602f83615578565b91507f416363657373436f6e74726f6c3a2063616e206f6e6c792072656e6f756e636560008301527f20726f6c657320666f722073656c6600000000000000000000000000000000006020830152604082019050919050565b614e7881615741565b82525050565b614e878161574b565b82525050565b6000614e998284614250565b915081905092915050565b6000614eb08285614250565b9150614ebc82846141cb565b6014820191508190509392505050565b6000614ed882856142ba565b9150614ee482846142ba565b91508190509392505050565b6000614efb82614583565b9150614f078285614200565b602082019150614f178284614200565b6020820191508190509392505050565b6000614f3282614c57565b9150614f3e82856142ba565b9150614f4982614dc9565b9150614f5582846142ba565b91508190509392505050565b6000602082019050614f7660008301846141bc565b92915050565b6000606082019050614f9160008301866141bc565b614f9e60208301856141ad565b8181036040830152614fb08184614217565b9050949350505050565b6000608082019050614fcf60008301876141bc565b614fdc60208301866141bc565b614fe96040830185614e6f565b8181036060830152614ffb8184614217565b905095945050505050565b600060208201905061501b60008301846141e2565b92915050565b600060208201905061503660008301846141f1565b92915050565b600060808201905061505160008301876141f1565b61505e6020830186614e6f565b61506b60408301856141bc565b61507860608301846141f1565b95945050505050565b600060808201905061509660008301876141f1565b6150a36020830186614e7e565b6150b060408301856141f1565b6150bd60608301846141f1565b95945050505050565b600060208201905081810360008301526150e08184614217565b905092915050565b600060208201905081810360008301526151028184614281565b905092915050565b60006020820190508181036000830152615123816142eb565b9050919050565b600060208201905081810360008301526151438161432b565b9050919050565b6000602082019050818103600083015261516381614391565b9050919050565b60006020820190508181036000830152615183816143d1565b9050919050565b600060208201905081810360008301526151a381614437565b9050919050565b600060208201905081810360008301526151c38161449d565b9050919050565b600060208201905081810360008301526151e381614503565b9050919050565b6000602082019050818103600083015261520381614543565b9050919050565b60006020820190508181036000830152615223816145c3565b9050919050565b6000602082019050818103600083015261524381614629565b9050919050565b600060208201905081810360008301526152638161468f565b9050919050565b60006020820190508181036000830152615283816146cf565b9050919050565b600060208201905081810360008301526152a381614735565b9050919050565b600060208201905081810360008301526152c38161479b565b9050919050565b600060208201905081810360008301526152e3816147db565b9050919050565b6000602082019050818103600083015261530381614841565b9050919050565b60006020820190508181036000830152615323816148a7565b9050919050565b600060208201905081810360008301526153438161490d565b9050919050565b600060208201905081810360008301526153638161494d565b9050919050565b60006020820190508181036000830152615383816149b3565b9050919050565b600060208201905081810360008301526153a3816149f3565b9050919050565b600060208201905081810360008301526153c381614a59565b9050919050565b600060208201905081810360008301526153e381614abf565b9050919050565b6000602082019050818103600083015261540381614b25565b9050919050565b6000602082019050818103600083015261542381614b8b565b9050919050565b6000602082019050818103600083015261544381614bf1565b9050919050565b6000602082019050818103600083015261546381614c97565b9050919050565b6000602082019050818103600083015261548381614cfd565b9050919050565b600060208201905081810360008301526154a381614d63565b9050919050565b600060208201905081810360008301526154c381614e09565b9050919050565b60006020820190506154df6000830184614e6f565b92915050565b6000604051905081810181811067ffffffffffffffff8211171561550c5761550b61592b565b5b8060405250919050565b600067ffffffffffffffff8211156155315761553061592b565b5b601f19601f8301169050602081019050919050565b600081519050919050565b600081519050919050565b600082825260208201905092915050565b600081905092915050565b600082825260208201905092915050565b600081905092915050565b600061559f82615741565b91506155aa83615741565b9250827fffffffffffffffffffffffffffffffffffffffffffffffffffffffffffffffff038211156155df576155de61589e565b5b828201905092915050565b60006155f582615741565b915061560083615741565b9250826156105761560f6158cd565b5b828204905092915050565b600061562682615741565b915061563183615741565b9250817fffffffffffffffffffffffffffffffffffffffffffffffffffffffffffffffff048311821515161561566a5761566961589e565b5b828202905092915050565b600061568082615741565b915061568b83615741565b92508282101561569e5761569d61589e565b5b828203905092915050565b60006156b482615721565b9050919050565b60006156c682615721565b9050919050565b60008115159050919050565b6000819050919050565b60007fffffffff0000000000000000000000000000000000000000000000000000000082169050919050565b600061571a826156a9565b9050919050565b600073ffffffffffffffffffffffffffffffffffffffff82169050919050565b6000819050919050565b600060ff82169050919050565b82818337600083830152505050565b60005b8381101561578557808201518184015260208101905061576a565b83811115615794576000848401525b50505050565b60006157a582615741565b915060008214156157b9576157b861589e565b5b600182039050919050565b600060028204905060018216806157dc57607f821691505b602082108114156157f0576157ef6158fc565b5b50919050565b600061580182615741565b91507fffffffffffffffffffffffffffffffffffffffffffffffffffffffffffffffff8214156158345761583361589e565b5b600182019050919050565b600061584a8261585b565b9050919050565b6000819050919050565b60006158668261596b565b9050919050565b600061587882615741565b915061588383615741565b925082615893576158926158cd565b5b828206905092915050565b7f4e487b7100000000000000000000000000000000000000000000000000000000600052601160045260246000fd5b7f4e487b7100000000000000000000000000000000000000000000000000000000600052601260045260246000fd5b7f4e487b7100000000000000000000000000000000000000000000000000000000600052602260045260246000fd5b7f4e487b7100000000000000000000000000000000000000000000000000000000600052604160045260246000fd5b6000601f19601f8301169050919050565b60008160601b9050919050565b615981816156a9565b811461598c57600080fd5b50565b615998816156cd565b81146159a357600080fd5b50565b6159af816156d9565b81146159ba57600080fd5b50565b6159c6816156e3565b81146159d157600080fd5b50565b6159dd8161570f565b81146159e857600080fd5b50565b6159f481615741565b81146159ff57600080fd5b50565b615a0b8161574b565b8114615a1657600080fd5b5056fe4d6574615472616e73616374696f6e2875696e74323536206e6f6e63652c616464726573732066726f6d2c62797465732066756e6374696f6e5369676e617475726529a264697066735822122038d93f782d266c0f34c731881e7340d029481a7425eafddea76d75c65c5a079364736f6c63430008000033454950373132446f6d61696e28737472696e67206e616d652c737472696e672076657273696f6e2c6164647265737320766572696679696e67436f6e74726163742c627974657333322073616c742968747470733a2f2f6f70656e7365612d6372656174757265732d6170692e6865726f6b756170702e636f6d2f6170692f63726561747572652f",
  "immutableReferences": {},
  "source": "pragma solidity ^0.8.0;\r\n\r\nimport \"./ERC721Tradeable.sol\";\r\n\r\n\r\n\r\ncontract MyNft is ERC721Tradable{\r\n    constructor() \r\n         ERC721Tradable(\"MyNft\",\"MN\",\"https://opensea-creatures-api.herokuapp.com/api/creature/\", 0xF57B2c51dED3A29e6891aba85459d600256Cf317){\r\n             \r\n         }\r\n\r\n} ",
  "sourcePath": "C:\\Users\\Mustafa\\myNft\\contracts\\MyNft.sol",
  "compiler": {
    "name": "solc",
    "version": "0.8.0+commit.c7dfd78e.Emscripten.clang"
  },
  "schemaVersion": "3.4.3",
  "updatedAt": "2021-09-30T15:47:47.131Z",
  "networkType": "ethereum",
  "devdoc": {
    "kind": "dev",
    "methods": {
      "approve(address,uint256)": {
        "details": "See {IERC721-approve}."
      },
      "balanceOf(address)": {
        "details": "See {IERC721-balanceOf}."
      },
      "burn(uint256)": {
        "details": "Burns `tokenId`. See {ERC721-_burn}. Requirements: - The caller must own `tokenId` or be an approved operator."
      },
      "getApproved(uint256)": {
        "details": "See {IERC721-getApproved}."
      },
      "getRoleAdmin(bytes32)": {
        "details": "Returns the admin role that controls `role`. See {grantRole} and {revokeRole}. To change a role's admin, use {_setRoleAdmin}."
      },
      "getRoleMember(bytes32,uint256)": {
        "details": "Returns one of the accounts that have `role`. `index` must be a value between 0 and {getRoleMemberCount}, non-inclusive. Role bearers are not sorted in any particular way, and their ordering may change at any point. WARNING: When using {getRoleMember} and {getRoleMemberCount}, make sure you perform all queries on the same block. See the following https://forum.openzeppelin.com/t/iterating-over-elements-on-enumerableset-in-openzeppelin-contracts/2296[forum post] for more information."
      },
      "getRoleMemberCount(bytes32)": {
        "details": "Returns the number of accounts that have `role`. Can be used together with {getRoleMember} to enumerate all bearers of a role."
      },
      "grantRole(bytes32,address)": {
        "details": "Overload {grantRole} to track enumerable memberships"
      },
      "hasRole(bytes32,address)": {
        "details": "Returns `true` if `account` has been granted `role`."
      },
      "isApprovedForAll(address,address)": {
        "details": "See {IERC721-isApprovedForAll}."
      },
      "mint(address)": {
        "details": "Creates a new token for `to`. Its token ID will be automatically assigned (and available on the emitted {IERC721-Transfer} event), and the token URI autogenerated based on the base URI passed at construction. See {ERC721-_mint}. Requirements: - the caller must have the `MINTER_ROLE`."
      },
      "name()": {
        "details": "See {IERC721Metadata-name}."
      },
      "owner()": {
        "details": "Returns the address of the current owner."
      },
      "ownerOf(uint256)": {
        "details": "See {IERC721-ownerOf}."
      },
      "pause()": {
        "details": "Pauses all token transfers. See {ERC721Pausable} and {Pausable-_pause}. Requirements: - the caller must have the `PAUSER_ROLE`."
      },
      "paused()": {
        "details": "Returns true if the contract is paused, and false otherwise."
      },
      "renounceOwnership()": {
        "details": "Leaves the contract without owner. It will not be possible to call `onlyOwner` functions anymore. Can only be called by the current owner. NOTE: Renouncing ownership will leave the contract without an owner, thereby removing any functionality that is only available to the owner."
      },
      "renounceRole(bytes32,address)": {
        "details": "Overload {renounceRole} to track enumerable memberships"
      },
      "revokeRole(bytes32,address)": {
        "details": "Overload {revokeRole} to track enumerable memberships"
      },
      "safeTransferFrom(address,address,uint256)": {
        "details": "See {IERC721-safeTransferFrom}."
      },
      "safeTransferFrom(address,address,uint256,bytes)": {
        "details": "See {IERC721-safeTransferFrom}."
      },
      "setApprovalForAll(address,bool)": {
        "details": "See {IERC721-setApprovalForAll}."
      },
      "supportsInterface(bytes4)": {
        "details": "See {IERC165-supportsInterface}."
      },
      "symbol()": {
        "details": "See {IERC721Metadata-symbol}."
      },
      "tokenByIndex(uint256)": {
        "details": "See {IERC721Enumerable-tokenByIndex}."
      },
      "tokenOfOwnerByIndex(address,uint256)": {
        "details": "See {IERC721Enumerable-tokenOfOwnerByIndex}."
      },
      "tokenURI(uint256)": {
        "details": "See {IERC721Metadata-tokenURI}."
      },
      "totalSupply()": {
        "details": "See {IERC721Enumerable-totalSupply}."
      },
      "transferFrom(address,address,uint256)": {
        "details": "See {IERC721-transferFrom}."
      },
      "transferOwnership(address)": {
        "details": "Transfers ownership of the contract to a new account (`newOwner`). Can only be called by the current owner."
      },
      "unpause()": {
        "details": "Unpauses all token transfers. See {ERC721Pausable} and {Pausable-_unpause}. Requirements: - the caller must have the `PAUSER_ROLE`."
      }
    },
    "version": 1
  },
  "userdoc": {
    "kind": "user",
    "methods": {},
    "version": 1
  }
}