{
  "contractName": "NativeMetaTransaction",
  "abi": [
    {
      "anonymous": false,
      "inputs": [
        {
          "indexed": false,
          "internalType": "address",
          "name": "userAddress",
          "type": "address"
        },
        {
          "indexed": false,
          "internalType": "address payable",
          "name": "relayerAddress",
          "type": "address"
        },
        {
          "indexed": false,
          "internalType": "bytes",
          "name": "functionSignature",
          "type": "bytes"
        }
      ],
      "name": "MetaTransactionExecuted",
      "type": "event"
    },
    {
      "inputs": [],
      "name": "ERC712_VERSION",
      "outputs": [
        {
          "internalType": "string",
          "name": "",
          "type": "string"
        }
      ],
      "stateMutability": "view",
      "type": "function"
    },
    {
      "inputs": [],
      "name": "getChainId",
      "outputs": [
        {
          "internalType": "uint256",
          "name": "",
          "type": "uint256"
        }
      ],
      "stateMutability": "view",
      "type": "function"
    },
    {
      "inputs": [],
      "name": "getDomainSeperator",
      "outputs": [
        {
          "internalType": "bytes32",
          "name": "",
          "type": "bytes32"
        }
      ],
      "stateMutability": "view",
      "type": "function"
    },
    {
      "inputs": [
        {
          "internalType": "address",
          "name": "userAddress",
          "type": "address"
        },
        {
          "internalType": "bytes",
          "name": "functionSignature",
          "type": "bytes"
        },
        {
          "internalType": "bytes32",
          "name": "sigR",
          "type": "bytes32"
        },
        {
          "internalType": "bytes32",
          "name": "sigS",
          "type": "bytes32"
        },
        {
          "internalType": "uint8",
          "name": "sigV",
          "type": "uint8"
        }
      ],
      "name": "executeMetaTransaction",
      "outputs": [
        {
          "internalType": "bytes",
          "name": "",
          "type": "bytes"
        }
      ],
      "stateMutability": "payable",
      "type": "function"
    },
    {
      "inputs": [
        {
          "internalType": "address",
          "name": "user",
          "type": "address"
        }
      ],
      "name": "getNonce",
      "outputs": [
        {
          "internalType": "uint256",
          "name": "nonce",
          "type": "uint256"
        }
      ],
      "stateMutability": "view",
      "type": "function"
    }
  ],
  "bytecode": "0x608060405260008060006101000a81548160ff02191690831515021790555034801561002a57600080fd5b50610ed98061003a6000396000f3fe60806040526004361061004a5760003560e01c80630c53c51c1461004f5780630f7e59701461007f57806320379ee5146100aa5780632d0335ab146100d55780633408e47014610112575b600080fd5b610069600480360381019061006491906106c3565b61013d565b6040516100769190610b13565b60405180910390f35b34801561008b57600080fd5b506100946103b0565b6040516100a19190610b35565b60405180910390f35b3480156100b657600080fd5b506100bf6103e9565b6040516100cc9190610a6e565b60405180910390f35b3480156100e157600080fd5b506100fc60048036038101906100f7919061069a565b6103f3565b6040516101099190610bb7565b60405180910390f35b34801561011e57600080fd5b5061012761043c565b6040516101349190610bb7565b60405180910390f35b606060006040518060600160405280600260008a73ffffffffffffffffffffffffffffffffffffffff1673ffffffffffffffffffffffffffffffffffffffff1681526020019081526020016000205481526020018873ffffffffffffffffffffffffffffffffffffffff1681526020018781525090506101c08782878787610449565b6101ff576040517f08c379a00000000000000000000000000000000000000000000000000000000081526004016101f690610b97565b60405180910390fd5b600260008873ffffffffffffffffffffffffffffffffffffffff1673ffffffffffffffffffffffffffffffffffffffff168152602001908152602001600020600081548092919061024f90610d28565b91905055600260008973ffffffffffffffffffffffffffffffffffffffff1673ffffffffffffffffffffffffffffffffffffffff168152602001908152602001600020819055507f5845892132946850460bff5a0083f71031bc5bf9aadcd40f1de79423eac9b10b8733886040516102c993929190610a30565b60405180910390a16000803073ffffffffffffffffffffffffffffffffffffffff16888a6040516020016102fe9291906109d1565b60405160208183030381529060405260405161031a91906109ba565b6000604051808303816000865af19150503d8060008114610357576040519150601f19603f3d011682016040523d82523d6000602084013e61035c565b606091505b5091509150816103a1576040517f08c379a000000000000000000000000000000000000000000000000000000000815260040161039890610b57565b60405180910390fd5b80935050505095945050505050565b6040518060400160405280600181526020017f310000000000000000000000000000000000000000000000000000000000000081525081565b6000600154905090565b6000600260008373ffffffffffffffffffffffffffffffffffffffff1673ffffffffffffffffffffffffffffffffffffffff168152602001908152602001600020549050919050565b6000804690508091505090565b60008073ffffffffffffffffffffffffffffffffffffffff168673ffffffffffffffffffffffffffffffffffffffff1614156104ba576040517f08c379a00000000000000000000000000000000000000000000000000000000081526004016104b190610b77565b60405180910390fd5b60016104cd6104c887610552565b6105ba565b838686604051600081526020016040526040516104ed9493929190610ace565b6020604051602081039080840390855afa15801561050f573d6000803e3d6000fd5b5050506020604051035173ffffffffffffffffffffffffffffffffffffffff168673ffffffffffffffffffffffffffffffffffffffff1614905095945050505050565b6000604051806080016040528060438152602001610e6160439139805190602001208260000151836020015184604001518051906020012060405160200161059d9493929190610a89565b604051602081830303815290604052805190602001209050919050565b60006105c46103e9565b826040516020016105d69291906109f9565b604051602081830303815290604052805190602001209050919050565b600061060661060184610c03565b610bd2565b90508281526020810184848401111561061e57600080fd5b610629848285610ce6565b509392505050565b60008135905061064081610e1b565b92915050565b60008135905061065581610e32565b92915050565b600082601f83011261066c57600080fd5b813561067c8482602086016105f3565b91505092915050565b60008135905061069481610e49565b92915050565b6000602082840312156106ac57600080fd5b60006106ba84828501610631565b91505092915050565b600080600080600060a086880312156106db57600080fd5b60006106e988828901610631565b955050602086013567ffffffffffffffff81111561070657600080fd5b6107128882890161065b565b945050604061072388828901610646565b935050606061073488828901610646565b925050608061074588828901610685565b9150509295509295909350565b61075b81610c93565b82525050565b61076a81610c81565b82525050565b61078161077c82610c81565b610d71565b82525050565b61079081610ca5565b82525050565b6107a76107a282610ca5565b610d83565b82525050565b60006107b882610c33565b6107c28185610c49565b93506107d2818560208601610cf5565b6107db81610dfd565b840191505092915050565b60006107f182610c33565b6107fb8185610c5a565b935061080b818560208601610cf5565b80840191505092915050565b600061082282610c3e565b61082c8185610c65565b935061083c818560208601610cf5565b61084581610dfd565b840191505092915050565b600061085d601c83610c65565b91507f46756e6374696f6e2063616c6c206e6f74207375636365737366756c000000006000830152602082019050919050565b600061089d600283610c76565b91507f19010000000000000000000000000000000000000000000000000000000000006000830152600282019050919050565b60006108dd602583610c65565b91507f4e61746976654d6574615472616e73616374696f6e3a20494e56414c49445f5360008301527f49474e45520000000000000000000000000000000000000000000000000000006020830152604082019050919050565b6000610943602183610c65565b91507f5369676e657220616e64207369676e617475726520646f206e6f74206d61746360008301527f68000000000000000000000000000000000000000000000000000000000000006020830152604082019050919050565b6109a581610ccf565b82525050565b6109b481610cd9565b82525050565b60006109c682846107e6565b915081905092915050565b60006109dd82856107e6565b91506109e98284610770565b6014820191508190509392505050565b6000610a0482610890565b9150610a108285610796565b602082019150610a208284610796565b6020820191508190509392505050565b6000606082019050610a456000830186610761565b610a526020830185610752565b8181036040830152610a6481846107ad565b9050949350505050565b6000602082019050610a836000830184610787565b92915050565b6000608082019050610a9e6000830187610787565b610aab602083018661099c565b610ab86040830185610761565b610ac56060830184610787565b95945050505050565b6000608082019050610ae36000830187610787565b610af060208301866109ab565b610afd6040830185610787565b610b0a6060830184610787565b95945050505050565b60006020820190508181036000830152610b2d81846107ad565b905092915050565b60006020820190508181036000830152610b4f8184610817565b905092915050565b60006020820190508181036000830152610b7081610850565b9050919050565b60006020820190508181036000830152610b90816108d0565b9050919050565b60006020820190508181036000830152610bb081610936565b9050919050565b6000602082019050610bcc600083018461099c565b92915050565b6000604051905081810181811067ffffffffffffffff82111715610bf957610bf8610dce565b5b8060405250919050565b600067ffffffffffffffff821115610c1e57610c1d610dce565b5b601f19601f8301169050602081019050919050565b600081519050919050565b600081519050919050565b600082825260208201905092915050565b600081905092915050565b600082825260208201905092915050565b600081905092915050565b6000610c8c82610caf565b9050919050565b6000610c9e82610caf565b9050919050565b6000819050919050565b600073ffffffffffffffffffffffffffffffffffffffff82169050919050565b6000819050919050565b600060ff82169050919050565b82818337600083830152505050565b60005b83811015610d13578082015181840152602081019050610cf8565b83811115610d22576000848401525b50505050565b6000610d3382610ccf565b91507fffffffffffffffffffffffffffffffffffffffffffffffffffffffffffffffff821415610d6657610d65610d9f565b5b600182019050919050565b6000610d7c82610d8d565b9050919050565b6000819050919050565b6000610d9882610e0e565b9050919050565b7f4e487b7100000000000000000000000000000000000000000000000000000000600052601160045260246000fd5b7f4e487b7100000000000000000000000000000000000000000000000000000000600052604160045260246000fd5b6000601f19601f8301169050919050565b60008160601b9050919050565b610e2481610c81565b8114610e2f57600080fd5b50565b610e3b81610ca5565b8114610e4657600080fd5b50565b610e5281610cd9565b8114610e5d57600080fd5b5056fe4d6574615472616e73616374696f6e2875696e74323536206e6f6e63652c616464726573732066726f6d2c62797465732066756e6374696f6e5369676e617475726529a2646970667358221220263ea644ec41aab3463cfe3bd1c6b2388254d37689698cfe6ac4df68522652ae64736f6c63430008000033",
  "immutableReferences": {},
  "source": "// SPDX-License-Identifier: MIT\n\npragma solidity ^0.8.0;\n\nimport {EIP712Base} from \"./EIP712Base.sol\";\n\ncontract NativeMetaTransaction is EIP712Base {\n    bytes32 private constant META_TRANSACTION_TYPEHASH = keccak256(\n        bytes(\n            \"MetaTransaction(uint256 nonce,address from,bytes functionSignature)\"\n        )\n    );\n    event MetaTransactionExecuted(\n        address userAddress,\n        address payable relayerAddress,\n        bytes functionSignature\n    );\n    mapping(address => uint256) nonces;\n\n    /*\n     * Meta transaction structure.\n     * No point of including value field here as if user is doing value transfer then he has the funds to pay for gas\n     * He should call the desired function directly in that case.\n     */\n    struct MetaTransaction {\n        uint256 nonce;\n        address from;\n        bytes functionSignature;\n    }\n\n    function executeMetaTransaction(\n        address userAddress,\n        bytes memory functionSignature,\n        bytes32 sigR,\n        bytes32 sigS,\n        uint8 sigV\n    ) public payable returns (bytes memory) {\n        MetaTransaction memory metaTx = MetaTransaction({\n            nonce: nonces[userAddress],\n            from: userAddress,\n            functionSignature: functionSignature\n        });\n\n        require(\n            verify(userAddress, metaTx, sigR, sigS, sigV),\n            \"Signer and signature do not match\"\n        );\n\n        // increase nonce for user (to avoid re-use)\n        nonces[userAddress] = nonces[userAddress]++;\n\n        emit MetaTransactionExecuted(\n            userAddress,\n            payable(msg.sender),\n            functionSignature\n        );\n\n        // Append userAddress and relayer address at the end to extract it from calling context\n        (bool success, bytes memory returnData) = address(this).call(\n            abi.encodePacked(functionSignature, userAddress)\n        );\n        require(success, \"Function call not successful\");\n\n        return returnData;\n    }\n\n    function hashMetaTransaction(MetaTransaction memory metaTx)\n        internal\n        pure\n        returns (bytes32)\n    {\n        return\n            keccak256(\n                abi.encode(\n                    META_TRANSACTION_TYPEHASH,\n                    metaTx.nonce,\n                    metaTx.from,\n                    keccak256(metaTx.functionSignature)\n                )\n            );\n    }\n\n    function getNonce(address user) public view returns (uint256 nonce) {\n        nonce = nonces[user];\n    }\n\n    function verify(\n        address signer,\n        MetaTransaction memory metaTx,\n        bytes32 sigR,\n        bytes32 sigS,\n        uint8 sigV\n    ) internal view returns (bool) {\n        require(signer != address(0), \"NativeMetaTransaction: INVALID_SIGNER\");\n        return\n            signer ==\n            ecrecover(\n                toTypedMessageHash(hashMetaTransaction(metaTx)),\n                sigV,\n                sigR,\n                sigS\n            );\n    }\n}",
  "sourcePath": "/home/asadullah/NftMarketPlace/contracts/common/NativeMetaTransaction.sol",
  "compiler": {
    "name": "solc",
    "version": "0.8.0+commit.c7dfd78e.Emscripten.clang"
  },
  "schemaVersion": "3.4.1",
  "updatedAt": "2021-10-16T14:55:32.716Z",
  "devdoc": {
    "kind": "dev",
    "methods": {},
    "version": 1
  },
  "userdoc": {
    "kind": "user",
    "methods": {},
    "version": 1
  }
}