{
  "contractName": "Nftescrow",
  "abi": [
    {
      "inputs": [],
      "stateMutability": "nonpayable",
      "type": "constructor"
    },
    {
      "inputs": [],
      "name": "buyerAddress",
      "outputs": [
        {
          "internalType": "address payable",
          "name": "",
          "type": "address"
        }
      ],
      "stateMutability": "view",
      "type": "function"
    },
    {
      "inputs": [],
      "name": "nftAddress",
      "outputs": [
        {
          "internalType": "address",
          "name": "",
          "type": "address"
        }
      ],
      "stateMutability": "view",
      "type": "function"
    },
    {
      "inputs": [],
      "name": "projectState",
      "outputs": [
        {
          "internalType": "enum Nftescrow.ProjectState",
          "name": "",
          "type": "uint8"
        }
      ],
      "stateMutability": "view",
      "type": "function"
    },
    {
      "inputs": [],
      "name": "sellerAddress",
      "outputs": [
        {
          "internalType": "address payable",
          "name": "",
          "type": "address"
        }
      ],
      "stateMutability": "view",
      "type": "function"
    },
    {
      "inputs": [
        {
          "internalType": "address",
          "name": "",
          "type": "address"
        },
        {
          "internalType": "address",
          "name": "",
          "type": "address"
        },
        {
          "internalType": "uint256",
          "name": "",
          "type": "uint256"
        },
        {
          "internalType": "bytes",
          "name": "",
          "type": "bytes"
        }
      ],
      "name": "onERC721Received",
      "outputs": [
        {
          "internalType": "bytes4",
          "name": "",
          "type": "bytes4"
        }
      ],
      "stateMutability": "pure",
      "type": "function"
    },
    {
      "inputs": [
        {
          "internalType": "address",
          "name": "_NFTAddress",
          "type": "address"
        },
        {
          "internalType": "uint256",
          "name": "_TokenID",
          "type": "uint256"
        }
      ],
      "name": "depositNFT",
      "outputs": [],
      "stateMutability": "nonpayable",
      "type": "function"
    },
    {
      "inputs": [],
      "name": "cancelAtNFT",
      "outputs": [],
      "stateMutability": "nonpayable",
      "type": "function"
    },
    {
      "inputs": [
        {
          "internalType": "bool",
          "name": "_state",
          "type": "bool"
        }
      ],
      "name": "cancelBeforeDelivery",
      "outputs": [],
      "stateMutability": "payable",
      "type": "function"
    },
    {
      "inputs": [],
      "name": "depositETH",
      "outputs": [],
      "stateMutability": "payable",
      "type": "function"
    },
    {
      "inputs": [],
      "name": "initiateDelivery",
      "outputs": [],
      "stateMutability": "nonpayable",
      "type": "function"
    },
    {
      "inputs": [],
      "name": "confirmDelivery",
      "outputs": [],
      "stateMutability": "payable",
      "type": "function"
    },
    {
      "inputs": [],
      "name": "getBalance",
      "outputs": [
        {
          "internalType": "uint256",
          "name": "balance",
          "type": "uint256"
        }
      ],
      "stateMutability": "view",
      "type": "function"
    }
  ],
  "bytecode": "0x60806040526000600460006101000a81548160ff0219169083151502179055506000600460016101000a81548160ff02191690831515021790555034801561004657600080fd5b50336000806101000a81548173ffffffffffffffffffffffffffffffffffffffff021916908373ffffffffffffffffffffffffffffffffffffffff1602179055506000600460026101000a81548160ff021916908360068111156100d3577f4e487b7100000000000000000000000000000000000000000000000000000000600052602160045260246000fd5b021790555061138d806100e76000396000f3fe6080604052600436106100a75760003560e01c80635bf8633a116100645780635bf8633a1461019d5780635e10177b146101c8578063748807ab146101d25780639b5b9b18146101fd578063a1ee418114610226578063f6326fb31461023d576100a7565b806312065fe0146100ac578063150b7a02146100d75780632f9fa7f614610114578063342901a71461012b5780633d9b2ae61461014757806344834aca14610172575b600080fd5b3480156100b857600080fd5b506100c1610247565b6040516100ce91906111d3565b60405180910390f35b3480156100e357600080fd5b506100fe60048036038101906100f99190610fba565b61024f565b60405161010b919061119d565b60405180910390f35b34801561012057600080fd5b50610129610264565b005b61014560048036038101906101409190611076565b610430565b005b34801561015357600080fd5b5061015c6107a7565b6040516101699190611114565b60405180910390f35b34801561017e57600080fd5b506101876107cb565b6040516101949190611114565b60405180910390f35b3480156101a957600080fd5b506101b26107f1565b6040516101bf91906110f9565b60405180910390f35b6101d0610817565b005b3480156101de57600080fd5b506101e7610a6e565b6040516101f491906111b8565b60405180910390f35b34801561020957600080fd5b50610224600480360381019061021f919061103a565b610a81565b005b34801561023257600080fd5b5061023b610c97565b005b610245610e0f565b005b600047905090565b600063150b7a0260e01b905095945050505050565b600180600681111561029f577f4e487b7100000000000000000000000000000000000000000000000000000000600052602160045260246000fd5b600460029054906101000a900460ff1660068111156102e7577f4e487b7100000000000000000000000000000000000000000000000000000000600052602160045260246000fd5b146102f157600080fd5b60008054906101000a900473ffffffffffffffffffffffffffffffffffffffff1673ffffffffffffffffffffffffffffffffffffffff163373ffffffffffffffffffffffffffffffffffffffff161461034957600080fd5b600260009054906101000a900473ffffffffffffffffffffffffffffffffffffffff1673ffffffffffffffffffffffffffffffffffffffff166342842e0e30336003546040518463ffffffff1660e01b81526004016103aa93929190611166565b600060405180830381600087803b1580156103c457600080fd5b505af11580156103d8573d6000803e3d6000fd5b505050506002600460026101000a81548160ff02191690836006811115610428577f4e487b7100000000000000000000000000000000000000000000000000000000600052602160045260246000fd5b021790555050565b600380600681111561046b577f4e487b7100000000000000000000000000000000000000000000000000000000600052602160045260246000fd5b600460029054906101000a900460ff1660068111156104b3577f4e487b7100000000000000000000000000000000000000000000000000000000600052602160045260246000fd5b146104bd57600080fd5b600160009054906101000a900473ffffffffffffffffffffffffffffffffffffffff1673ffffffffffffffffffffffffffffffffffffffff163373ffffffffffffffffffffffffffffffffffffffff161480610564575060008054906101000a900473ffffffffffffffffffffffffffffffffffffffff1673ffffffffffffffffffffffffffffffffffffffff163373ffffffffffffffffffffffffffffffffffffffff16145b61056d57600080fd5b60008054906101000a900473ffffffffffffffffffffffffffffffffffffffff1673ffffffffffffffffffffffffffffffffffffffff163373ffffffffffffffffffffffffffffffffffffffff1614156105e05781600460016101000a81548160ff0219169083151502179055506105fb565b81600460006101000a81548160ff0219169083151502179055505b60011515600460019054906101000a900460ff161515148015610631575060011515600460009054906101000a900460ff161515145b156107a357600260009054906101000a900473ffffffffffffffffffffffffffffffffffffffff1673ffffffffffffffffffffffffffffffffffffffff166342842e0e3060008054906101000a900473ffffffffffffffffffffffffffffffffffffffff166003546040518463ffffffff1660e01b81526004016106b79392919061112f565b600060405180830381600087803b1580156106d157600080fd5b505af11580156106e5573d6000803e3d6000fd5b50505050600160009054906101000a900473ffffffffffffffffffffffffffffffffffffffff1673ffffffffffffffffffffffffffffffffffffffff166108fc479081150290604051600060405180830381858888f19350505050158015610751573d6000803e3d6000fd5b5060048060026101000a81548160ff0219169083600681111561079d577f4e487b7100000000000000000000000000000000000000000000000000000000600052602160045260246000fd5b02179055505b5050565b60008054906101000a900473ffffffffffffffffffffffffffffffffffffffff1681565b600160009054906101000a900473ffffffffffffffffffffffffffffffffffffffff1681565b600260009054906101000a900473ffffffffffffffffffffffffffffffffffffffff1681565b6005806006811115610852577f4e487b7100000000000000000000000000000000000000000000000000000000600052602160045260246000fd5b600460029054906101000a900460ff16600681111561089a577f4e487b7100000000000000000000000000000000000000000000000000000000600052602160045260246000fd5b146108a457600080fd5b600160009054906101000a900473ffffffffffffffffffffffffffffffffffffffff1673ffffffffffffffffffffffffffffffffffffffff163373ffffffffffffffffffffffffffffffffffffffff16146108fe57600080fd5b600260009054906101000a900473ffffffffffffffffffffffffffffffffffffffff1673ffffffffffffffffffffffffffffffffffffffff166342842e0e30600160009054906101000a900473ffffffffffffffffffffffffffffffffffffffff166003546040518463ffffffff1660e01b81526004016109819392919061112f565b600060405180830381600087803b15801561099b57600080fd5b505af11580156109af573d6000803e3d6000fd5b5050505060008054906101000a900473ffffffffffffffffffffffffffffffffffffffff1673ffffffffffffffffffffffffffffffffffffffff166108fc479081150290604051600060405180830381858888f19350505050158015610a19573d6000803e3d6000fd5b506006600460026101000a81548160ff02191690836006811115610a66577f4e487b7100000000000000000000000000000000000000000000000000000000600052602160045260246000fd5b021790555050565b600460029054906101000a900460ff1681565b6000806006811115610abc577f4e487b7100000000000000000000000000000000000000000000000000000000600052602160045260246000fd5b600460029054906101000a900460ff166006811115610b04577f4e487b7100000000000000000000000000000000000000000000000000000000600052602160045260246000fd5b14610b0e57600080fd5b60008054906101000a900473ffffffffffffffffffffffffffffffffffffffff1673ffffffffffffffffffffffffffffffffffffffff163373ffffffffffffffffffffffffffffffffffffffff1614610b6657600080fd5b82600260006101000a81548173ffffffffffffffffffffffffffffffffffffffff021916908373ffffffffffffffffffffffffffffffffffffffff16021790555081600381905550600260009054906101000a900473ffffffffffffffffffffffffffffffffffffffff1673ffffffffffffffffffffffffffffffffffffffff166342842e0e33306003546040518463ffffffff1660e01b8152600401610c0f93929190611166565b600060405180830381600087803b158015610c2957600080fd5b505af1158015610c3d573d6000803e3d6000fd5b505050506001600460026101000a81548160ff02191690836006811115610c8d577f4e487b7100000000000000000000000000000000000000000000000000000000600052602160045260246000fd5b0217905550505050565b6003806006811115610cd2577f4e487b7100000000000000000000000000000000000000000000000000000000600052602160045260246000fd5b600460029054906101000a900460ff166006811115610d1a577f4e487b7100000000000000000000000000000000000000000000000000000000600052602160045260246000fd5b14610d2457600080fd5b60008054906101000a900473ffffffffffffffffffffffffffffffffffffffff1673ffffffffffffffffffffffffffffffffffffffff163373ffffffffffffffffffffffffffffffffffffffff1614610d7c57600080fd5b60001515600460009054906101000a900460ff161515148015610db2575060001515600460019054906101000a900460ff161515145b610dbb57600080fd5b6005600460026101000a81548160ff02191690836006811115610e07577f4e487b7100000000000000000000000000000000000000000000000000000000600052602160045260246000fd5b021790555050565b6001806006811115610e4a577f4e487b7100000000000000000000000000000000000000000000000000000000600052602160045260246000fd5b600460029054906101000a900460ff166006811115610e92577f4e487b7100000000000000000000000000000000000000000000000000000000600052602160045260246000fd5b14610e9c57600080fd5b33600160006101000a81548173ffffffffffffffffffffffffffffffffffffffff021916908373ffffffffffffffffffffffffffffffffffffffff1602179055506003600460026101000a81548160ff02191690836006811115610f29577f4e487b7100000000000000000000000000000000000000000000000000000000600052602160045260246000fd5b021790555050565b600081359050610f4081611312565b92915050565b600081359050610f5581611329565b92915050565b60008083601f840112610f6d57600080fd5b8235905067ffffffffffffffff811115610f8657600080fd5b602083019150836001820283011115610f9e57600080fd5b9250929050565b600081359050610fb481611340565b92915050565b600080600080600060808688031215610fd257600080fd5b6000610fe088828901610f31565b9550506020610ff188828901610f31565b945050604061100288828901610fa5565b935050606086013567ffffffffffffffff81111561101f57600080fd5b61102b88828901610f5b565b92509250509295509295909350565b6000806040838503121561104d57600080fd5b600061105b85828601610f31565b925050602061106c85828601610fa5565b9150509250929050565b60006020828403121561108857600080fd5b600061109684828501610f46565b91505092915050565b6110a881611287565b82525050565b6110b781611200565b82525050565b6110c6816111ee565b82525050565b6110d58161121e565b82525050565b6110e481611299565b82525050565b6110f38161127d565b82525050565b600060208201905061110e60008301846110bd565b92915050565b600060208201905061112960008301846110ae565b92915050565b600060608201905061114460008301866110bd565b611151602083018561109f565b61115e60408301846110ea565b949350505050565b600060608201905061117b60008301866110bd565b61118860208301856110bd565b61119560408301846110ea565b949350505050565b60006020820190506111b260008301846110cc565b92915050565b60006020820190506111cd60008301846110db565b92915050565b60006020820190506111e860008301846110ea565b92915050565b60006111f98261125d565b9050919050565b600061120b8261125d565b9050919050565b60008115159050919050565b60007fffffffff0000000000000000000000000000000000000000000000000000000082169050919050565b6000819050611258826112fe565b919050565b600073ffffffffffffffffffffffffffffffffffffffff82169050919050565b6000819050919050565b6000611292826112ab565b9050919050565b60006112a48261124a565b9050919050565b60006112b6826112bd565b9050919050565b60006112c88261125d565b9050919050565b7f4e487b7100000000000000000000000000000000000000000000000000000000600052602160045260246000fd5b6007811061130f5761130e6112cf565b5b50565b61131b816111ee565b811461132657600080fd5b50565b61133281611212565b811461133d57600080fd5b50565b6113498161127d565b811461135457600080fd5b5056fea2646970667358221220fcd1bfd371fda2168eed1309922aff314bdb3411d9319adb83726144c2aad05864736f6c63430008000033",
  "immutableReferences": {},
  "source": "/**\n * @file nftescrow.sol\n * @author Jackson Ng <jackson@jacksonng.org>\n * @date created 16th Sep 2021\n * @date last modified 18th Sep 2021\n */\n\n//SPDX-License-Identifier: MIT\n \npragma solidity ^0.8.0;\n\nimport \"@openzeppelin/contracts/token/ERC721/ERC721.sol\";\nimport \"@openzeppelin/contracts/token/ERC721/IERC721Receiver.sol\";\n\ncontract Nftescrow is IERC721Receiver {\n    \n    enum ProjectState {newEscrow, nftDeposited, cancelNFT, ethDeposited, canceledBeforeDelivery, deliveryInitiated, delivered}\n    \n    address payable public sellerAddress;\n    address payable public buyerAddress;\n    address public nftAddress;\n    uint256 tokenID;\n    bool buyerCancel = false;\n    bool sellerCancel = false;\n    ProjectState public projectState;\n\n    constructor()\n    {\n        sellerAddress = payable(msg.sender);\n        projectState = ProjectState.newEscrow;\n    }\n    \n    function onERC721Received( address, address, uint256, bytes calldata ) public pure override returns (bytes4) {\n        return this.onERC721Received.selector;\n    }\n    \n    function depositNFT(address _NFTAddress, uint256 _TokenID)\n        public\n        inProjectState(ProjectState.newEscrow)\n        onlySeller\n    {\n        nftAddress = _NFTAddress;\n        tokenID = _TokenID;\n        ERC721(nftAddress).safeTransferFrom(msg.sender, address(this), tokenID);\n        projectState = ProjectState.nftDeposited;\n    }\n    \n    function cancelAtNFT()\n        public\n        inProjectState(ProjectState.nftDeposited)\n        onlySeller\n    {\n        ERC721(nftAddress).safeTransferFrom(address(this), msg.sender, tokenID);\n        projectState = ProjectState.cancelNFT;\n    }\n  \n    function cancelBeforeDelivery(bool _state)\n        public\n        inProjectState(ProjectState.ethDeposited)\n        payable\n        BuyerOrSeller\n    {\n        if (msg.sender == sellerAddress){\n            sellerCancel = _state;\n        }\n        else{\n            buyerCancel = _state;\n        }\n        \n        if (sellerCancel == true && buyerCancel == true){\n            ERC721(nftAddress).safeTransferFrom(address(this), sellerAddress, tokenID);\n            buyerAddress.transfer(address(this).balance);\n            projectState = ProjectState.canceledBeforeDelivery;     \n        }\n    }\n    \n    function depositETH()\n        public\n        payable\n        inProjectState(ProjectState.nftDeposited)\n    {\n        buyerAddress = payable(msg.sender);\n        projectState = ProjectState.ethDeposited;\n    }\n    \n    function initiateDelivery()\n        public\n        inProjectState(ProjectState.ethDeposited)\n        onlySeller\n        noDispute\n    {\n        projectState = ProjectState.deliveryInitiated;\n    }        \n    \n    function confirmDelivery()\n        public\n        payable\n        inProjectState(ProjectState.deliveryInitiated)\n        onlyBuyer\n    {\n        ERC721(nftAddress).safeTransferFrom(address(this), buyerAddress, tokenID);\n        sellerAddress.transfer(address(this).balance);\n        projectState = ProjectState.delivered;\n    }\n        \n   \tmodifier condition(bool _condition) {\n\t\trequire(_condition);\n\t\t_;\n\t}\n\n\tmodifier onlySeller() {\n\t\trequire(msg.sender == sellerAddress);\n\t\t_;\n\t}\n\n\tmodifier onlyBuyer() {\n\t\trequire(msg.sender == buyerAddress);\n\t\t_;\n\t}\n\t\n\tmodifier noDispute(){\n\t    require(buyerCancel == false && sellerCancel == false);\n\t    _;\n\t}\n\t\n\tmodifier BuyerOrSeller() {\n\t\trequire(msg.sender == buyerAddress || msg.sender == sellerAddress);\n\t\t_;\n\t}\n\t\n\tmodifier inProjectState(ProjectState _state) {\n\t\trequire(projectState == _state);\n\t\t_;\n\t}\n\n    function getBalance()\n        public\n        view\n        returns (uint256 balance)\n    {\n        return address(this).balance;\n    }\n} ",
  "sourcePath": "/home/asadullah/NftMarketPlace/contracts/Nftescrow.sol",
  "compiler": {
    "name": "solc",
    "version": "0.8.0+commit.c7dfd78e.Emscripten.clang"
  },
  "schemaVersion": "3.4.1",
  "updatedAt": "2021-10-16T14:55:32.699Z",
  "devdoc": {
    "kind": "dev",
    "methods": {},
    "version": 1
  },
  "userdoc": {
    "kind": "user",
    "methods": {},
    "version": 1
  }
}