{
  "contractName": "NFTMarket",
  "abi": [
    {
      "inputs": [
        {
          "internalType": "address",
          "name": "_nftToken",
          "type": "address"
        }
      ],
      "stateMutability": "nonpayable",
      "type": "constructor"
    },
    {
      "anonymous": false,
      "inputs": [
        {
          "indexed": true,
          "internalType": "uint256",
          "name": "itemId",
          "type": "uint256"
        },
        {
          "indexed": true,
          "internalType": "uint256",
          "name": "tokenId",
          "type": "uint256"
        },
        {
          "indexed": false,
          "internalType": "uint256",
          "name": "price",
          "type": "uint256"
        },
        {
          "indexed": false,
          "internalType": "address",
          "name": "seller",
          "type": "address"
        },
        {
          "indexed": false,
          "internalType": "address",
          "name": "owner",
          "type": "address"
        },
        {
          "indexed": false,
          "internalType": "bool",
          "name": "sold",
          "type": "bool"
        }
      ],
      "name": "MarketItemCreated",
      "type": "event"
    },
    {
      "inputs": [
        {
          "internalType": "uint256",
          "name": "tokenId",
          "type": "uint256"
        },
        {
          "internalType": "uint256",
          "name": "price",
          "type": "uint256"
        }
      ],
      "name": "listItem",
      "outputs": [],
      "stateMutability": "nonpayable",
      "type": "function"
    },
    {
      "inputs": [],
      "name": "getListing",
      "outputs": [
        {
          "components": [
            {
              "internalType": "uint256",
              "name": "itemId",
              "type": "uint256"
            },
            {
              "internalType": "uint256",
              "name": "tokenId",
              "type": "uint256"
            },
            {
              "internalType": "uint256",
              "name": "price",
              "type": "uint256"
            },
            {
              "internalType": "address payable",
              "name": "seller",
              "type": "address"
            },
            {
              "internalType": "address payable",
              "name": "owner",
              "type": "address"
            },
            {
              "internalType": "bool",
              "name": "forSale",
              "type": "bool"
            }
          ],
          "internalType": "struct NFTMarket.MarketItem[]",
          "name": "",
          "type": "tuple[]"
        }
      ],
      "stateMutability": "view",
      "type": "function"
    },
    {
      "inputs": [
        {
          "internalType": "uint256",
          "name": "_itemId",
          "type": "uint256"
        }
      ],
      "name": "unList",
      "outputs": [],
      "stateMutability": "nonpayable",
      "type": "function"
    },
    {
      "inputs": [
        {
          "internalType": "uint256",
          "name": "_itemId",
          "type": "uint256"
        }
      ],
      "name": "buyNft",
      "outputs": [],
      "stateMutability": "payable",
      "type": "function"
    },
    {
      "inputs": [
        {
          "internalType": "uint256",
          "name": "_tokenId",
          "type": "uint256"
        },
        {
          "internalType": "uint256",
          "name": "_newPrice",
          "type": "uint256"
        }
      ],
      "name": "changeTokenPrice",
      "outputs": [],
      "stateMutability": "nonpayable",
      "type": "function"
    }
  ],
  "bytecode": "0x608060405260006002553480156200001657600080fd5b50604051620016013803806200160183398181016040528101906200003c9190620000e4565b600160008190555080600460006101000a81548173ffffffffffffffffffffffffffffffffffffffff021916908373ffffffffffffffffffffffffffffffffffffffff16021790555033600360006101000a81548173ffffffffffffffffffffffffffffffffffffffff021916908373ffffffffffffffffffffffffffffffffffffffff160217905550506200015e565b600081519050620000de8162000144565b92915050565b600060208284031215620000f757600080fd5b60006200010784828501620000cd565b91505092915050565b60006200011d8262000124565b9050919050565b600073ffffffffffffffffffffffffffffffffffffffff82169050919050565b6200014f8162000110565b81146200015b57600080fd5b50565b611493806200016e6000396000f3fe60806040526004361061004a5760003560e01c80630ff41c581461004f578063243adbdd1461007857806362e8e8ac14610094578063883efa67146100bd578063e0a41cf2146100e6575b600080fd5b34801561005b57600080fd5b5061007660048036038101906100719190610dd5565b610111565b005b610092600480360381019061008d9190610dd5565b6101a4565b005b3480156100a057600080fd5b506100bb60048036038101906100b69190610dfe565b61062b565b005b3480156100c957600080fd5b506100e460048036038101906100df9190610dfe565b61090e565b005b3480156100f257600080fd5b506100fb610ac3565b6040516101089190611171565b60405180910390f35b60056000828152602001908152602001600020600080820160009055600182016000905560028201600090556003820160006101000a81549073ffffffffffffffffffffffffffffffffffffffff02191690556004820160006101000a81549073ffffffffffffffffffffffffffffffffffffffff02191690556004820160146101000a81549060ff0219169055505050565b600073ffffffffffffffffffffffffffffffffffffffff163373ffffffffffffffffffffffffffffffffffffffff161415610214576040517f08c379a000000000000000000000000000000000000000000000000000000000815260040161020b90611193565b60405180910390fd5b60006005600083815260200190815260200160002090506000600460009054906101000a900473ffffffffffffffffffffffffffffffffffffffff1673ffffffffffffffffffffffffffffffffffffffff16636352211e83600101546040518263ffffffff1660e01b815260040161028c9190611253565b60206040518083038186803b1580156102a457600080fd5b505afa1580156102b8573d6000803e3d6000fd5b505050506040513d601f19601f820116820180604052508101906102dc9190610dac565b905081600201543414610324576040517f08c379a000000000000000000000000000000000000000000000000000000000815260040161031b90611213565b60405180910390fd5b600073ffffffffffffffffffffffffffffffffffffffff168173ffffffffffffffffffffffffffffffffffffffff161415610394576040517f08c379a000000000000000000000000000000000000000000000000000000000815260040161038b906111b3565b60405180910390fd5b3373ffffffffffffffffffffffffffffffffffffffff168173ffffffffffffffffffffffffffffffffffffffff161415610403576040517f08c379a00000000000000000000000000000000000000000000000000000000081526004016103fa90611233565b60405180910390fd5b8160040160149054906101000a900460ff16610454576040517f08c379a000000000000000000000000000000000000000000000000000000000815260040161044b906111f3565b60405180910390fd5b600460009054906101000a900473ffffffffffffffffffffffffffffffffffffffff1673ffffffffffffffffffffffffffffffffffffffff166323b872dd8360030160009054906101000a900473ffffffffffffffffffffffffffffffffffffffff163385600101546040518463ffffffff1660e01b81526004016104db9392919061113a565b600060405180830381600087803b1580156104f557600080fd5b505af1158015610509573d6000803e3d6000fd5b5050505060008260040160009054906101000a900473ffffffffffffffffffffffffffffffffffffffff1690508073ffffffffffffffffffffffffffffffffffffffff166108fc349081150290604051600060405180830381858888f1935050505015801561057c573d6000803e3d6000fd5b5060056000858152602001908152602001600020600080820160009055600182016000905560028201600090556003820160006101000a81549073ffffffffffffffffffffffffffffffffffffffff02191690556004820160006101000a81549073ffffffffffffffffffffffffffffffffffffffff02191690556004820160146101000a81549060ff02191690555050600260008154809291906106209061138d565b919050555050505050565b600073ffffffffffffffffffffffffffffffffffffffff163373ffffffffffffffffffffffffffffffffffffffff16141561069b576040517f08c379a0000000000000000000000000000000000000000000000000000000008152600401610692906111b3565b60405180910390fd5b60006005600084815260200190815260200160002090508181600201819055506000600460009054906101000a900473ffffffffffffffffffffffffffffffffffffffff1673ffffffffffffffffffffffffffffffffffffffff16636352211e856040518263ffffffff1660e01b81526004016107189190611253565b60206040518083038186803b15801561073057600080fd5b505afa158015610744573d6000803e3d6000fd5b505050506040513d601f19601f820116820180604052508101906107689190610dac565b90503373ffffffffffffffffffffffffffffffffffffffff168173ffffffffffffffffffffffffffffffffffffffff16146107d8576040517f08c379a00000000000000000000000000000000000000000000000000000000081526004016107cf906111d3565b60405180910390fd5b81600560008681526020019081526020016000206000820154816000015560018201548160010155600282015481600201556003820160009054906101000a900473ffffffffffffffffffffffffffffffffffffffff168160030160006101000a81548173ffffffffffffffffffffffffffffffffffffffff021916908373ffffffffffffffffffffffffffffffffffffffff1602179055506004820160009054906101000a900473ffffffffffffffffffffffffffffffffffffffff168160040160006101000a81548173ffffffffffffffffffffffffffffffffffffffff021916908373ffffffffffffffffffffffffffffffffffffffff1602179055506004820160149054906101000a900460ff168160040160146101000a81548160ff02191690831515021790555090505050505050565b600061091a6001610cfa565b90506040518060c001604052808281526020018481526020018381526020013373ffffffffffffffffffffffffffffffffffffffff168152602001600073ffffffffffffffffffffffffffffffffffffffff168152602001600115158152506005600083815260200190815260200160002060008201518160000155602082015181600101556040820151816002015560608201518160030160006101000a81548173ffffffffffffffffffffffffffffffffffffffff021916908373ffffffffffffffffffffffffffffffffffffffff16021790555060808201518160040160006101000a81548173ffffffffffffffffffffffffffffffffffffffff021916908373ffffffffffffffffffffffffffffffffffffffff16021790555060a08201518160040160146101000a81548160ff02191690831515021790555090505082817f5ab0b220ba26ab809688843f0b5a9a139e4b6f7dc011dca075edc1b9104e32b5843360006001604051610a94949392919061126e565b60405180910390a3610aa66001610d08565b60026000815480929190610ab9906113b7565b9190505550505050565b6060600060025467ffffffffffffffff811115610b09577f4e487b7100000000000000000000000000000000000000000000000000000000600052604160045260246000fd5b604051908082528060200260200182016040528015610b4257816020015b610b2f610d1e565b815260200190600190039081610b275790505b50905060006002541415610b595780915050610cf7565b60005b600254811015610cf157600115156005600083815260200190815260200160002060040160149054906101000a900460ff1615151415610cde57600560008281526020019081526020016000206040518060c00160405290816000820154815260200160018201548152602001600282015481526020016003820160009054906101000a900473ffffffffffffffffffffffffffffffffffffffff1673ffffffffffffffffffffffffffffffffffffffff1673ffffffffffffffffffffffffffffffffffffffff1681526020016004820160009054906101000a900473ffffffffffffffffffffffffffffffffffffffff1673ffffffffffffffffffffffffffffffffffffffff1673ffffffffffffffffffffffffffffffffffffffff1681526020016004820160149054906101000a900460ff161515151581525050828281518110610cd2577f4e487b7100000000000000000000000000000000000000000000000000000000600052603260045260246000fd5b60200260200101819052505b8080610ce9906113b7565b915050610b5c565b50809150505b90565b600081600001549050919050565b6001816000016000828254019250508190555050565b6040518060c00160405280600081526020016000815260200160008152602001600073ffffffffffffffffffffffffffffffffffffffff168152602001600073ffffffffffffffffffffffffffffffffffffffff1681526020016000151581525090565b600081519050610d918161142f565b92915050565b600081359050610da681611446565b92915050565b600060208284031215610dbe57600080fd5b6000610dcc84828501610d82565b91505092915050565b600060208284031215610de757600080fd5b6000610df584828501610d97565b91505092915050565b60008060408385031215610e1157600080fd5b6000610e1f85828601610d97565b9250506020610e3085828601610d97565b9150509250929050565b6000610e4683836110a1565b60c08301905092915050565b610e5b81611357565b82525050565b610e6a8161130f565b82525050565b610e79816112fd565b82525050565b6000610e8a826112c3565b610e9481856112db565b9350610e9f836112b3565b8060005b83811015610ed0578151610eb78882610e3a565b9750610ec2836112ce565b925050600181019050610ea3565b5085935050505092915050565b610ee681611321565b82525050565b610ef581611321565b82525050565b6000610f08601a836112ec565b91507f616464726573732073686f756c64206e6f74206265207a65726f0000000000006000830152602082019050919050565b6000610f48601a836112ec565b91507f73686f756c64206e6f74206265207a65726f20616464726573730000000000006000830152602082019050919050565b6000610f886016836112ec565b91507f63616c6c65722073686f756c64206265206f776e6572000000000000000000006000830152602082019050919050565b6000610fc8600c836112ec565b91507f6e6f7420666f722073616c6500000000000000000000000000000000000000006000830152602082019050919050565b60006110086025836112ec565b91507f616d6f756e74206e6f74206e6f7420657175616c20746f206c697374696e672060008301527f70726963650000000000000000000000000000000000000000000000000000006020830152604082019050919050565b600061106e6009836112ec565b91507f6e6f74206f776e657200000000000000000000000000000000000000000000006000830152602082019050919050565b60c0820160008201516110b7600085018261111c565b5060208201516110ca602085018261111c565b5060408201516110dd604085018261111c565b5060608201516110f06060850182610e61565b5060808201516111036080850182610e61565b5060a082015161111660a0850182610edd565b50505050565b6111258161134d565b82525050565b6111348161134d565b82525050565b600060608201905061114f6000830186610e52565b61115c6020830185610e70565b611169604083018461112b565b949350505050565b6000602082019050818103600083015261118b8184610e7f565b905092915050565b600060208201905081810360008301526111ac81610efb565b9050919050565b600060208201905081810360008301526111cc81610f3b565b9050919050565b600060208201905081810360008301526111ec81610f7b565b9050919050565b6000602082019050818103600083015261120c81610fbb565b9050919050565b6000602082019050818103600083015261122c81610ffb565b9050919050565b6000602082019050818103600083015261124c81611061565b9050919050565b6000602082019050611268600083018461112b565b92915050565b6000608082019050611283600083018761112b565b6112906020830186610e70565b61129d6040830185610e70565b6112aa6060830184610eec565b95945050505050565b6000819050602082019050919050565b600081519050919050565b6000602082019050919050565b600082825260208201905092915050565b600082825260208201905092915050565b60006113088261132d565b9050919050565b600061131a8261132d565b9050919050565b60008115159050919050565b600073ffffffffffffffffffffffffffffffffffffffff82169050919050565b6000819050919050565b600061136282611369565b9050919050565b60006113748261137b565b9050919050565b60006113868261132d565b9050919050565b60006113988261134d565b915060008214156113ac576113ab611400565b5b600182039050919050565b60006113c28261134d565b91507fffffffffffffffffffffffffffffffffffffffffffffffffffffffffffffffff8214156113f5576113f4611400565b5b600182019050919050565b7f4e487b7100000000000000000000000000000000000000000000000000000000600052601160045260246000fd5b611438816112fd565b811461144357600080fd5b50565b61144f8161134d565b811461145a57600080fd5b5056fea2646970667358221220ba25b57af46eff22b27c77d18ca0da07023b364bd1f50fabac55b7d512bae59964736f6c63430008000033",
  "immutableReferences": {},
  "source": "//SPDX-License-Identifier: un-licence\npragma solidity ^0.8.0;\n\nimport \"@openzeppelin/contracts/utils/Counters.sol\";\nimport \"@openzeppelin/contracts/security/ReentrancyGuard.sol\";\nimport \"@openzeppelin/contracts/token/ERC721/IERC721.sol\";\n\ncontract NFTMarket is ReentrancyGuard {\n    using Counters for Counters.Counter;\n    Counters.Counter private _itemIds;\n    uint256 private counter = 0;\n\n    address payable owner;\n    IERC721 private token;\n\n    constructor(address _nftToken) {\n        token = IERC721(_nftToken);\n        owner = payable(msg.sender);\n    }\n\n    struct MarketItem {\n        uint256 itemId;\n        uint256 tokenId;\n        uint256 price;\n        address payable seller;\n        address payable owner;\n        bool forSale;\n    }\n\n    mapping(uint256 => MarketItem) private idToMarketItem;\n\n    event MarketItemCreated(\n        uint256 indexed itemId,\n        uint256 indexed tokenId,\n        uint256 price,\n        address seller,\n        address owner,\n        bool sold\n    );\n\n    function listItem(uint256 tokenId, uint256 price) public {\n        uint256 itemId = _itemIds.current();\n\n        idToMarketItem[itemId] = MarketItem(\n            itemId,\n            tokenId,\n            price,\n            payable(msg.sender),\n            payable(address(0)),\n            true\n        );\n\n        emit MarketItemCreated(\n            itemId,\n            tokenId,\n            price,\n            msg.sender,\n            address(0),\n            true\n        );\n        _itemIds.increment();\n\n        counter++;\n    }\n\n    function getListing() public view returns (MarketItem[] memory) {\n        MarketItem[] memory listedItems = new MarketItem[](counter);\n        if (counter == 0) {\n            return listedItems;\n        }\n        for (uint256 i = 0; i < counter; i++) {\n            if (idToMarketItem[i].forSale == true) {\n                listedItems[i] = idToMarketItem[i];\n            }\n        }\n        return listedItems;\n    }\n\n    function unList(uint256 _itemId) public {\n        delete idToMarketItem[_itemId];\n    }\n\n    function buyNft(uint256 _itemId) public payable {\n        require(msg.sender != address(0), \"address should not be zero\");\n\n        MarketItem storage market = idToMarketItem[_itemId];\n\n        address tokenOwner = IERC721(token).ownerOf(\n            market.tokenId\n        );\n\n        require(\n            msg.value == market.price,\n            \"amount not not equal to listing price\"\n        );\n\n        require(tokenOwner != address(0), \"should not be zero address\");\n\n        require(tokenOwner != msg.sender, \"not owner\");\n\n        require(market.forSale, \"not for sale\");\n\n        IERC721(token).transferFrom(\n            market.seller,\n            msg.sender,\n            market.tokenId\n        );\n\n        address payable sendTo = market.owner;\n\n        payable(sendTo).transfer(msg.value);\n\n        delete idToMarketItem[_itemId];\n\n        counter--;\n    }\n\n    function changeTokenPrice(uint256 _tokenId, uint256 _newPrice) public {\n        require(msg.sender != address(0), \"should not be zero address\");\n\n        MarketItem storage market = idToMarketItem[_tokenId];\n\n        market.price = _newPrice;\n\n        address tokenOwner = IERC721(token).ownerOf(_tokenId);\n\n        require(tokenOwner == msg.sender, \"caller should be owner\");\n\n        idToMarketItem[_tokenId] = market;\n    }\n}\n",
  "sourcePath": "/home/asadullah/NftMarketPlace/contracts/MarketPlace.sol",
  "compiler": {
    "name": "solc",
    "version": "0.8.0+commit.c7dfd78e.Emscripten.clang"
  },
  "schemaVersion": "3.4.1",
  "updatedAt": "2021-10-16T14:56:53.530Z",
  "devdoc": {
    "kind": "dev",
    "methods": {},
    "version": 1
  },
  "userdoc": {
    "kind": "user",
    "methods": {},
    "version": 1
  }
}