{
  "contractName": "NFTMarket",
  "abi": [
    {
      "inputs": [],
      "stateMutability": "nonpayable",
      "type": "constructor"
    },
    {
      "anonymous": false,
      "inputs": [
        {
          "indexed": true,
          "internalType": "uint256",
          "name": "itemId",
          "type": "uint256"
        },
        {
          "indexed": true,
          "internalType": "address",
          "name": "nftContract",
          "type": "address"
        },
        {
          "indexed": true,
          "internalType": "uint256",
          "name": "tokenId",
          "type": "uint256"
        },
        {
          "indexed": false,
          "internalType": "uint256",
          "name": "price",
          "type": "uint256"
        },
        {
          "indexed": false,
          "internalType": "address",
          "name": "seller",
          "type": "address"
        },
        {
          "indexed": false,
          "internalType": "address",
          "name": "owner",
          "type": "address"
        },
        {
          "indexed": false,
          "internalType": "bool",
          "name": "sold",
          "type": "bool"
        }
      ],
      "name": "MarketItemCreated",
      "type": "event"
    },
    {
      "inputs": [
        {
          "internalType": "address",
          "name": "nftContract",
          "type": "address"
        },
        {
          "internalType": "uint256",
          "name": "tokenId",
          "type": "uint256"
        },
        {
          "internalType": "uint256",
          "name": "price",
          "type": "uint256"
        }
      ],
      "name": "listItem",
      "outputs": [],
      "stateMutability": "nonpayable",
      "type": "function"
    },
    {
      "inputs": [
        {
          "internalType": "uint256",
          "name": "_tokenId",
          "type": "uint256"
        }
      ],
      "name": "buyNft",
      "outputs": [],
      "stateMutability": "payable",
      "type": "function"
    },
    {
      "inputs": [
        {
          "internalType": "uint256",
          "name": "_tokenId",
          "type": "uint256"
        },
        {
          "internalType": "uint256",
          "name": "_newPrice",
          "type": "uint256"
        }
      ],
      "name": "changeTokenPrice",
      "outputs": [],
      "stateMutability": "nonpayable",
      "type": "function"
    }
  ],
  "bytecode": "0x608060405234801561001057600080fd5b50600160008190555033600360006101000a81548173ffffffffffffffffffffffffffffffffffffffff021916908373ffffffffffffffffffffffffffffffffffffffff160217905550610fa0806100696000396000f3fe6080604052600436106100345760003560e01c8063243adbdd1461003957806362e8e8ac1461005557806389bfd38f1461007e575b600080fd5b610053600480360381019061004e9190610b54565b6100a7565b005b34801561006157600080fd5b5061007c60048036038101906100779190610b7d565b610515565b005b34801561008a57600080fd5b506100a560048036038101906100a09190610b05565b610861565b005b600073ffffffffffffffffffffffffffffffffffffffff163373ffffffffffffffffffffffffffffffffffffffff161415610117576040517f08c379a000000000000000000000000000000000000000000000000000000000815260040161010e90610dc3565b60405180910390fd5b600060046000838152602001908152602001600020905060008160010160009054906101000a900473ffffffffffffffffffffffffffffffffffffffff1673ffffffffffffffffffffffffffffffffffffffff16636352211e846040518263ffffffff1660e01b815260040161018d9190610e83565b60206040518083038186803b1580156101a557600080fd5b505afa1580156101b9573d6000803e3d6000fd5b505050506040513d601f19601f820116820180604052508101906101dd9190610adc565b905081600301543414610225576040517f08c379a000000000000000000000000000000000000000000000000000000000815260040161021c90610e43565b60405180910390fd5b600073ffffffffffffffffffffffffffffffffffffffff168173ffffffffffffffffffffffffffffffffffffffff161415610295576040517f08c379a000000000000000000000000000000000000000000000000000000000815260040161028c90610de3565b60405180910390fd5b3373ffffffffffffffffffffffffffffffffffffffff168173ffffffffffffffffffffffffffffffffffffffff161415610304576040517f08c379a00000000000000000000000000000000000000000000000000000000081526004016102fb90610e63565b60405180910390fd5b8160050160149054906101000a900460ff16610355576040517f08c379a000000000000000000000000000000000000000000000000000000000815260040161034c90610e23565b60405180910390fd5b8160010160009054906101000a900473ffffffffffffffffffffffffffffffffffffffff1673ffffffffffffffffffffffffffffffffffffffff166323b872dd8233866040518463ffffffff1660e01b81526004016103b693929190610d8c565b600060405180830381600087803b1580156103d057600080fd5b505af11580156103e4573d6000803e3d6000fd5b5050505060008260050160009054906101000a900473ffffffffffffffffffffffffffffffffffffffff1690508073ffffffffffffffffffffffffffffffffffffffff166108fc349081150290604051600060405180830381858888f19350505050158015610457573d6000803e3d6000fd5b50600460008581526020019081526020016000206000808201600090556001820160006101000a81549073ffffffffffffffffffffffffffffffffffffffff0219169055600282016000905560038201600090556004820160006101000a81549073ffffffffffffffffffffffffffffffffffffffff02191690556005820160006101000a81549073ffffffffffffffffffffffffffffffffffffffff02191690556005820160146101000a81549060ff0219169055505050505050565b600073ffffffffffffffffffffffffffffffffffffffff163373ffffffffffffffffffffffffffffffffffffffff161415610585576040517f08c379a000000000000000000000000000000000000000000000000000000000815260040161057c90610de3565b60405180910390fd5b600060046000848152602001908152602001600020905081816003018190555060008160010160009054906101000a900473ffffffffffffffffffffffffffffffffffffffff1673ffffffffffffffffffffffffffffffffffffffff16636352211e856040518263ffffffff1660e01b81526004016106049190610e83565b60206040518083038186803b15801561061c57600080fd5b505afa158015610630573d6000803e3d6000fd5b505050506040513d601f19601f820116820180604052508101906106549190610adc565b90503373ffffffffffffffffffffffffffffffffffffffff168173ffffffffffffffffffffffffffffffffffffffff16146106c4576040517f08c379a00000000000000000000000000000000000000000000000000000000081526004016106bb90610e03565b60405180910390fd5b8160046000868152602001908152602001600020600082015481600001556001820160009054906101000a900473ffffffffffffffffffffffffffffffffffffffff168160010160006101000a81548173ffffffffffffffffffffffffffffffffffffffff021916908373ffffffffffffffffffffffffffffffffffffffff16021790555060028201548160020155600382015481600301556004820160009054906101000a900473ffffffffffffffffffffffffffffffffffffffff168160040160006101000a81548173ffffffffffffffffffffffffffffffffffffffff021916908373ffffffffffffffffffffffffffffffffffffffff1602179055506005820160009054906101000a900473ffffffffffffffffffffffffffffffffffffffff168160050160006101000a81548173ffffffffffffffffffffffffffffffffffffffff021916908373ffffffffffffffffffffffffffffffffffffffff1602179055506005820160149054906101000a900460ff168160050160146101000a81548160ff02191690831515021790555090505050505050565b61086b6001610a79565b60006108776001610a8f565b90506040518060e001604052808281526020018573ffffffffffffffffffffffffffffffffffffffff1681526020018481526020018381526020013373ffffffffffffffffffffffffffffffffffffffff168152602001600073ffffffffffffffffffffffffffffffffffffffff16815260200160011515815250600460008381526020019081526020016000206000820151816000015560208201518160010160006101000a81548173ffffffffffffffffffffffffffffffffffffffff021916908373ffffffffffffffffffffffffffffffffffffffff160217905550604082015181600201556060820151816003015560808201518160040160006101000a81548173ffffffffffffffffffffffffffffffffffffffff021916908373ffffffffffffffffffffffffffffffffffffffff16021790555060a08201518160050160006101000a81548173ffffffffffffffffffffffffffffffffffffffff021916908373ffffffffffffffffffffffffffffffffffffffff16021790555060c08201518160050160146101000a81548160ff021916908315150217905550905050828473ffffffffffffffffffffffffffffffffffffffff16827fe05c7cbda6de29554fe7b8027bc0a09583ee066fb1f7c81c5a4432280747328f853360006001604051610a6b9493929190610e9e565b60405180910390a450505050565b6001816000016000828254019250508190555050565b600081600001549050919050565b600081359050610aac81610f3c565b92915050565b600081519050610ac181610f3c565b92915050565b600081359050610ad681610f53565b92915050565b600060208284031215610aee57600080fd5b6000610afc84828501610ab2565b91505092915050565b600080600060608486031215610b1a57600080fd5b6000610b2886828701610a9d565b9350506020610b3986828701610ac7565b9250506040610b4a86828701610ac7565b9150509250925092565b600060208284031215610b6657600080fd5b6000610b7484828501610ac7565b91505092915050565b60008060408385031215610b9057600080fd5b6000610b9e85828601610ac7565b9250506020610baf85828601610ac7565b9150509250929050565b610bc281610ef4565b82525050565b610bd181610f06565b82525050565b6000610be4601a83610ee3565b91507f616464726573732073686f756c64206e6f74206265207a65726f0000000000006000830152602082019050919050565b6000610c24601a83610ee3565b91507f73686f756c64206e6f74206265207a65726f20616464726573730000000000006000830152602082019050919050565b6000610c64601683610ee3565b91507f63616c6c65722073686f756c64206265206f776e6572000000000000000000006000830152602082019050919050565b6000610ca4600c83610ee3565b91507f6e6f7420666f722073616c6500000000000000000000000000000000000000006000830152602082019050919050565b6000610ce4602583610ee3565b91507f616d6f756e74206e6f74206e6f7420657175616c20746f206c697374696e672060008301527f70726963650000000000000000000000000000000000000000000000000000006020830152604082019050919050565b6000610d4a600983610ee3565b91507f6e6f74206f776e657200000000000000000000000000000000000000000000006000830152602082019050919050565b610d8681610f32565b82525050565b6000606082019050610da16000830186610bb9565b610dae6020830185610bb9565b610dbb6040830184610d7d565b949350505050565b60006020820190508181036000830152610ddc81610bd7565b9050919050565b60006020820190508181036000830152610dfc81610c17565b9050919050565b60006020820190508181036000830152610e1c81610c57565b9050919050565b60006020820190508181036000830152610e3c81610c97565b9050919050565b60006020820190508181036000830152610e5c81610cd7565b9050919050565b60006020820190508181036000830152610e7c81610d3d565b9050919050565b6000602082019050610e986000830184610d7d565b92915050565b6000608082019050610eb36000830187610d7d565b610ec06020830186610bb9565b610ecd6040830185610bb9565b610eda6060830184610bc8565b95945050505050565b600082825260208201905092915050565b6000610eff82610f12565b9050919050565b60008115159050919050565b600073ffffffffffffffffffffffffffffffffffffffff82169050919050565b6000819050919050565b610f4581610ef4565b8114610f5057600080fd5b50565b610f5c81610f32565b8114610f6757600080fd5b5056fea26469706673582212203fde42b5445dab5e182f55327d909b792257a6ef33f8105038a7afedf424512f64736f6c63430008000033",
  "immutableReferences": {},
  "source": "pragma solidity ^0.8.0;\r\n\r\nimport \"@openzeppelin/contracts/utils/Counters.sol\";\r\nimport \"@openzeppelin/contracts/security/ReentrancyGuard.sol\";\r\nimport \"@openzeppelin/contracts/token/ERC721/IERC721.sol\";\r\nimport \"@openzeppelin/contracts/token/ERC721/ERC721.sol\";\r\n\r\n\r\n\r\ncontract NFTMarket is ReentrancyGuard {\r\n  using Counters for Counters.Counter;\r\n  Counters.Counter private _itemIds;\r\n  Counters.Counter private _itemsSold;\r\n\r\n  address payable owner;\r\n\r\n  constructor() {\r\n    owner = payable(msg.sender);\r\n  }\r\n\r\n  struct MarketItem {\r\n    uint itemId;\r\n    address nftContract;\r\n    uint256 tokenId;\r\n    uint256 price;\r\n    address payable seller;\r\n    address payable owner;\r\n    bool forSale;\r\n  }\r\n\r\n\r\n  mapping(uint256 => MarketItem) private idToMarketItem;\r\n\r\n\r\n  event MarketItemCreated ( uint indexed itemId,address indexed nftContract,uint256 indexed tokenId,uint256 price,address seller,address owner,bool sold\r\n  );\r\n  \r\n  \r\n  \r\n   function listItem(\r\n    address nftContract,\r\n    uint256 tokenId,\r\n    uint256 price\r\n  ) public {\r\n\r\n\r\n    _itemIds.increment();\r\n    uint256 itemId = _itemIds.current();\r\n  \r\n    idToMarketItem[itemId] =  MarketItem(\r\n      itemId,\r\n      nftContract,\r\n      tokenId,\r\n      price,\r\n      payable(msg.sender),\r\n      payable(address(0)),\r\n      true\r\n    );\r\n      emit MarketItemCreated(\r\n      itemId,\r\n      nftContract,\r\n      tokenId,\r\n      price,\r\n      msg.sender,\r\n      address(0),\r\n      true\r\n    );\r\n  }\r\n  \r\n\r\n  \r\n \r\n  function buyNft(uint256 _tokenId) public payable {\r\n     \r\n  \r\n    require(msg.sender != address(0), \"address should not be zero\");\r\n   \r\n    \r\n    \r\n    MarketItem storage market = idToMarketItem[_tokenId];\r\n  \r\n    address tokenOwner = IERC721(market.nftContract).ownerOf(_tokenId);\r\n    \r\n    require(msg.value == market.price , \"amount not not equal to listing price\");\r\n\r\n    require(tokenOwner != address(0), \"should not be zero address\" );\r\n   \r\n    require(tokenOwner != msg.sender, \"not owner\");\r\n  \r\n    require(market.forSale, \"not for sale\");\r\n   \r\n    IERC721(market.nftContract).transferFrom(tokenOwner, msg.sender, _tokenId);\r\n  \r\n    address payable sendTo = market.owner;\r\n  \r\n    payable(sendTo).transfer(msg.value);\r\n \r\n    delete idToMarketItem[_tokenId];\r\n      \r\n  }\r\n  \r\n   function changeTokenPrice(uint256 _tokenId, uint256 _newPrice) public {\r\n   \r\n    require(msg.sender != address(0), \"should not be zero address\");\r\n \r\n     MarketItem storage market = idToMarketItem[_tokenId];\r\n     \r\n     market.price = _newPrice;\r\n  \r\n    address tokenOwner = IERC721(market.nftContract).ownerOf(_tokenId);\r\n   \r\n    require(tokenOwner == msg.sender, \"caller should be owner\");\r\n    \r\n    idToMarketItem[_tokenId] = market;\r\n  }\r\n\r\n}",
  "sourcePath": "C:\\Users\\Mustafa\\myNft\\contracts\\MarketPlace.sol",
  "compiler": {
    "name": "solc",
    "version": "0.8.0+commit.c7dfd78e.Emscripten.clang"
  },
  "schemaVersion": "3.4.3",
  "updatedAt": "2021-09-29T12:40:20.813Z",
  "devdoc": {
    "kind": "dev",
    "methods": {},
    "version": 1
  },
  "userdoc": {
    "kind": "user",
    "methods": {},
    "version": 1
  }
}