{
  "contractName": "ProxyRegistry",
  "abi": [
    {
      "inputs": [
        {
          "internalType": "address",
          "name": "",
          "type": "address"
        }
      ],
      "name": "proxies",
      "outputs": [
        {
          "internalType": "contract OwnableDelegateProxy",
          "name": "",
          "type": "address"
        }
      ],
      "stateMutability": "view",
      "type": "function"
    }
  ],
  "bytecode": "0x608060405234801561001057600080fd5b5061019e806100206000396000f3fe608060405234801561001057600080fd5b506004361061002b5760003560e01c8063c455279114610030575b600080fd5b61004a600480360381019061004591906100a8565b610060565b60405161005791906100e0565b60405180910390f35b60006020528060005260406000206000915054906101000a900473ffffffffffffffffffffffffffffffffffffffff1681565b6000813590506100a281610151565b92915050565b6000602082840312156100ba57600080fd5b60006100c884828501610093565b91505092915050565b6100da8161012d565b82525050565b60006020820190506100f560008301846100d1565b92915050565b60006101068261010d565b9050919050565b600073ffffffffffffffffffffffffffffffffffffffff82169050919050565b60006101388261013f565b9050919050565b600061014a8261010d565b9050919050565b61015a816100fb565b811461016557600080fd5b5056fea26469706673582212206cdace6dfd296e11b99526f6410dafc8e7b1c80e1be9fdebdfdafa7ac2d5a62b64736f6c63430008000033",
  "immutableReferences": {},
  "source": "// SPDX-License-Identifier: MIT\r\n\r\npragma solidity ^0.8.0;\r\n\r\nimport \"@openzeppelin/contracts/token/ERC721/ERC721.sol\";\r\nimport \"@openzeppelin/contracts/token/ERC721/extensions/ERC721Enumerable.sol\";\r\nimport \"@openzeppelin/contracts/access/Ownable.sol\";\r\nimport \"@openzeppelin/contracts/utils/math/SafeMath.sol\";\r\nimport \"@openzeppelin/contracts/token/ERC721/presets/ERC721PresetMinterPauserAutoId.sol\";\r\nimport \"@openzeppelin/contracts/utils/Strings.sol\";\r\nimport \"../common/ContentMixin.sol\";\r\nimport \"../common/NativeMetaTransaction.sol\";\r\n\r\ncontract OwnableDelegateProxy {}\r\n\r\ncontract ProxyRegistry {\r\n    mapping(address => OwnableDelegateProxy) public proxies;\r\n}\r\n\r\n/**\r\n * @title ERC721Tradable\r\n * ERC721Tradable - ERC721 contract that whitelists a trading address, and has minting functionality.\r\n */\r\n abstract contract ERC721Tradable is ERC721PresetMinterPauserAutoId,Ownable, ContextMixin, NativeMetaTransaction {\r\n    using SafeMath for uint256;\r\n\r\n    address proxyRegistryAddress;\r\n    uint256 private _currentTokenId = 0;\r\n\r\n    constructor(\r\n        string memory _name,\r\n        string memory _symbol,\r\n        string memory baseurl,\r\n        address _proxyRegistryAddress\r\n    ) ERC721PresetMinterPauserAutoId(_name, _symbol, baseurl) {\r\n        proxyRegistryAddress = _proxyRegistryAddress;\r\n        _initializeEIP712(_name);\r\n    }\r\n\r\n\r\n    function isApprovedForAll(address owner, address operator)\r\n        override\r\n        public\r\n        view\r\n        returns (bool)\r\n    {\r\n        // Whitelist OpenSea proxy contract for easy trading.\r\n        ProxyRegistry proxyRegistry = ProxyRegistry(proxyRegistryAddress);\r\n        if (address(proxyRegistry.proxies(owner)) == operator) {\r\n            return true;\r\n        }\r\n\r\n        return super.isApprovedForAll(owner, operator);\r\n    }\r\n\r\n    /**\r\n     * This is used instead of msg.sender as transactions won't be sent by the original token owner, but by OpenSea.\r\n     */\r\n    function _msgSender()\r\n        internal\r\n        override\r\n        view\r\n        returns (address sender)\r\n    {\r\n        return ContextMixin.msgSender();\r\n    }\r\n}",
  "sourcePath": "C:\\Users\\Mustafa\\myNft\\contracts\\ERC721Tradeable.sol",
  "compiler": {
    "name": "solc",
    "version": "0.8.0+commit.c7dfd78e.Emscripten.clang"
  },
  "schemaVersion": "3.4.3",
  "updatedAt": "2021-09-30T15:40:15.369Z",
  "devdoc": {
    "kind": "dev",
    "methods": {},
    "version": 1
  },
  "userdoc": {
    "kind": "user",
    "methods": {},
    "version": 1
  }
}